8=FIXT.1.1|9=112|35=A|34=1|49=pjseoane232|52=20200516-17:08:46.000|56=ROFX|553=pjseoane232|554=AiZkiC5#|98=0|108=30|141=Y|1137=9|10=035|8=FIXT.1.1|9=145|35=V|34=2|49=pjseoane232|52=20200516-17:08:47.000|56=ROFX|1128=9|146=1|55=RFX20Sep19|262=ListaMktData2|263=2|264=1|265=0|266=Y|267=2|269=0|269=1|10=171|8=FIXT.1.1|9=58|35=0|34=3|49=pjseoane232|52=20200516-17:09:17.000|56=ROFX|10=077|8=FIXT.1.1|9=58|35=0|34=4|49=pjseoane232|52=20200516-17:09:47.000|56=ROFX|10=081|8=FIXT.1.1|9=58|35=0|34=5|49=pjseoane232|52=20200516-17:10:17.000|56=ROFX|10=071|8=FIXT.1.1|9=58|35=0|34=6|49=pjseoane232|52=20200516-17:10:47.000|56=ROFX|10=075|8=FIXT.1.1|9=58|35=0|34=7|49=pjseoane232|52=20200516-17:11:17.000|56=ROFX|10=074|8=FIXT.1.1|9=58|35=0|34=8|49=pjseoane232|52=20200516-17:11:47.000|56=ROFX|10=078|8=FIXT.1.1|9=58|35=0|34=9|49=pjseoane232|52=20200516-17:12:17.000|56=ROFX|10=077|8=FIXT.1.1|9=59|35=0|34=10|49=pjseoane232|52=20200516-17:12:47.000|56=ROFX|10=121|8=FIXT.1.1|9=59|35=0|34=11|49=pjseoane232|52=20200516-17:13:17.000|56=ROFX|10=120|8=FIXT.1.1|9=59|35=0|34=12|49=pjseoane232|52=20200516-17:13:47.000|56=ROFX|10=124|8=FIXT.1.1|9=59|35=0|34=13|49=pjseoane232|52=20200516-17:14:17.000|56=ROFX|10=123|8=FIXT.1.1|9=59|35=0|34=14|49=pjseoane232|52=20200516-17:14:47.000|56=ROFX|10=127|8=FIXT.1.1|9=59|35=0|34=15|49=pjseoane232|52=20200516-17:15:17.000|56=ROFX|10=126|8=FIXT.1.1|9=59|35=0|34=16|49=pjseoane232|52=20200516-17:15:47.000|56=ROFX|10=130|8=FIXT.1.1|9=59|35=0|34=17|49=pjseoane232|52=20200516-17:16:17.000|56=ROFX|10=129|8=FIXT.1.1|9=59|35=0|34=18|49=pjseoane232|52=20200516-17:16:47.000|56=ROFX|10=133|8=FIXT.1.1|9=59|35=0|34=19|49=pjseoane232|52=20200516-17:17:17.000|56=ROFX|10=132|8=FIXT.1.1|9=59|35=0|34=20|49=pjseoane232|52=20200516-17:17:47.000|56=ROFX|10=127|8=FIXT.1.1|9=59|35=0|34=21|49=pjseoane232|52=20200516-17:18:17.000|56=ROFX|10=126|