20190625-01:48:19.000000000 : 8=FIXT.1.1|9=112|35=A|34=1|49=pjseoane232|52=20190625-01:48:19.000|56=ROFX|553=pjseoane232|554=AiZkiC5#|98=0|108=30|141=Y|1137=9|10=041|
20190625-01:48:20.000000000 : 8=FIXT.1.1|9=83|35=A|34=1|49=ROFX|52=20190625-01:48:20.740|56=pjseoane232|98=0|108=30|141=Y|1137=9|10=237|
20190625-01:48:20.000000000 : 8=FIXT.1.1|9=108|35=h|34=2|49=ROFX|52=20190625-01:48:21.282|56=pjseoane232|325=Y|335=NONE|336=[N/A]|340=2|1300=DDA|1301=ROFX|10=090|
20190625-01:48:20.000000000 : 8=FIXT.1.1|9=133|35=3|34=2|49=pjseoane232|52=20190625-01:48:20.000|56=ROFX|45=2|58=Value is incorrect (out of range) for this tag|371=336|372=h|373=5|10=043|
20190625-01:48:20.000000000 : 8=FIXT.1.1|9=109|35=h|34=3|49=ROFX|52=20190625-01:48:21.282|56=pjseoane232|325=Y|335=NONE|336=[N/A]|340=2|1300=RFXI|1301=ROFX|10=204|
20190625-01:48:20.000000000 : 8=FIXT.1.1|9=133|35=3|34=3|49=pjseoane232|52=20190625-01:48:20.000|56=ROFX|45=3|58=Value is incorrect (out of range) for this tag|371=336|372=h|373=5|10=045|
20190625-01:48:20.000000000 : 8=FIXT.1.1|9=122|35=h|34=4|49=ROFX|52=20190625-01:48:21.282|56=pjseoane232|58=EXTERNAL|325=Y|335=NONE|336=[N/A]|340=2|1300=MATBA|1301=ROFX|10=002|
20190625-01:48:20.000000000 : 8=FIXT.1.1|9=133|35=3|34=4|49=pjseoane232|52=20190625-01:48:20.000|56=ROFX|45=4|58=Value is incorrect (out of range) for this tag|371=336|372=h|373=5|10=047|
20190625-01:48:20.000000000 : 8=FIXT.1.1|9=109|35=h|34=5|49=ROFX|52=20190625-01:48:21.282|56=pjseoane232|325=Y|335=NONE|336=[N/A]|340=2|1300=MERV|1301=ROFX|10=207|
20190625-01:48:20.000000000 : 8=FIXT.1.1|9=133|35=3|34=5|49=pjseoane232|52=20190625-01:48:20.000|56=ROFX|45=5|58=Value is incorrect (out of range) for this tag|371=336|372=h|373=5|10=049|
20190625-01:48:20.000000000 : 8=FIXT.1.1|9=108|35=h|34=6|49=ROFX|52=20190625-01:48:21.283|56=pjseoane232|325=Y|335=NONE|336=[N/A]|340=2|1300=DDF|1301=ROFX|10=100|
20190625-01:48:20.000000000 : 8=FIXT.1.1|9=133|35=3|34=6|49=pjseoane232|52=20190625-01:48:20.000|56=ROFX|45=6|58=Value is incorrect (out of range) for this tag|371=336|372=h|373=5|10=051|
20190625-01:48:20.000000000 : 8=FIXT.1.1|9=109|35=h|34=7|49=ROFX|52=20190625-01:48:21.283|56=pjseoane232|325=Y|335=NONE|336=[N/A]|340=2|1300=DUAL|1301=ROFX|10=190|
20190625-01:48:20.000000000 : 8=FIXT.1.1|9=133|35=3|34=7|49=pjseoane232|52=20190625-01:48:20.000|56=ROFX|45=7|58=Value is incorrect (out of range) for this tag|371=336|372=h|373=5|10=053|
20190625-01:48:21.000000000 : 8=FIXT.1.1|9=112|35=h|34=8|49=ROFX|52=20190625-01:48:21.800|56=pjseoane232|325=Y|335=NONE|336=1|340=0|625=1|1300=[N/A]|1301=ROFX|10=201|
20190625-01:49:40.000000000 : 8=FIXT.1.1|9=112|35=A|34=1|49=pjseoane232|52=20190625-01:49:40.000|56=ROFX|553=pjseoane232|554=AiZkiC5#|98=0|108=30|141=Y|1137=9|10=036|
20190625-01:49:41.000000000 : 8=FIXT.1.1|9=83|35=A|34=1|49=ROFX|52=20190625-01:49:42.214|56=pjseoane232|98=0|108=30|141=Y|1137=9|10=238|
20190625-01:49:42.000000000 : 8=FIXT.1.1|9=108|35=h|34=2|49=ROFX|52=20190625-01:49:42.778|56=pjseoane232|325=Y|335=NONE|336=[N/A]|340=2|1300=DDA|1301=ROFX|10=104|
20190625-01:49:42.000000000 : 8=FIXT.1.1|9=133|35=3|34=2|49=pjseoane232|52=20190625-01:49:42.000|56=ROFX|45=2|58=Value is incorrect (out of range) for this tag|371=336|372=h|373=5|10=048|
20190625-01:49:42.000000000 : 8=FIXT.1.1|9=109|35=h|34=3|49=ROFX|52=20190625-01:49:42.792|56=pjseoane232|325=Y|335=NONE|336=[N/A]|340=2|1300=MERV|1301=ROFX|10=215|
20190625-01:49:42.000000000 : 8=FIXT.1.1|9=133|35=3|34=3|49=pjseoane232|52=20190625-01:49:42.000|56=ROFX|45=3|58=Value is incorrect (out of range) for this tag|371=336|372=h|373=5|10=050|
20190625-01:49:42.000000000 : 8=FIXT.1.1|9=108|35=h|34=4|49=ROFX|52=20190625-01:49:42.793|56=pjseoane232|325=Y|335=NONE|336=[N/A]|340=2|1300=DDF|1301=ROFX|10=108|
20190625-01:49:42.000000000 : 8=FIXT.1.1|9=133|35=3|34=4|49=pjseoane232|52=20190625-01:49:42.000|56=ROFX|45=4|58=Value is incorrect (out of range) for this tag|371=336|372=h|373=5|10=052|
20190625-01:49:42.000000000 : 8=FIXT.1.1|9=109|35=h|34=5|49=ROFX|52=20190625-01:49:42.793|56=pjseoane232|325=Y|335=NONE|336=[N/A]|340=2|1300=RFXI|1301=ROFX|10=217|
20190625-01:49:42.000000000 : 8=FIXT.1.1|9=133|35=3|34=5|49=pjseoane232|52=20190625-01:49:42.000|56=ROFX|45=5|58=Value is incorrect (out of range) for this tag|371=336|372=h|373=5|10=054|
20190625-01:49:42.000000000 : 8=FIXT.1.1|9=109|35=h|34=6|49=ROFX|52=20190625-01:49:42.793|56=pjseoane232|325=Y|335=NONE|336=[N/A]|340=2|1300=DUAL|1301=ROFX|10=199|
20190625-01:49:42.000000000 : 8=FIXT.1.1|9=133|35=3|34=6|49=pjseoane232|52=20190625-01:49:42.000|56=ROFX|45=6|58=Value is incorrect (out of range) for this tag|371=336|372=h|373=5|10=056|
20190625-01:49:42.000000000 : 8=FIXT.1.1|9=122|35=h|34=7|49=ROFX|52=20190625-01:49:42.793|56=pjseoane232|58=EXTERNAL|325=Y|335=NONE|336=[N/A]|340=2|1300=MATBA|1301=ROFX|10=016|
20190625-01:49:42.000000000 : 8=FIXT.1.1|9=133|35=3|34=7|49=pjseoane232|52=20190625-01:49:42.000|56=ROFX|45=7|58=Value is incorrect (out of range) for this tag|371=336|372=h|373=5|10=058|
20190625-01:49:42.000000000 : 8=FIXT.1.1|9=112|35=h|34=8|49=ROFX|52=20190625-01:49:43.296|56=pjseoane232|325=Y|335=NONE|336=1|340=0|625=1|1300=[N/A]|1301=ROFX|10=215|
