20190625-01:48:19.000000000 : 8=FIXT.1.1|9=112|35=A|34=1|49=pjseoane232|52=20190625-01:48:19.000|56=ROFX|553=pjseoane232|554=AiZkiC5#|98=0|108=30|141=Y|1137=9|10=041|
20190625-01:48:20.000000000 : 8=FIXT.1.1|9=83|35=A|34=1|49=ROFX|52=20190625-01:48:20.740|56=pjseoane232|98=0|108=30|141=Y|1137=9|10=237|
20190625-01:48:20.000000000 : 8=FIXT.1.1|9=108|35=h|34=2|49=ROFX|52=20190625-01:48:21.282|56=pjseoane232|325=Y|335=NONE|336=[N/A]|340=2|1300=DDA|1301=ROFX|10=090|
20190625-01:48:20.000000000 : 8=FIXT.1.1|9=133|35=3|34=2|49=pjseoane232|52=20190625-01:48:20.000|56=ROFX|45=2|58=Value is incorrect (out of range) for this tag|371=336|372=h|373=5|10=043|
20190625-01:48:20.000000000 : 8=FIXT.1.1|9=109|35=h|34=3|49=ROFX|52=20190625-01:48:21.282|56=pjseoane232|325=Y|335=NONE|336=[N/A]|340=2|1300=RFXI|1301=ROFX|10=204|
20190625-01:48:20.000000000 : 8=FIXT.1.1|9=133|35=3|34=3|49=pjseoane232|52=20190625-01:48:20.000|56=ROFX|45=3|58=Value is incorrect (out of range) for this tag|371=336|372=h|373=5|10=045|
20190625-01:48:20.000000000 : 8=FIXT.1.1|9=122|35=h|34=4|49=ROFX|52=20190625-01:48:21.282|56=pjseoane232|58=EXTERNAL|325=Y|335=NONE|336=[N/A]|340=2|1300=MATBA|1301=ROFX|10=002|
20190625-01:48:20.000000000 : 8=FIXT.1.1|9=133|35=3|34=4|49=pjseoane232|52=20190625-01:48:20.000|56=ROFX|45=4|58=Value is incorrect (out of range) for this tag|371=336|372=h|373=5|10=047|
20190625-01:48:20.000000000 : 8=FIXT.1.1|9=109|35=h|34=5|49=ROFX|52=20190625-01:48:21.282|56=pjseoane232|325=Y|335=NONE|336=[N/A]|340=2|1300=MERV|1301=ROFX|10=207|
20190625-01:48:20.000000000 : 8=FIXT.1.1|9=133|35=3|34=5|49=pjseoane232|52=20190625-01:48:20.000|56=ROFX|45=5|58=Value is incorrect (out of range) for this tag|371=336|372=h|373=5|10=049|
20190625-01:48:20.000000000 : 8=FIXT.1.1|9=108|35=h|34=6|49=ROFX|52=20190625-01:48:21.283|56=pjseoane232|325=Y|335=NONE|336=[N/A]|340=2|1300=DDF|1301=ROFX|10=100|
20190625-01:48:20.000000000 : 8=FIXT.1.1|9=133|35=3|34=6|49=pjseoane232|52=20190625-01:48:20.000|56=ROFX|45=6|58=Value is incorrect (out of range) for this tag|371=336|372=h|373=5|10=051|
20190625-01:48:20.000000000 : 8=FIXT.1.1|9=109|35=h|34=7|49=ROFX|52=20190625-01:48:21.283|56=pjseoane232|325=Y|335=NONE|336=[N/A]|340=2|1300=DUAL|1301=ROFX|10=190|
20190625-01:48:20.000000000 : 8=FIXT.1.1|9=133|35=3|34=7|49=pjseoane232|52=20190625-01:48:20.000|56=ROFX|45=7|58=Value is incorrect (out of range) for this tag|371=336|372=h|373=5|10=053|
20190625-01:48:21.000000000 : 8=FIXT.1.1|9=112|35=h|34=8|49=ROFX|52=20190625-01:48:21.800|56=pjseoane232|325=Y|335=NONE|336=1|340=0|625=1|1300=[N/A]|1301=ROFX|10=201|
20190625-01:49:40.000000000 : 8=FIXT.1.1|9=112|35=A|34=1|49=pjseoane232|52=20190625-01:49:40.000|56=ROFX|553=pjseoane232|554=AiZkiC5#|98=0|108=30|141=Y|1137=9|10=036|
20190625-01:49:41.000000000 : 8=FIXT.1.1|9=83|35=A|34=1|49=ROFX|52=20190625-01:49:42.214|56=pjseoane232|98=0|108=30|141=Y|1137=9|10=238|
20190625-01:49:42.000000000 : 8=FIXT.1.1|9=108|35=h|34=2|49=ROFX|52=20190625-01:49:42.778|56=pjseoane232|325=Y|335=NONE|336=[N/A]|340=2|1300=DDA|1301=ROFX|10=104|
20190625-01:49:42.000000000 : 8=FIXT.1.1|9=133|35=3|34=2|49=pjseoane232|52=20190625-01:49:42.000|56=ROFX|45=2|58=Value is incorrect (out of range) for this tag|371=336|372=h|373=5|10=048|
20190625-01:49:42.000000000 : 8=FIXT.1.1|9=109|35=h|34=3|49=ROFX|52=20190625-01:49:42.792|56=pjseoane232|325=Y|335=NONE|336=[N/A]|340=2|1300=MERV|1301=ROFX|10=215|
20190625-01:49:42.000000000 : 8=FIXT.1.1|9=133|35=3|34=3|49=pjseoane232|52=20190625-01:49:42.000|56=ROFX|45=3|58=Value is incorrect (out of range) for this tag|371=336|372=h|373=5|10=050|
20190625-01:49:42.000000000 : 8=FIXT.1.1|9=108|35=h|34=4|49=ROFX|52=20190625-01:49:42.793|56=pjseoane232|325=Y|335=NONE|336=[N/A]|340=2|1300=DDF|1301=ROFX|10=108|
20190625-01:49:42.000000000 : 8=FIXT.1.1|9=133|35=3|34=4|49=pjseoane232|52=20190625-01:49:42.000|56=ROFX|45=4|58=Value is incorrect (out of range) for this tag|371=336|372=h|373=5|10=052|
20190625-01:49:42.000000000 : 8=FIXT.1.1|9=109|35=h|34=5|49=ROFX|52=20190625-01:49:42.793|56=pjseoane232|325=Y|335=NONE|336=[N/A]|340=2|1300=RFXI|1301=ROFX|10=217|
20190625-01:49:42.000000000 : 8=FIXT.1.1|9=133|35=3|34=5|49=pjseoane232|52=20190625-01:49:42.000|56=ROFX|45=5|58=Value is incorrect (out of range) for this tag|371=336|372=h|373=5|10=054|
20190625-01:49:42.000000000 : 8=FIXT.1.1|9=109|35=h|34=6|49=ROFX|52=20190625-01:49:42.793|56=pjseoane232|325=Y|335=NONE|336=[N/A]|340=2|1300=DUAL|1301=ROFX|10=199|
20190625-01:49:42.000000000 : 8=FIXT.1.1|9=133|35=3|34=6|49=pjseoane232|52=20190625-01:49:42.000|56=ROFX|45=6|58=Value is incorrect (out of range) for this tag|371=336|372=h|373=5|10=056|
20190625-01:49:42.000000000 : 8=FIXT.1.1|9=122|35=h|34=7|49=ROFX|52=20190625-01:49:42.793|56=pjseoane232|58=EXTERNAL|325=Y|335=NONE|336=[N/A]|340=2|1300=MATBA|1301=ROFX|10=016|
20190625-01:49:42.000000000 : 8=FIXT.1.1|9=133|35=3|34=7|49=pjseoane232|52=20190625-01:49:42.000|56=ROFX|45=7|58=Value is incorrect (out of range) for this tag|371=336|372=h|373=5|10=058|
20190625-01:49:42.000000000 : 8=FIXT.1.1|9=112|35=h|34=8|49=ROFX|52=20190625-01:49:43.296|56=pjseoane232|325=Y|335=NONE|336=1|340=0|625=1|1300=[N/A]|1301=ROFX|10=215|
20190626-22:22:38.000000000 : 8=FIXT.1.1|9=112|35=A|34=1|49=pjseoane232|52=20190626-22:22:38.000|56=ROFX|553=pjseoane232|554=AiZkiC5#|98=0|108=30|141=Y|1137=9|10=038|
20190626-22:22:39.000000000 : 8=FIXT.1.1|9=83|35=A|34=1|49=ROFX|52=20190626-22:22:41.269|56=pjseoane232|98=0|108=30|141=Y|1137=9|10=242|
20190626-22:22:39.000000000 : 8=FIXT.1.1|9=108|35=h|34=2|49=ROFX|52=20190626-22:22:41.825|56=pjseoane232|325=Y|335=NONE|336=[N/A]|340=2|1300=DDA|1301=ROFX|10=091|
20190626-22:22:39.000000000 : 8=FIXT.1.1|9=133|35=3|34=2|49=pjseoane232|52=20190626-22:22:39.000|56=ROFX|45=2|58=Value is incorrect (out of range) for this tag|371=336|372=h|373=5|10=049|
20190626-22:22:39.000000000 : 8=FIXT.1.1|9=109|35=h|34=3|49=ROFX|52=20190626-22:22:41.834|56=pjseoane232|325=Y|335=NONE|336=[N/A]|340=2|1300=MERV|1301=ROFX|10=206|
20190626-22:22:39.000000000 : 8=FIXT.1.1|9=133|35=3|34=3|49=pjseoane232|52=20190626-22:22:39.000|56=ROFX|45=3|58=Value is incorrect (out of range) for this tag|371=336|372=h|373=5|10=051|
20190626-22:22:39.000000000 : 8=FIXT.1.1|9=122|35=h|34=4|49=ROFX|52=20190626-22:22:41.834|56=pjseoane232|58=EXTERNAL|325=Y|335=NONE|336=[N/A]|340=2|1300=MATBA|1301=ROFX|10=003|
20190626-22:22:39.000000000 : 8=FIXT.1.1|9=133|35=3|34=4|49=pjseoane232|52=20190626-22:22:39.000|56=ROFX|45=4|58=Value is incorrect (out of range) for this tag|371=336|372=h|373=5|10=053|
20190626-22:22:39.000000000 : 8=FIXT.1.1|9=108|35=h|34=5|49=ROFX|52=20190626-22:22:41.834|56=pjseoane232|325=Y|335=NONE|336=[N/A]|340=2|1300=DDF|1301=ROFX|10=099|
20190626-22:22:39.000000000 : 8=FIXT.1.1|9=133|35=3|34=5|49=pjseoane232|52=20190626-22:22:39.000|56=ROFX|45=5|58=Value is incorrect (out of range) for this tag|371=336|372=h|373=5|10=055|
20190626-22:22:39.000000000 : 8=FIXT.1.1|9=109|35=h|34=6|49=ROFX|52=20190626-22:22:41.834|56=pjseoane232|325=Y|335=NONE|336=[N/A]|340=2|1300=RFXI|1301=ROFX|10=208|
20190626-22:22:39.000000000 : 8=FIXT.1.1|9=133|35=3|34=6|49=pjseoane232|52=20190626-22:22:39.000|56=ROFX|45=6|58=Value is incorrect (out of range) for this tag|371=336|372=h|373=5|10=057|
20190626-22:22:39.000000000 : 8=FIXT.1.1|9=109|35=h|34=7|49=ROFX|52=20190626-22:22:41.834|56=pjseoane232|325=Y|335=NONE|336=[N/A]|340=2|1300=DUAL|1301=ROFX|10=190|
20190626-22:22:39.000000000 : 8=FIXT.1.1|9=133|35=3|34=7|49=pjseoane232|52=20190626-22:22:39.000|56=ROFX|45=7|58=Value is incorrect (out of range) for this tag|371=336|372=h|373=5|10=059|
20190626-22:22:40.000000000 : 8=FIXT.1.1|9=112|35=h|34=8|49=ROFX|52=20190626-22:22:42.343|56=pjseoane232|325=Y|335=NONE|336=1|340=0|625=1|1300=[N/A]|1301=ROFX|10=202|
20190626-22:23:09.000000000 : 8=FIXT.1.1|9=58|35=0|34=8|49=pjseoane232|52=20190626-22:23:09.000|56=ROFX|10=085|
20190626-22:23:11.000000000 : 8=FIXT.1.1|9=58|35=0|34=9|49=ROFX|52=20190626-22:23:13.013|56=pjseoane232|10=085|
20190626-22:23:39.000000000 : 8=FIXT.1.1|9=58|35=0|34=9|49=pjseoane232|52=20190626-22:23:39.000|56=ROFX|10=089|
20190626-22:23:41.000000000 : 8=FIXT.1.1|9=59|35=0|34=10|49=ROFX|52=20190626-22:23:43.013|56=pjseoane232|10=129|
20190626-22:39:06.000000000 : 8=FIXT.1.1|9=112|35=A|34=1|49=pjseoane232|52=20190626-22:39:06.000|56=ROFX|553=pjseoane232|554=AiZkiC5#|98=0|108=30|141=Y|1137=9|10=041|
20190626-22:39:07.000000000 : 8=FIXT.1.1|9=83|35=A|34=1|49=ROFX|52=20190626-22:39:09.164|56=pjseoane232|98=0|108=30|141=Y|1137=9|10=248|
20190626-22:39:07.000000000 : 8=FIXT.1.1|9=108|35=h|34=2|49=ROFX|52=20190626-22:39:09.713|56=pjseoane232|325=Y|335=NONE|336=[N/A]|340=2|1300=DDA|1301=ROFX|10=099|
20190626-22:39:07.000000000 : 8=FIXT.1.1|9=133|35=3|34=2|49=pjseoane232|52=20190626-22:39:07.000|56=ROFX|45=2|58=Value is incorrect (out of range) for this tag|371=336|372=h|373=5|10=052|
20190626-22:39:07.000000000 : 8=FIXT.1.1|9=108|35=h|34=3|49=ROFX|52=20190626-22:39:09.713|56=pjseoane232|325=Y|335=NONE|336=[N/A]|340=2|1300=DDF|1301=ROFX|10=105|
20190626-22:39:07.000000000 : 8=FIXT.1.1|9=133|35=3|34=3|49=pjseoane232|52=20190626-22:39:07.000|56=ROFX|45=3|58=Value is incorrect (out of range) for this tag|371=336|372=h|373=5|10=054|
20190626-22:39:07.000000000 : 8=FIXT.1.1|9=109|35=h|34=4|49=ROFX|52=20190626-22:39:09.713|56=pjseoane232|325=Y|335=NONE|336=[N/A]|340=2|1300=MERV|1301=ROFX|10=215|
20190626-22:39:07.000000000 : 8=FIXT.1.1|9=133|35=3|34=4|49=pjseoane232|52=20190626-22:39:07.000|56=ROFX|45=4|58=Value is incorrect (out of range) for this tag|371=336|372=h|373=5|10=056|
20190626-22:39:07.000000000 : 8=FIXT.1.1|9=109|35=h|34=5|49=ROFX|52=20190626-22:39:09.713|56=pjseoane232|325=Y|335=NONE|336=[N/A]|340=2|1300=DUAL|1301=ROFX|10=196|
20190626-22:39:07.000000000 : 8=FIXT.1.1|9=133|35=3|34=5|49=pjseoane232|52=20190626-22:39:07.000|56=ROFX|45=5|58=Value is incorrect (out of range) for this tag|371=336|372=h|373=5|10=058|
20190626-22:39:07.000000000 : 8=FIXT.1.1|9=122|35=h|34=6|49=ROFX|52=20190626-22:39:09.713|56=pjseoane232|58=EXTERNAL|325=Y|335=NONE|336=[N/A]|340=2|1300=MATBA|1301=ROFX|10=013|
20190626-22:39:07.000000000 : 8=FIXT.1.1|9=133|35=3|34=6|49=pjseoane232|52=20190626-22:39:07.000|56=ROFX|45=6|58=Value is incorrect (out of range) for this tag|371=336|372=h|373=5|10=060|
20190626-22:39:07.000000000 : 8=FIXT.1.1|9=109|35=h|34=7|49=ROFX|52=20190626-22:39:09.713|56=pjseoane232|325=Y|335=NONE|336=[N/A]|340=2|1300=RFXI|1301=ROFX|10=217|
20190626-22:39:07.000000000 : 8=FIXT.1.1|9=133|35=3|34=7|49=pjseoane232|52=20190626-22:39:07.000|56=ROFX|45=7|58=Value is incorrect (out of range) for this tag|371=336|372=h|373=5|10=062|
20190626-22:39:08.000000000 : 8=FIXT.1.1|9=112|35=h|34=8|49=ROFX|52=20190626-22:39:10.236|56=pjseoane232|325=Y|335=NONE|336=1|340=0|625=1|1300=[N/A]|1301=ROFX|10=206|
20190626-22:39:37.000000000 : 8=FIXT.1.1|9=58|35=0|34=8|49=pjseoane232|52=20190626-22:39:37.000|56=ROFX|10=093|
20190626-22:39:39.000000000 : 8=FIXT.1.1|9=58|35=0|34=9|49=ROFX|52=20190626-22:39:41.013|56=pjseoane232|10=093|
20190626-22:40:07.000000000 : 8=FIXT.1.1|9=58|35=0|34=9|49=pjseoane232|52=20190626-22:40:07.000|56=ROFX|10=083|
20190626-22:40:09.000000000 : 8=FIXT.1.1|9=59|35=0|34=10|49=ROFX|52=20190626-22:40:11.013|56=pjseoane232|10=123|
20190626-22:40:37.000000000 : 8=FIXT.1.1|9=59|35=0|34=10|49=pjseoane232|52=20190626-22:40:37.000|56=ROFX|10=127|
20190626-22:40:39.000000000 : 8=FIXT.1.1|9=59|35=0|34=11|49=ROFX|52=20190626-22:40:41.013|56=pjseoane232|10=127|
20190626-22:41:07.000000000 : 8=FIXT.1.1|9=59|35=0|34=11|49=pjseoane232|52=20190626-22:41:07.000|56=ROFX|10=126|
20190626-22:41:09.000000000 : 8=FIXT.1.1|9=59|35=0|34=12|49=ROFX|52=20190626-22:41:11.013|56=pjseoane232|10=126|
20190626-22:41:37.000000000 : 8=FIXT.1.1|9=59|35=0|34=12|49=pjseoane232|52=20190626-22:41:37.000|56=ROFX|10=130|
20190626-22:41:39.000000000 : 8=FIXT.1.1|9=59|35=0|34=13|49=ROFX|52=20190626-22:41:41.013|56=pjseoane232|10=130|
20190626-22:42:07.000000000 : 8=FIXT.1.1|9=59|35=0|34=13|49=pjseoane232|52=20190626-22:42:07.000|56=ROFX|10=129|
20190626-22:42:09.000000000 : 8=FIXT.1.1|9=59|35=0|34=14|49=ROFX|52=20190626-22:42:11.013|56=pjseoane232|10=129|
20190626-22:42:37.000000000 : 8=FIXT.1.1|9=59|35=0|34=14|49=pjseoane232|52=20190626-22:42:37.000|56=ROFX|10=133|
20190626-22:42:39.000000000 : 8=FIXT.1.1|9=59|35=0|34=15|49=ROFX|52=20190626-22:42:41.013|56=pjseoane232|10=133|
20190626-22:43:07.000000000 : 8=FIXT.1.1|9=59|35=0|34=15|49=pjseoane232|52=20190626-22:43:07.000|56=ROFX|10=132|
20190626-22:43:09.000000000 : 8=FIXT.1.1|9=59|35=0|34=16|49=ROFX|52=20190626-22:43:11.013|56=pjseoane232|10=132|
20190626-22:43:37.000000000 : 8=FIXT.1.1|9=59|35=0|34=16|49=pjseoane232|52=20190626-22:43:37.000|56=ROFX|10=136|
20190626-22:43:39.000000000 : 8=FIXT.1.1|9=59|35=0|34=17|49=ROFX|52=20190626-22:43:41.013|56=pjseoane232|10=136|
20190626-22:44:07.000000000 : 8=FIXT.1.1|9=59|35=0|34=17|49=pjseoane232|52=20190626-22:44:07.000|56=ROFX|10=135|
20190626-22:44:09.000000000 : 8=FIXT.1.1|9=59|35=0|34=18|49=ROFX|52=20190626-22:44:11.013|56=pjseoane232|10=135|
20190626-22:44:37.000000000 : 8=FIXT.1.1|9=59|35=0|34=18|49=pjseoane232|52=20190626-22:44:37.000|56=ROFX|10=139|
20190626-22:44:40.000000000 : 8=FIXT.1.1|9=59|35=0|34=19|49=ROFX|52=20190626-22:44:41.013|56=pjseoane232|10=139|
20190626-22:45:07.000000000 : 8=FIXT.1.1|9=59|35=0|34=19|49=pjseoane232|52=20190626-22:45:07.000|56=ROFX|10=138|
20190626-22:45:09.000000000 : 8=FIXT.1.1|9=59|35=0|34=20|49=ROFX|52=20190626-22:45:11.013|56=pjseoane232|10=129|
20190626-22:45:37.000000000 : 8=FIXT.1.1|9=59|35=0|34=20|49=pjseoane232|52=20190626-22:45:37.000|56=ROFX|10=133|
20190626-22:45:39.000000000 : 8=FIXT.1.1|9=59|35=0|34=21|49=ROFX|52=20190626-22:45:41.013|56=pjseoane232|10=133|
20190626-22:46:07.000000000 : 8=FIXT.1.1|9=59|35=0|34=21|49=pjseoane232|52=20190626-22:46:07.000|56=ROFX|10=132|
20190626-22:46:09.000000000 : 8=FIXT.1.1|9=59|35=0|34=22|49=ROFX|52=20190626-22:46:11.013|56=pjseoane232|10=132|
20190626-22:46:37.000000000 : 8=FIXT.1.1|9=59|35=0|34=22|49=pjseoane232|52=20190626-22:46:37.000|56=ROFX|10=136|
20190626-22:46:39.000000000 : 8=FIXT.1.1|9=59|35=0|34=23|49=ROFX|52=20190626-22:46:41.013|56=pjseoane232|10=136|
20190626-22:47:07.000000000 : 8=FIXT.1.1|9=59|35=0|34=23|49=pjseoane232|52=20190626-22:47:07.000|56=ROFX|10=135|
20190626-22:47:11.000000000 : 8=FIXT.1.1|9=59|35=0|34=24|49=ROFX|52=20190626-22:47:11.013|56=pjseoane232|10=135|
20190626-22:47:37.000000000 : 8=FIXT.1.1|9=59|35=0|34=24|49=pjseoane232|52=20190626-22:47:37.000|56=ROFX|10=139|
20190626-22:47:39.000000000 : 8=FIXT.1.1|9=59|35=0|34=25|49=ROFX|52=20190626-22:47:41.013|56=pjseoane232|10=139|
20190626-22:48:07.000000000 : 8=FIXT.1.1|9=59|35=0|34=25|49=pjseoane232|52=20190626-22:48:07.000|56=ROFX|10=138|
20190626-22:48:09.000000000 : 8=FIXT.1.1|9=59|35=0|34=26|49=ROFX|52=20190626-22:48:11.013|56=pjseoane232|10=138|
20190626-22:48:13.000000000 : 8=FIXT.1.1|9=112|35=A|34=1|49=pjseoane232|52=20190626-22:48:13.000|56=ROFX|553=pjseoane232|554=AiZkiC5#|98=0|108=30|141=Y|1137=9|10=039|
20190626-22:48:13.000000000 : 8=FIXT.1.1|9=83|35=A|34=1|49=ROFX|52=20190626-22:48:15.826|56=pjseoane232|98=0|108=30|141=Y|1137=9|10=250|
20190626-22:48:14.000000000 : 8=FIXT.1.1|9=108|35=h|34=2|49=ROFX|52=20190626-22:48:16.373|56=pjseoane232|325=Y|335=NONE|336=[N/A]|340=2|1300=DDA|1301=ROFX|10=099|
20190626-22:48:14.000000000 : 8=FIXT.1.1|9=133|35=3|34=2|49=pjseoane232|52=20190626-22:48:14.000|56=ROFX|45=2|58=Value is incorrect (out of range) for this tag|371=336|372=h|373=5|10=050|
20190626-22:48:14.000000000 : 8=FIXT.1.1|9=108|35=h|34=3|49=ROFX|52=20190626-22:48:16.373|56=pjseoane232|325=Y|335=NONE|336=[N/A]|340=2|1300=DDF|1301=ROFX|10=105|
20190626-22:48:14.000000000 : 8=FIXT.1.1|9=133|35=3|34=3|49=pjseoane232|52=20190626-22:48:14.000|56=ROFX|45=3|58=Value is incorrect (out of range) for this tag|371=336|372=h|373=5|10=052|
20190626-22:48:14.000000000 : 8=FIXT.1.1|9=109|35=h|34=4|49=ROFX|52=20190626-22:48:16.373|56=pjseoane232|325=Y|335=NONE|336=[N/A]|340=2|1300=MERV|1301=ROFX|10=215|
20190626-22:48:14.000000000 : 8=FIXT.1.1|9=133|35=3|34=4|49=pjseoane232|52=20190626-22:48:14.000|56=ROFX|45=4|58=Value is incorrect (out of range) for this tag|371=336|372=h|373=5|10=054|
20190626-22:48:14.000000000 : 8=FIXT.1.1|9=109|35=h|34=5|49=ROFX|52=20190626-22:48:16.373|56=pjseoane232|325=Y|335=NONE|336=[N/A]|340=2|1300=RFXI|1301=ROFX|10=215|
20190626-22:48:14.000000000 : 8=FIXT.1.1|9=133|35=3|34=5|49=pjseoane232|52=20190626-22:48:14.000|56=ROFX|45=5|58=Value is incorrect (out of range) for this tag|371=336|372=h|373=5|10=056|
20190626-22:48:14.000000000 : 8=FIXT.1.1|9=122|35=h|34=6|49=ROFX|52=20190626-22:48:16.373|56=pjseoane232|58=EXTERNAL|325=Y|335=NONE|336=[N/A]|340=2|1300=MATBA|1301=ROFX|10=013|
20190626-22:48:14.000000000 : 8=FIXT.1.1|9=133|35=3|34=6|49=pjseoane232|52=20190626-22:48:14.000|56=ROFX|45=6|58=Value is incorrect (out of range) for this tag|371=336|372=h|373=5|10=058|
20190626-22:48:14.000000000 : 8=FIXT.1.1|9=109|35=h|34=7|49=ROFX|52=20190626-22:48:16.374|56=pjseoane232|325=Y|335=NONE|336=[N/A]|340=2|1300=DUAL|1301=ROFX|10=199|
20190626-22:48:14.000000000 : 8=FIXT.1.1|9=133|35=3|34=7|49=pjseoane232|52=20190626-22:48:14.000|56=ROFX|45=7|58=Value is incorrect (out of range) for this tag|371=336|372=h|373=5|10=060|
20190626-22:48:15.000000000 : 8=FIXT.1.1|9=112|35=h|34=8|49=ROFX|52=20190626-22:48:16.889|56=pjseoane232|325=Y|335=NONE|336=1|340=0|625=1|1300=[N/A]|1301=ROFX|10=226|
20190626-22:48:44.000000000 : 8=FIXT.1.1|9=58|35=0|34=8|49=pjseoane232|52=20190626-22:48:44.000|56=ROFX|10=091|
20190626-22:48:45.000000000 : 8=FIXT.1.1|9=58|35=0|34=9|49=ROFX|52=20190626-22:48:47.013|56=pjseoane232|10=099|
20190626-22:49:14.000000000 : 8=FIXT.1.1|9=58|35=0|34=9|49=pjseoane232|52=20190626-22:49:14.000|56=ROFX|10=090|
20190626-22:49:15.000000000 : 8=FIXT.1.1|9=59|35=0|34=10|49=ROFX|52=20190626-22:49:17.013|56=pjseoane232|10=138|
20190626-22:49:44.000000000 : 8=FIXT.1.1|9=59|35=0|34=10|49=pjseoane232|52=20190626-22:49:44.000|56=ROFX|10=134|
20190626-22:49:45.000000000 : 8=FIXT.1.1|9=59|35=0|34=11|49=ROFX|52=20190626-22:49:47.013|56=pjseoane232|10=142|
20190626-22:50:14.000000000 : 8=FIXT.1.1|9=59|35=0|34=11|49=pjseoane232|52=20190626-22:50:14.000|56=ROFX|10=124|
20190626-22:50:15.000000000 : 8=FIXT.1.1|9=59|35=0|34=12|49=ROFX|52=20190626-22:50:17.013|56=pjseoane232|10=132|
20190626-22:50:44.000000000 : 8=FIXT.1.1|9=59|35=0|34=12|49=pjseoane232|52=20190626-22:50:44.000|56=ROFX|10=128|
20190626-22:50:45.000000000 : 8=FIXT.1.1|9=59|35=0|34=13|49=ROFX|52=20190626-22:50:47.013|56=pjseoane232|10=136|
20190626-22:51:14.000000000 : 8=FIXT.1.1|9=59|35=0|34=13|49=pjseoane232|52=20190626-22:51:14.000|56=ROFX|10=127|
20190626-22:51:15.000000000 : 8=FIXT.1.1|9=59|35=0|34=14|49=ROFX|52=20190626-22:51:17.013|56=pjseoane232|10=135|
20190626-22:51:44.000000000 : 8=FIXT.1.1|9=59|35=0|34=14|49=pjseoane232|52=20190626-22:51:44.000|56=ROFX|10=131|
20190626-22:51:45.000000000 : 8=FIXT.1.1|9=59|35=0|34=15|49=ROFX|52=20190626-22:51:47.013|56=pjseoane232|10=139|
20190626-22:52:14.000000000 : 8=FIXT.1.1|9=59|35=0|34=15|49=pjseoane232|52=20190626-22:52:14.000|56=ROFX|10=130|
20190626-22:52:15.000000000 : 8=FIXT.1.1|9=59|35=0|34=16|49=ROFX|52=20190626-22:52:17.013|56=pjseoane232|10=138|
20190626-22:52:44.000000000 : 8=FIXT.1.1|9=59|35=0|34=16|49=pjseoane232|52=20190626-22:52:44.000|56=ROFX|10=134|
20190626-22:52:45.000000000 : 8=FIXT.1.1|9=59|35=0|34=17|49=ROFX|52=20190626-22:52:47.013|56=pjseoane232|10=142|
20190626-22:53:14.000000000 : 8=FIXT.1.1|9=59|35=0|34=17|49=pjseoane232|52=20190626-22:53:14.000|56=ROFX|10=133|
20190626-22:53:15.000000000 : 8=FIXT.1.1|9=59|35=0|34=18|49=ROFX|52=20190626-22:53:17.013|56=pjseoane232|10=141|
20190626-22:53:44.000000000 : 8=FIXT.1.1|9=59|35=0|34=18|49=pjseoane232|52=20190626-22:53:44.000|56=ROFX|10=137|
20190626-22:53:45.000000000 : 8=FIXT.1.1|9=59|35=0|34=19|49=ROFX|52=20190626-22:53:47.013|56=pjseoane232|10=145|
20190626-22:54:14.000000000 : 8=FIXT.1.1|9=59|35=0|34=19|49=pjseoane232|52=20190626-22:54:14.000|56=ROFX|10=136|
20190626-22:54:15.000000000 : 8=FIXT.1.1|9=59|35=0|34=20|49=ROFX|52=20190626-22:54:17.013|56=pjseoane232|10=135|
20190626-22:54:42.000000000 : 8=FIXT.1.1|9=112|35=A|34=1|49=pjseoane232|52=20190626-22:54:42.000|56=ROFX|553=pjseoane232|554=AiZkiC5#|98=0|108=30|141=Y|1137=9|10=038|
20190626-22:54:43.000000000 : 8=FIXT.1.1|9=83|35=A|34=1|49=ROFX|52=20190626-22:54:45.443|56=pjseoane232|98=0|108=30|141=Y|1137=9|10=245|
20190626-22:54:44.000000000 : 8=FIXT.1.1|9=108|35=h|34=2|49=ROFX|52=20190626-22:54:45.992|56=pjseoane232|325=Y|335=NONE|336=[N/A]|340=2|1300=DDA|1301=ROFX|10=105|
20190626-22:54:44.000000000 : 8=FIXT.1.1|9=133|35=3|34=2|49=pjseoane232|52=20190626-22:54:44.000|56=ROFX|45=2|58=Value is incorrect (out of range) for this tag|371=336|372=h|373=5|10=050|
20190626-22:54:44.000000000 : 8=FIXT.1.1|9=109|35=h|34=3|49=ROFX|52=20190626-22:54:45.992|56=pjseoane232|325=Y|335=NONE|336=[N/A]|340=2|1300=DUAL|1301=ROFX|10=200|
20190626-22:54:44.000000000 : 8=FIXT.1.1|9=133|35=3|34=3|49=pjseoane232|52=20190626-22:54:44.000|56=ROFX|45=3|58=Value is incorrect (out of range) for this tag|371=336|372=h|373=5|10=052|
20190626-22:54:44.000000000 : 8=FIXT.1.1|9=109|35=h|34=4|49=ROFX|52=20190626-22:54:45.992|56=pjseoane232|325=Y|335=NONE|336=[N/A]|340=2|1300=RFXI|1301=ROFX|10=220|
20190626-22:54:44.000000000 : 8=FIXT.1.1|9=133|35=3|34=4|49=pjseoane232|52=20190626-22:54:44.000|56=ROFX|45=4|58=Value is incorrect (out of range) for this tag|371=336|372=h|373=5|10=054|
20190626-22:54:44.000000000 : 8=FIXT.1.1|9=109|35=h|34=5|49=ROFX|52=20190626-22:54:45.992|56=pjseoane232|325=Y|335=NONE|336=[N/A]|340=2|1300=MERV|1301=ROFX|10=222|
20190626-22:54:44.000000000 : 8=FIXT.1.1|9=133|35=3|34=5|49=pjseoane232|52=20190626-22:54:44.000|56=ROFX|45=5|58=Value is incorrect (out of range) for this tag|371=336|372=h|373=5|10=056|
20190626-22:54:44.000000000 : 8=FIXT.1.1|9=122|35=h|34=6|49=ROFX|52=20190626-22:54:45.992|56=pjseoane232|58=EXTERNAL|325=Y|335=NONE|336=[N/A]|340=2|1300=MATBA|1301=ROFX|10=019|
20190626-22:54:44.000000000 : 8=FIXT.1.1|9=133|35=3|34=6|49=pjseoane232|52=20190626-22:54:44.000|56=ROFX|45=6|58=Value is incorrect (out of range) for this tag|371=336|372=h|373=5|10=058|
20190626-22:54:44.000000000 : 8=FIXT.1.1|9=108|35=h|34=7|49=ROFX|52=20190626-22:54:45.992|56=pjseoane232|325=Y|335=NONE|336=[N/A]|340=2|1300=DDF|1301=ROFX|10=115|
20190626-22:54:44.000000000 : 8=FIXT.1.1|9=133|35=3|34=7|49=pjseoane232|52=20190626-22:54:44.000|56=ROFX|45=7|58=Value is incorrect (out of range) for this tag|371=336|372=h|373=5|10=060|
20190626-22:54:44.000000000 : 8=FIXT.1.1|9=112|35=h|34=8|49=ROFX|52=20190626-22:54:46.513|56=pjseoane232|325=Y|335=NONE|336=1|340=0|625=1|1300=[N/A]|1301=ROFX|10=210|
20190626-22:55:14.000000000 : 8=FIXT.1.1|9=58|35=0|34=8|49=pjseoane232|52=20190626-22:55:14.000|56=ROFX|10=086|
20190626-22:55:15.000000000 : 8=FIXT.1.1|9=58|35=0|34=9|49=ROFX|52=20190626-22:55:17.013|56=pjseoane232|10=094|
20190626-22:55:44.000000000 : 8=FIXT.1.1|9=58|35=0|34=9|49=pjseoane232|52=20190626-22:55:44.000|56=ROFX|10=090|
20190626-22:55:45.000000000 : 8=FIXT.1.1|9=59|35=0|34=10|49=ROFX|52=20190626-22:55:47.013|56=pjseoane232|10=138|
20190626-22:56:14.000000000 : 8=FIXT.1.1|9=59|35=0|34=10|49=pjseoane232|52=20190626-22:56:14.000|56=ROFX|10=129|
20190626-22:56:15.000000000 : 8=FIXT.1.1|9=59|35=0|34=11|49=ROFX|52=20190626-22:56:17.013|56=pjseoane232|10=137|
20190626-22:56:44.000000000 : 8=FIXT.1.1|9=59|35=0|34=11|49=pjseoane232|52=20190626-22:56:44.000|56=ROFX|10=133|
20190626-22:56:45.000000000 : 8=FIXT.1.1|9=59|35=0|34=12|49=ROFX|52=20190626-22:56:47.013|56=pjseoane232|10=141|
20190626-22:57:14.000000000 : 8=FIXT.1.1|9=59|35=0|34=12|49=pjseoane232|52=20190626-22:57:14.000|56=ROFX|10=132|
20190626-22:57:15.000000000 : 8=FIXT.1.1|9=59|35=0|34=13|49=ROFX|52=20190626-22:57:17.013|56=pjseoane232|10=140|
20190626-23:13:17.000000000 : 8=FIXT.1.1|9=112|35=A|34=1|49=pjseoane232|52=20190626-23:13:17.000|56=ROFX|553=pjseoane232|554=AiZkiC5#|98=0|108=30|141=Y|1137=9|10=036|
20190626-23:13:18.000000000 : 8=FIXT.1.1|9=83|35=A|34=1|49=ROFX|52=20190626-23:13:19.938|56=pjseoane232|98=0|108=30|141=Y|1137=9|10=251|
20190626-23:13:18.000000000 : 8=FIXT.1.1|9=108|35=h|34=2|49=ROFX|52=20190626-23:13:20.478|56=pjseoane232|325=Y|335=NONE|336=[N/A]|340=2|1300=DDA|1301=ROFX|10=093|
20190626-23:13:18.000000000 : 8=FIXT.1.1|9=133|35=3|34=2|49=pjseoane232|52=20190626-23:13:18.000|56=ROFX|45=2|58=Value is incorrect (out of range) for this tag|371=336|372=h|373=5|10=047|
20190626-23:13:18.000000000 : 8=FIXT.1.1|9=109|35=h|34=3|49=ROFX|52=20190626-23:13:20.479|56=pjseoane232|325=Y|335=NONE|336=[N/A]|340=2|1300=DUAL|1301=ROFX|10=189|
20190626-23:13:18.000000000 : 8=FIXT.1.1|9=133|35=3|34=3|49=pjseoane232|52=20190626-23:13:18.000|56=ROFX|45=3|58=Value is incorrect (out of range) for this tag|371=336|372=h|373=5|10=049|
20190626-23:13:18.000000000 : 8=FIXT.1.1|9=108|35=h|34=4|49=ROFX|52=20190626-23:13:20.479|56=pjseoane232|325=Y|335=NONE|336=[N/A]|340=2|1300=DDF|1301=ROFX|10=101|
20190626-23:13:18.000000000 : 8=FIXT.1.1|9=133|35=3|34=4|49=pjseoane232|52=20190626-23:13:18.000|56=ROFX|45=4|58=Value is incorrect (out of range) for this tag|371=336|372=h|373=5|10=051|
20190626-23:13:18.000000000 : 8=FIXT.1.1|9=109|35=h|34=5|49=ROFX|52=20190626-23:13:20.479|56=pjseoane232|325=Y|335=NONE|336=[N/A]|340=2|1300=MERV|1301=ROFX|10=211|
20190626-23:13:18.000000000 : 8=FIXT.1.1|9=133|35=3|34=5|49=pjseoane232|52=20190626-23:13:18.000|56=ROFX|45=5|58=Value is incorrect (out of range) for this tag|371=336|372=h|373=5|10=053|
20190626-23:13:18.000000000 : 8=FIXT.1.1|9=122|35=h|34=6|49=ROFX|52=20190626-23:13:20.479|56=pjseoane232|58=EXTERNAL|325=Y|335=NONE|336=[N/A]|340=2|1300=MATBA|1301=ROFX|10=008|
20190626-23:13:18.000000000 : 8=FIXT.1.1|9=133|35=3|34=6|49=pjseoane232|52=20190626-23:13:18.000|56=ROFX|45=6|58=Value is incorrect (out of range) for this tag|371=336|372=h|373=5|10=055|
20190626-23:13:18.000000000 : 8=FIXT.1.1|9=109|35=h|34=7|49=ROFX|52=20190626-23:13:20.479|56=pjseoane232|325=Y|335=NONE|336=[N/A]|340=2|1300=RFXI|1301=ROFX|10=212|
20190626-23:13:18.000000000 : 8=FIXT.1.1|9=133|35=3|34=7|49=pjseoane232|52=20190626-23:13:18.000|56=ROFX|45=7|58=Value is incorrect (out of range) for this tag|371=336|372=h|373=5|10=057|
20190626-23:13:19.000000000 : 8=FIXT.1.1|9=112|35=h|34=8|49=ROFX|52=20190626-23:13:20.999|56=pjseoane232|325=Y|335=NONE|336=1|340=0|625=1|1300=[N/A]|1301=ROFX|10=216|
20190626-23:13:48.000000000 : 8=FIXT.1.1|9=58|35=0|34=8|49=pjseoane232|52=20190626-23:13:48.000|56=ROFX|10=088|
20190626-23:13:49.000000000 : 8=FIXT.1.1|9=58|35=0|34=9|49=ROFX|52=20190626-23:13:51.013|56=pjseoane232|10=087|
20190626-23:19:23.000000000 : 8=FIXT.1.1|9=112|35=A|34=1|49=pjseoane232|52=20190626-23:19:23.000|56=ROFX|553=pjseoane232|554=AiZkiC5#|98=0|108=30|141=Y|1137=9|10=039|
20190626-23:19:29.000000000 : 8=FIXT.1.1|9=83|35=A|34=1|49=ROFX|52=20190626-23:19:31.726|56=pjseoane232|98=0|108=30|141=Y|1137=9|10=246|
20190626-23:19:30.000000000 : 8=FIXT.1.1|9=108|35=h|34=2|49=ROFX|52=20190626-23:19:32.268|56=pjseoane232|325=Y|335=NONE|336=[N/A]|340=2|1300=DDA|1301=ROFX|10=099|
20190626-23:19:30.000000000 : 8=FIXT.1.1|9=133|35=3|34=2|49=pjseoane232|52=20190626-23:19:30.000|56=ROFX|45=2|58=Value is incorrect (out of range) for this tag|371=336|372=h|373=5|10=047|
20190626-23:19:30.000000000 : 8=FIXT.1.1|9=109|35=h|34=3|49=ROFX|52=20190626-23:19:32.268|56=pjseoane232|325=Y|335=NONE|336=[N/A]|340=2|1300=MERV|1301=ROFX|10=214|
20190626-23:19:30.000000000 : 8=FIXT.1.1|9=133|35=3|34=3|49=pjseoane232|52=20190626-23:19:30.000|56=ROFX|45=3|58=Value is incorrect (out of range) for this tag|371=336|372=h|373=5|10=049|
20190626-23:19:30.000000000 : 8=FIXT.1.1|9=108|35=h|34=4|49=ROFX|52=20190626-23:19:32.268|56=pjseoane232|325=Y|335=NONE|336=[N/A]|340=2|1300=DDF|1301=ROFX|10=106|
20190626-23:19:30.000000000 : 8=FIXT.1.1|9=133|35=3|34=4|49=pjseoane232|52=20190626-23:19:30.000|56=ROFX|45=4|58=Value is incorrect (out of range) for this tag|371=336|372=h|373=5|10=051|
20190626-23:19:30.000000000 : 8=FIXT.1.1|9=109|35=h|34=5|49=ROFX|52=20190626-23:19:32.268|56=pjseoane232|325=Y|335=NONE|336=[N/A]|340=2|1300=DUAL|1301=ROFX|10=196|
20190626-23:19:30.000000000 : 8=FIXT.1.1|9=133|35=3|34=5|49=pjseoane232|52=20190626-23:19:30.000|56=ROFX|45=5|58=Value is incorrect (out of range) for this tag|371=336|372=h|373=5|10=053|
20190626-23:19:30.000000000 : 8=FIXT.1.1|9=122|35=h|34=6|49=ROFX|52=20190626-23:19:32.268|56=pjseoane232|58=EXTERNAL|325=Y|335=NONE|336=[N/A]|340=2|1300=MATBA|1301=ROFX|10=013|
20190626-23:19:30.000000000 : 8=FIXT.1.1|9=133|35=3|34=6|49=pjseoane232|52=20190626-23:19:30.000|56=ROFX|45=6|58=Value is incorrect (out of range) for this tag|371=336|372=h|373=5|10=055|
20190626-23:19:30.000000000 : 8=FIXT.1.1|9=109|35=h|34=7|49=ROFX|52=20190626-23:19:32.268|56=pjseoane232|325=Y|335=NONE|336=[N/A]|340=2|1300=RFXI|1301=ROFX|10=217|
20190626-23:19:30.000000000 : 8=FIXT.1.1|9=133|35=3|34=7|49=pjseoane232|52=20190626-23:19:30.000|56=ROFX|45=7|58=Value is incorrect (out of range) for this tag|371=336|372=h|373=5|10=057|
20190626-23:19:30.000000000 : 8=FIXT.1.1|9=112|35=h|34=8|49=ROFX|52=20190626-23:19:32.786|56=pjseoane232|325=Y|335=NONE|336=1|340=0|625=1|1300=[N/A]|1301=ROFX|10=219|
20190626-23:20:00.000000000 : 8=FIXT.1.1|9=58|35=0|34=8|49=pjseoane232|52=20190626-23:20:00.000|56=ROFX|10=074|
20190626-23:20:01.000000000 : 8=FIXT.1.1|9=58|35=0|34=9|49=ROFX|52=20190626-23:20:03.013|56=pjseoane232|10=082|
20190626-23:20:30.000000000 : 8=FIXT.1.1|9=58|35=0|34=9|49=pjseoane232|52=20190626-23:20:30.000|56=ROFX|10=078|
20190626-23:20:31.000000000 : 8=FIXT.1.1|9=59|35=0|34=10|49=ROFX|52=20190626-23:20:33.013|56=pjseoane232|10=126|
20190626-23:21:00.000000000 : 8=FIXT.1.1|9=59|35=0|34=10|49=pjseoane232|52=20190626-23:21:00.000|56=ROFX|10=117|
20190626-23:21:01.000000000 : 8=FIXT.1.1|9=59|35=0|34=11|49=ROFX|52=20190626-23:21:03.013|56=pjseoane232|10=125|
20190626-23:21:30.000000000 : 8=FIXT.1.1|9=59|35=0|34=11|49=pjseoane232|52=20190626-23:21:30.000|56=ROFX|10=121|
20190626-23:21:31.000000000 : 8=FIXT.1.1|9=59|35=0|34=12|49=ROFX|52=20190626-23:21:33.013|56=pjseoane232|10=129|
20190626-23:22:00.000000000 : 8=FIXT.1.1|9=59|35=0|34=12|49=pjseoane232|52=20190626-23:22:00.000|56=ROFX|10=120|
20190626-23:22:01.000000000 : 8=FIXT.1.1|9=59|35=0|34=13|49=ROFX|52=20190626-23:22:03.013|56=pjseoane232|10=128|
20190626-23:22:30.000000000 : 8=FIXT.1.1|9=59|35=0|34=13|49=pjseoane232|52=20190626-23:22:30.000|56=ROFX|10=124|
20190626-23:22:31.000000000 : 8=FIXT.1.1|9=59|35=0|34=14|49=ROFX|52=20190626-23:22:33.013|56=pjseoane232|10=132|
20190626-23:23:00.000000000 : 8=FIXT.1.1|9=112|35=A|34=1|49=pjseoane232|52=20190626-23:23:00.000|56=ROFX|553=pjseoane232|554=AiZkiC5#|98=0|108=30|141=Y|1137=9|10=029|
20190626-23:23:01.000000000 : 8=FIXT.1.1|9=83|35=A|34=1|49=ROFX|52=20190626-23:23:03.422|56=pjseoane232|98=0|108=30|141=Y|1137=9|10=233|
20190626-23:23:02.000000000 : 8=FIXT.1.1|9=108|35=h|34=2|49=ROFX|52=20190626-23:23:03.961|56=pjseoane232|325=Y|335=NONE|336=[N/A]|340=2|1300=DDA|1301=ROFX|10=092|
20190626-23:23:02.000000000 : 8=FIXT.1.1|9=133|35=3|34=2|49=pjseoane232|52=20190626-23:23:02.000|56=ROFX|45=2|58=Value is incorrect (out of range) for this tag|371=336|372=h|373=5|10=041|
20190626-23:23:02.000000000 : 8=FIXT.1.1|9=109|35=h|34=3|49=ROFX|52=20190626-23:23:03.961|56=pjseoane232|325=Y|335=NONE|336=[N/A]|340=2|1300=MERV|1301=ROFX|10=207|
20190626-23:23:02.000000000 : 8=FIXT.1.1|9=133|35=3|34=3|49=pjseoane232|52=20190626-23:23:02.000|56=ROFX|45=3|58=Value is incorrect (out of range) for this tag|371=336|372=h|373=5|10=043|
20190626-23:23:02.000000000 : 8=FIXT.1.1|9=122|35=h|34=4|49=ROFX|52=20190626-23:23:03.961|56=pjseoane232|58=EXTERNAL|325=Y|335=NONE|336=[N/A]|340=2|1300=MATBA|1301=ROFX|10=004|
20190626-23:23:02.000000000 : 8=FIXT.1.1|9=133|35=3|34=4|49=pjseoane232|52=20190626-23:23:02.000|56=ROFX|45=4|58=Value is incorrect (out of range) for this tag|371=336|372=h|373=5|10=045|
20190626-23:23:02.000000000 : 8=FIXT.1.1|9=109|35=h|34=5|49=ROFX|52=20190626-23:23:03.962|56=pjseoane232|325=Y|335=NONE|336=[N/A]|340=2|1300=RFXI|1301=ROFX|10=209|
20190626-23:23:02.000000000 : 8=FIXT.1.1|9=133|35=3|34=5|49=pjseoane232|52=20190626-23:23:02.000|56=ROFX|45=5|58=Value is incorrect (out of range) for this tag|371=336|372=h|373=5|10=047|
20190626-23:23:02.000000000 : 8=FIXT.1.1|9=108|35=h|34=6|49=ROFX|52=20190626-23:23:03.962|56=pjseoane232|325=Y|335=NONE|336=[N/A]|340=2|1300=DDF|1301=ROFX|10=102|
20190626-23:23:02.000000000 : 8=FIXT.1.1|9=133|35=3|34=6|49=pjseoane232|52=20190626-23:23:02.000|56=ROFX|45=6|58=Value is incorrect (out of range) for this tag|371=336|372=h|373=5|10=049|
20190626-23:23:02.000000000 : 8=FIXT.1.1|9=109|35=h|34=7|49=ROFX|52=20190626-23:23:03.962|56=pjseoane232|325=Y|335=NONE|336=[N/A]|340=2|1300=DUAL|1301=ROFX|10=192|
20190626-23:23:02.000000000 : 8=FIXT.1.1|9=133|35=3|34=7|49=pjseoane232|52=20190626-23:23:02.000|56=ROFX|45=7|58=Value is incorrect (out of range) for this tag|371=336|372=h|373=5|10=051|
20190626-23:23:02.000000000 : 8=FIXT.1.1|9=112|35=h|34=8|49=ROFX|52=20190626-23:23:04.481|56=pjseoane232|325=Y|335=NONE|336=1|340=0|625=1|1300=[N/A]|1301=ROFX|10=205|
20190626-23:23:10.000000000 : 8=FIXT.1.1|9=112|35=A|34=1|49=pjseoane232|52=20190626-23:23:10.000|56=ROFX|553=pjseoane232|554=AiZkiC5#|98=0|108=30|141=Y|1137=9|10=030|
20190626-23:23:11.000000000 : 8=FIXT.1.1|9=83|35=A|34=1|49=ROFX|52=20190626-23:23:13.128|56=pjseoane232|98=0|108=30|141=Y|1137=9|10=237|
20190626-23:23:11.000000000 : 8=FIXT.1.1|9=108|35=h|34=2|49=ROFX|52=20190626-23:23:13.666|56=pjseoane232|325=Y|335=NONE|336=[N/A]|340=2|1300=DDA|1301=ROFX|10=095|
20190626-23:23:11.000000000 : 8=FIXT.1.1|9=133|35=3|34=2|49=pjseoane232|52=20190626-23:23:11.000|56=ROFX|45=2|58=Value is incorrect (out of range) for this tag|371=336|372=h|373=5|10=041|
20190626-23:23:11.000000000 : 8=FIXT.1.1|9=109|35=h|34=3|49=ROFX|52=20190626-23:23:13.666|56=pjseoane232|325=Y|335=NONE|336=[N/A]|340=2|1300=DUAL|1301=ROFX|10=190|
20190626-23:23:11.000000000 : 8=FIXT.1.1|9=133|35=3|34=3|49=pjseoane232|52=20190626-23:23:11.000|56=ROFX|45=3|58=Value is incorrect (out of range) for this tag|371=336|372=h|373=5|10=043|
20190626-23:23:11.000000000 : 8=FIXT.1.1|9=108|35=h|34=4|49=ROFX|52=20190626-23:23:13.667|56=pjseoane232|325=Y|335=NONE|336=[N/A]|340=2|1300=DDF|1301=ROFX|10=103|
20190626-23:23:11.000000000 : 8=FIXT.1.1|9=133|35=3|34=4|49=pjseoane232|52=20190626-23:23:11.000|56=ROFX|45=4|58=Value is incorrect (out of range) for this tag|371=336|372=h|373=5|10=045|
20190626-23:23:11.000000000 : 8=FIXT.1.1|9=109|35=h|34=5|49=ROFX|52=20190626-23:23:13.667|56=pjseoane232|325=Y|335=NONE|336=[N/A]|340=2|1300=MERV|1301=ROFX|10=213|
20190626-23:23:11.000000000 : 8=FIXT.1.1|9=133|35=3|34=5|49=pjseoane232|52=20190626-23:23:11.000|56=ROFX|45=5|58=Value is incorrect (out of range) for this tag|371=336|372=h|373=5|10=047|
20190626-23:23:11.000000000 : 8=FIXT.1.1|9=122|35=h|34=6|49=ROFX|52=20190626-23:23:13.667|56=pjseoane232|58=EXTERNAL|325=Y|335=NONE|336=[N/A]|340=2|1300=MATBA|1301=ROFX|10=010|
20190626-23:23:11.000000000 : 8=FIXT.1.1|9=133|35=3|34=6|49=pjseoane232|52=20190626-23:23:11.000|56=ROFX|45=6|58=Value is incorrect (out of range) for this tag|371=336|372=h|373=5|10=049|
20190626-23:23:11.000000000 : 8=FIXT.1.1|9=109|35=h|34=7|49=ROFX|52=20190626-23:23:13.667|56=pjseoane232|325=Y|335=NONE|336=[N/A]|340=2|1300=RFXI|1301=ROFX|10=214|
20190626-23:23:11.000000000 : 8=FIXT.1.1|9=133|35=3|34=7|49=pjseoane232|52=20190626-23:23:11.000|56=ROFX|45=7|58=Value is incorrect (out of range) for this tag|371=336|372=h|373=5|10=051|
20190626-23:23:12.000000000 : 8=FIXT.1.1|9=112|35=h|34=8|49=ROFX|52=20190626-23:23:14.186|56=pjseoane232|325=Y|335=NONE|336=1|340=0|625=1|1300=[N/A]|1301=ROFX|10=208|
20190626-23:23:41.000000000 : 8=FIXT.1.1|9=58|35=0|34=8|49=pjseoane232|52=20190626-23:23:41.000|56=ROFX|10=082|
20190626-23:23:43.000000000 : 8=FIXT.1.1|9=58|35=0|34=9|49=ROFX|52=20190626-23:23:45.013|56=pjseoane232|10=091|
20190626-23:28:50.000000000 : 8=FIXT.1.1|9=112|35=A|34=1|49=pjseoane232|52=20190626-23:28:50.000|56=ROFX|553=pjseoane232|554=AiZkiC5#|98=0|108=30|141=Y|1137=9|10=039|
20190626-23:28:51.000000000 : 8=FIXT.1.1|9=83|35=A|34=1|49=ROFX|52=20190626-23:28:53.165|56=pjseoane232|98=0|108=30|141=Y|1137=9|10=247|
20190626-23:28:51.000000000 : 8=FIXT.1.1|9=108|35=h|34=2|49=ROFX|52=20190626-23:28:53.704|56=pjseoane232|325=Y|335=NONE|336=[N/A]|340=2|1300=DDA|1301=ROFX|10=097|
20190626-23:28:51.000000000 : 8=FIXT.1.1|9=133|35=3|34=2|49=pjseoane232|52=20190626-23:28:51.000|56=ROFX|45=2|58=Value is incorrect (out of range) for this tag|371=336|372=h|373=5|10=050|
20190626-23:28:51.000000000 : 8=FIXT.1.1|9=108|35=h|34=3|49=ROFX|52=20190626-23:28:53.704|56=pjseoane232|325=Y|335=NONE|336=[N/A]|340=2|1300=DDF|1301=ROFX|10=103|
20190626-23:28:51.000000000 : 8=FIXT.1.1|9=133|35=3|34=3|49=pjseoane232|52=20190626-23:28:51.000|56=ROFX|45=3|58=Value is incorrect (out of range) for this tag|371=336|372=h|373=5|10=052|
20190626-23:28:51.000000000 : 8=FIXT.1.1|9=109|35=h|34=4|49=ROFX|52=20190626-23:28:53.704|56=pjseoane232|325=Y|335=NONE|336=[N/A]|340=2|1300=MERV|1301=ROFX|10=213|
20190626-23:28:51.000000000 : 8=FIXT.1.1|9=133|35=3|34=4|49=pjseoane232|52=20190626-23:28:51.000|56=ROFX|45=4|58=Value is incorrect (out of range) for this tag|371=336|372=h|373=5|10=054|
20190626-23:28:51.000000000 : 8=FIXT.1.1|9=122|35=h|34=5|49=ROFX|52=20190626-23:28:53.705|56=pjseoane232|58=EXTERNAL|325=Y|335=NONE|336=[N/A]|340=2|1300=MATBA|1301=ROFX|10=011|
20190626-23:28:51.000000000 : 8=FIXT.1.1|9=133|35=3|34=5|49=pjseoane232|52=20190626-23:28:51.000|56=ROFX|45=5|58=Value is incorrect (out of range) for this tag|371=336|372=h|373=5|10=056|
20190626-23:28:51.000000000 : 8=FIXT.1.1|9=109|35=h|34=6|49=ROFX|52=20190626-23:28:53.705|56=pjseoane232|325=Y|335=NONE|336=[N/A]|340=2|1300=DUAL|1301=ROFX|10=196|
20190626-23:28:51.000000000 : 8=FIXT.1.1|9=133|35=3|34=6|49=pjseoane232|52=20190626-23:28:51.000|56=ROFX|45=6|58=Value is incorrect (out of range) for this tag|371=336|372=h|373=5|10=058|
20190626-23:28:51.000000000 : 8=FIXT.1.1|9=109|35=h|34=7|49=ROFX|52=20190626-23:28:53.705|56=pjseoane232|325=Y|335=NONE|336=[N/A]|340=2|1300=RFXI|1301=ROFX|10=216|
20190626-23:28:51.000000000 : 8=FIXT.1.1|9=133|35=3|34=7|49=pjseoane232|52=20190626-23:28:51.000|56=ROFX|45=7|58=Value is incorrect (out of range) for this tag|371=336|372=h|373=5|10=060|
20190626-23:28:52.000000000 : 8=FIXT.1.1|9=112|35=h|34=8|49=ROFX|52=20190626-23:28:54.224|56=pjseoane232|325=Y|335=NONE|336=1|340=0|625=1|1300=[N/A]|1301=ROFX|10=210|
20190626-23:29:21.000000000 : 8=FIXT.1.1|9=58|35=0|34=8|49=pjseoane232|52=20190626-23:29:21.000|56=ROFX|10=086|
20190626-23:29:23.000000000 : 8=FIXT.1.1|9=58|35=0|34=9|49=ROFX|52=20190626-23:29:25.013|56=pjseoane232|10=095|
20190626-23:29:51.000000000 : 8=FIXT.1.1|9=58|35=0|34=9|49=pjseoane232|52=20190626-23:29:51.000|56=ROFX|10=090|
20190626-23:29:53.000000000 : 8=FIXT.1.1|9=59|35=0|34=10|49=ROFX|52=20190626-23:29:55.013|56=pjseoane232|10=139|
20190626-23:30:21.000000000 : 8=FIXT.1.1|9=59|35=0|34=10|49=pjseoane232|52=20190626-23:30:21.000|56=ROFX|10=120|
20190626-23:30:23.000000000 : 8=FIXT.1.1|9=59|35=0|34=11|49=ROFX|52=20190626-23:30:25.013|56=pjseoane232|10=129|
20190626-23:30:51.000000000 : 8=FIXT.1.1|9=59|35=0|34=11|49=pjseoane232|52=20190626-23:30:51.000|56=ROFX|10=124|
20190626-23:30:53.000000000 : 8=FIXT.1.1|9=59|35=0|34=12|49=ROFX|52=20190626-23:30:55.013|56=pjseoane232|10=133|
20190626-23:31:21.000000000 : 8=FIXT.1.1|9=59|35=0|34=12|49=pjseoane232|52=20190626-23:31:21.000|56=ROFX|10=123|
20190626-23:31:23.000000000 : 8=FIXT.1.1|9=59|35=0|34=13|49=ROFX|52=20190626-23:31:25.013|56=pjseoane232|10=132|
20190626-23:31:51.000000000 : 8=FIXT.1.1|9=59|35=0|34=13|49=pjseoane232|52=20190626-23:31:51.000|56=ROFX|10=127|
20190626-23:31:53.000000000 : 8=FIXT.1.1|9=59|35=0|34=14|49=ROFX|52=20190626-23:31:55.013|56=pjseoane232|10=136|
20190626-23:32:21.000000000 : 8=FIXT.1.1|9=59|35=0|34=14|49=pjseoane232|52=20190626-23:32:21.000|56=ROFX|10=126|
20190626-23:32:23.000000000 : 8=FIXT.1.1|9=59|35=0|34=15|49=ROFX|52=20190626-23:32:25.013|56=pjseoane232|10=135|
20190626-23:32:51.000000000 : 8=FIXT.1.1|9=59|35=0|34=15|49=pjseoane232|52=20190626-23:32:51.000|56=ROFX|10=130|
20190626-23:32:53.000000000 : 8=FIXT.1.1|9=59|35=0|34=16|49=ROFX|52=20190626-23:32:55.013|56=pjseoane232|10=139|
20190626-23:33:21.000000000 : 8=FIXT.1.1|9=59|35=0|34=16|49=pjseoane232|52=20190626-23:33:21.000|56=ROFX|10=129|
20190626-23:33:23.000000000 : 8=FIXT.1.1|9=59|35=0|34=17|49=ROFX|52=20190626-23:33:25.013|56=pjseoane232|10=138|
20190626-23:33:51.000000000 : 8=FIXT.1.1|9=59|35=0|34=17|49=pjseoane232|52=20190626-23:33:51.000|56=ROFX|10=133|
20190626-23:33:53.000000000 : 8=FIXT.1.1|9=59|35=0|34=18|49=ROFX|52=20190626-23:33:55.013|56=pjseoane232|10=142|
20190627-00:02:15.000000000 : 8=FIXT.1.1|9=112|35=A|34=1|49=pjseoane232|52=20190627-00:02:15.000|56=ROFX|553=pjseoane232|554=AiZkiC5#|98=0|108=30|141=Y|1137=9|10=028|
20190627-00:02:20.000000000 : 8=FIXT.1.1|9=83|35=A|34=1|49=ROFX|52=20190627-00:02:21.906|56=pjseoane232|98=0|108=30|141=Y|1137=9|10=233|
20190627-00:02:20.000000000 : 8=FIXT.1.1|9=108|35=h|34=2|49=ROFX|52=20190627-00:02:22.459|56=pjseoane232|325=Y|335=NONE|336=[N/A]|340=2|1300=DDF|1301=ROFX|10=093|
20190627-00:02:20.000000000 : 8=FIXT.1.1|9=133|35=3|34=2|49=pjseoane232|52=20190627-00:02:20.000|56=ROFX|45=2|58=Value is incorrect (out of range) for this tag|371=336|372=h|373=5|10=034|
20190627-00:02:20.000000000 : 8=FIXT.1.1|9=109|35=h|34=3|49=ROFX|52=20190627-00:02:22.469|56=pjseoane232|325=Y|335=NONE|336=[N/A]|340=2|1300=MERV|1301=ROFX|10=204|
20190627-00:02:20.000000000 : 8=FIXT.1.1|9=133|35=3|34=3|49=pjseoane232|52=20190627-00:02:20.000|56=ROFX|45=3|58=Value is incorrect (out of range) for this tag|371=336|372=h|373=5|10=036|
20190627-00:02:20.000000000 : 8=FIXT.1.1|9=109|35=h|34=4|49=ROFX|52=20190627-00:02:22.469|56=pjseoane232|325=Y|335=NONE|336=[N/A]|340=2|1300=DUAL|1301=ROFX|10=185|
20190627-00:02:20.000000000 : 8=FIXT.1.1|9=133|35=3|34=4|49=pjseoane232|52=20190627-00:02:20.000|56=ROFX|45=4|58=Value is incorrect (out of range) for this tag|371=336|372=h|373=5|10=038|
20190627-00:02:20.000000000 : 8=FIXT.1.1|9=122|35=h|34=5|49=ROFX|52=20190627-00:02:22.469|56=pjseoane232|58=EXTERNAL|325=Y|335=NONE|336=[N/A]|340=2|1300=MATBA|1301=ROFX|10=002|
20190627-00:02:20.000000000 : 8=FIXT.1.1|9=133|35=3|34=5|49=pjseoane232|52=20190627-00:02:20.000|56=ROFX|45=5|58=Value is incorrect (out of range) for this tag|371=336|372=h|373=5|10=040|
20190627-00:02:20.000000000 : 8=FIXT.1.1|9=109|35=h|34=6|49=ROFX|52=20190627-00:02:22.469|56=pjseoane232|325=Y|335=NONE|336=[N/A]|340=2|1300=RFXI|1301=ROFX|10=206|
20190627-00:02:20.000000000 : 8=FIXT.1.1|9=133|35=3|34=6|49=pjseoane232|52=20190627-00:02:20.000|56=ROFX|45=6|58=Value is incorrect (out of range) for this tag|371=336|372=h|373=5|10=042|
20190627-00:02:20.000000000 : 8=FIXT.1.1|9=108|35=h|34=7|49=ROFX|52=20190627-00:02:22.469|56=pjseoane232|325=Y|335=NONE|336=[N/A]|340=2|1300=DDA|1301=ROFX|10=094|
20190627-00:02:20.000000000 : 8=FIXT.1.1|9=133|35=3|34=7|49=pjseoane232|52=20190627-00:02:20.000|56=ROFX|45=7|58=Value is incorrect (out of range) for this tag|371=336|372=h|373=5|10=044|
20190627-00:02:21.000000000 : 8=FIXT.1.1|9=112|35=h|34=8|49=ROFX|52=20190627-00:02:22.981|56=pjseoane232|325=Y|335=NONE|336=1|340=0|625=1|1300=[N/A]|1301=ROFX|10=203|
20190627-00:50:43.000000000 : 8=FIXT.1.1|9=112|35=A|34=1|49=pjseoane232|52=20190627-00:50:43.000|56=ROFX|553=pjseoane232|554=AiZkiC5#|98=0|108=30|141=Y|1137=9|10=032|
20190627-00:50:44.000000000 : 8=FIXT.1.1|9=83|35=A|34=1|49=ROFX|52=20190627-00:50:46.388|56=pjseoane232|98=0|108=30|141=Y|1137=9|10=247|
20190627-00:50:45.000000000 : 8=FIXT.1.1|9=108|35=h|34=2|49=ROFX|52=20190627-00:50:46.940|56=pjseoane232|325=Y|335=NONE|336=[N/A]|340=2|1300=DDA|1301=ROFX|10=092|
20190627-00:50:45.000000000 : 8=FIXT.1.1|9=133|35=3|34=2|49=pjseoane232|52=20190627-00:50:45.000|56=ROFX|45=2|58=Value is incorrect (out of range) for this tag|371=336|372=h|373=5|10=044|
20190627-00:50:45.000000000 : 8=FIXT.1.1|9=108|35=h|34=3|49=ROFX|52=20190627-00:50:46.948|56=pjseoane232|325=Y|335=NONE|336=[N/A]|340=2|1300=DDF|1301=ROFX|10=106|
20190627-00:50:45.000000000 : 8=FIXT.1.1|9=133|35=3|34=3|49=pjseoane232|52=20190627-00:50:45.000|56=ROFX|45=3|58=Value is incorrect (out of range) for this tag|371=336|372=h|373=5|10=046|
20190627-00:50:45.000000000 : 8=FIXT.1.1|9=109|35=h|34=4|49=ROFX|52=20190627-00:50:46.948|56=pjseoane232|325=Y|335=NONE|336=[N/A]|340=2|1300=DUAL|1301=ROFX|10=196|
20190627-00:50:45.000000000 : 8=FIXT.1.1|9=133|35=3|34=4|49=pjseoane232|52=20190627-00:50:45.000|56=ROFX|45=4|58=Value is incorrect (out of range) for this tag|371=336|372=h|373=5|10=048|
20190627-00:50:45.000000000 : 8=FIXT.1.1|9=109|35=h|34=5|49=ROFX|52=20190627-00:50:46.948|56=pjseoane232|325=Y|335=NONE|336=[N/A]|340=2|1300=MERV|1301=ROFX|10=217|
20190627-00:50:45.000000000 : 8=FIXT.1.1|9=133|35=3|34=5|49=pjseoane232|52=20190627-00:50:45.000|56=ROFX|45=5|58=Value is incorrect (out of range) for this tag|371=336|372=h|373=5|10=050|
20190627-00:50:45.000000000 : 8=FIXT.1.1|9=122|35=h|34=6|49=ROFX|52=20190627-00:50:46.948|56=pjseoane232|58=EXTERNAL|325=Y|335=NONE|336=[N/A]|340=2|1300=MATBA|1301=ROFX|10=014|
20190627-00:50:45.000000000 : 8=FIXT.1.1|9=133|35=3|34=6|49=pjseoane232|52=20190627-00:50:45.000|56=ROFX|45=6|58=Value is incorrect (out of range) for this tag|371=336|372=h|373=5|10=052|
20190627-00:50:45.000000000 : 8=FIXT.1.1|9=109|35=h|34=7|49=ROFX|52=20190627-00:50:46.949|56=pjseoane232|325=Y|335=NONE|336=[N/A]|340=2|1300=RFXI|1301=ROFX|10=219|
20190627-00:50:45.000000000 : 8=FIXT.1.1|9=133|35=3|34=7|49=pjseoane232|52=20190627-00:50:45.000|56=ROFX|45=7|58=Value is incorrect (out of range) for this tag|371=336|372=h|373=5|10=054|
20190627-00:50:45.000000000 : 8=FIXT.1.1|9=112|35=h|34=8|49=ROFX|52=20190627-00:50:47.460|56=pjseoane232|325=Y|335=NONE|336=1|340=0|625=1|1300=[N/A]|1301=ROFX|10=205|
20190627-01:10:49.000000000 : 8=FIXT.1.1|9=112|35=A|34=1|49=pjseoane232|52=20190627-01:10:49.000|56=ROFX|553=pjseoane232|554=AiZkiC5#|98=0|108=30|141=Y|1137=9|10=035|
20190627-01:10:51.000000000 : 8=FIXT.1.1|9=83|35=A|34=1|49=ROFX|52=20190627-01:10:53.226|56=pjseoane232|98=0|108=30|141=Y|1137=9|10=233|
20190627-01:10:52.000000000 : 8=FIXT.1.1|9=108|35=h|34=2|49=ROFX|52=20190627-01:10:53.765|56=pjseoane232|325=Y|335=NONE|336=[N/A]|340=2|1300=DDA|1301=ROFX|10=092|
20190627-01:10:52.000000000 : 8=FIXT.1.1|9=133|35=3|34=2|49=pjseoane232|52=20190627-01:10:52.000|56=ROFX|45=2|58=Value is incorrect (out of range) for this tag|371=336|372=h|373=5|10=039|
20190627-01:10:52.000000000 : 8=FIXT.1.1|9=109|35=h|34=3|49=ROFX|52=20190627-01:10:53.766|56=pjseoane232|325=Y|335=NONE|336=[N/A]|340=2|1300=RFXI|1301=ROFX|10=207|
20190627-01:10:52.000000000 : 8=FIXT.1.1|9=133|35=3|34=3|49=pjseoane232|52=20190627-01:10:52.000|56=ROFX|45=3|58=Value is incorrect (out of range) for this tag|371=336|372=h|373=5|10=041|
20190627-01:10:52.000000000 : 8=FIXT.1.1|9=109|35=h|34=4|49=ROFX|52=20190627-01:10:53.766|56=pjseoane232|325=Y|335=NONE|336=[N/A]|340=2|1300=MERV|1301=ROFX|10=209|
20190627-01:10:52.000000000 : 8=FIXT.1.1|9=133|35=3|34=4|49=pjseoane232|52=20190627-01:10:52.000|56=ROFX|45=4|58=Value is incorrect (out of range) for this tag|371=336|372=h|373=5|10=043|
20190627-01:10:52.000000000 : 8=FIXT.1.1|9=122|35=h|34=5|49=ROFX|52=20190627-01:10:53.766|56=pjseoane232|58=EXTERNAL|325=Y|335=NONE|336=[N/A]|340=2|1300=MATBA|1301=ROFX|10=006|
20190627-01:10:52.000000000 : 8=FIXT.1.1|9=133|35=3|34=5|49=pjseoane232|52=20190627-01:10:52.000|56=ROFX|45=5|58=Value is incorrect (out of range) for this tag|371=336|372=h|373=5|10=045|
20190627-01:10:52.000000000 : 8=FIXT.1.1|9=108|35=h|34=6|49=ROFX|52=20190627-01:10:53.766|56=pjseoane232|325=Y|335=NONE|336=[N/A]|340=2|1300=DDF|1301=ROFX|10=102|
20190627-01:10:52.000000000 : 8=FIXT.1.1|9=133|35=3|34=6|49=pjseoane232|52=20190627-01:10:52.000|56=ROFX|45=6|58=Value is incorrect (out of range) for this tag|371=336|372=h|373=5|10=047|
20190627-01:10:52.000000000 : 8=FIXT.1.1|9=109|35=h|34=7|49=ROFX|52=20190627-01:10:53.766|56=pjseoane232|325=Y|335=NONE|336=[N/A]|340=2|1300=DUAL|1301=ROFX|10=192|
20190627-01:10:52.000000000 : 8=FIXT.1.1|9=133|35=3|34=7|49=pjseoane232|52=20190627-01:10:52.000|56=ROFX|45=7|58=Value is incorrect (out of range) for this tag|371=336|372=h|373=5|10=049|
20190627-01:10:52.000000000 : 8=FIXT.1.1|9=112|35=h|34=8|49=ROFX|52=20190627-01:10:54.285|56=pjseoane232|325=Y|335=NONE|336=1|340=0|625=1|1300=[N/A]|1301=ROFX|10=205|
20190627-01:11:22.000000000 : 8=FIXT.1.1|9=58|35=0|34=8|49=pjseoane232|52=20190627-01:11:22.000|56=ROFX|10=075|
20190627-01:11:22.000000000 : 8=FIXT.1.1|9=58|35=0|34=9|49=ROFX|52=20190627-01:11:24.386|56=pjseoane232|10=095|
20190627-01:11:52.000000000 : 8=FIXT.1.1|9=58|35=0|34=9|49=pjseoane232|52=20190627-01:11:52.000|56=ROFX|10=079|
20190627-01:11:52.000000000 : 8=FIXT.1.1|9=59|35=0|34=10|49=ROFX|52=20190627-01:11:54.406|56=pjseoane232|10=132|
20190627-01:12:22.000000000 : 8=FIXT.1.1|9=59|35=0|34=10|49=pjseoane232|52=20190627-01:12:22.000|56=ROFX|10=118|
20190627-01:12:22.000000000 : 8=FIXT.1.1|9=59|35=0|34=11|49=ROFX|52=20190627-01:12:24.424|56=pjseoane232|10=131|
20190627-01:12:31.000000000 : 8=FIXT.1.1|9=112|35=A|34=1|49=pjseoane232|52=20190627-01:12:31.000|56=ROFX|553=pjseoane232|554=AiZkiC5#|98=0|108=30|141=Y|1137=9|10=028|
20190627-01:12:33.000000000 : 8=FIXT.1.1|9=83|35=A|34=1|49=ROFX|52=20190627-01:12:35.369|56=pjseoane232|98=0|108=30|141=Y|1137=9|10=243|
20190627-01:12:34.000000000 : 8=FIXT.1.1|9=108|35=h|34=2|49=ROFX|52=20190627-01:12:35.913|56=pjseoane232|325=Y|335=NONE|336=[N/A]|340=2|1300=DDA|1301=ROFX|10=089|
20190627-01:12:34.000000000 : 8=FIXT.1.1|9=133|35=3|34=2|49=pjseoane232|52=20190627-01:12:34.000|56=ROFX|45=2|58=Value is incorrect (out of range) for this tag|371=336|372=h|373=5|10=041|
20190627-01:12:34.000000000 : 8=FIXT.1.1|9=108|35=h|34=3|49=ROFX|52=20190627-01:12:35.913|56=pjseoane232|325=Y|335=NONE|336=[N/A]|340=2|1300=DDF|1301=ROFX|10=095|
20190627-01:12:34.000000000 : 8=FIXT.1.1|9=133|35=3|34=3|49=pjseoane232|52=20190627-01:12:34.000|56=ROFX|45=3|58=Value is incorrect (out of range) for this tag|371=336|372=h|373=5|10=043|
20190627-01:12:34.000000000 : 8=FIXT.1.1|9=109|35=h|34=4|49=ROFX|52=20190627-01:12:35.913|56=pjseoane232|325=Y|335=NONE|336=[N/A]|340=2|1300=DUAL|1301=ROFX|10=185|
20190627-01:12:34.000000000 : 8=FIXT.1.1|9=133|35=3|34=4|49=pjseoane232|52=20190627-01:12:34.000|56=ROFX|45=4|58=Value is incorrect (out of range) for this tag|371=336|372=h|373=5|10=045|
20190627-01:12:34.000000000 : 8=FIXT.1.1|9=109|35=h|34=5|49=ROFX|52=20190627-01:12:35.913|56=pjseoane232|325=Y|335=NONE|336=[N/A]|340=2|1300=RFXI|1301=ROFX|10=205|
20190627-01:12:34.000000000 : 8=FIXT.1.1|9=133|35=3|34=5|49=pjseoane232|52=20190627-01:12:34.000|56=ROFX|45=5|58=Value is incorrect (out of range) for this tag|371=336|372=h|373=5|10=047|
20190627-01:12:34.000000000 : 8=FIXT.1.1|9=122|35=h|34=6|49=ROFX|52=20190627-01:12:35.913|56=pjseoane232|58=EXTERNAL|325=Y|335=NONE|336=[N/A]|340=2|1300=MATBA|1301=ROFX|10=003|
20190627-01:12:34.000000000 : 8=FIXT.1.1|9=133|35=3|34=6|49=pjseoane232|52=20190627-01:12:34.000|56=ROFX|45=6|58=Value is incorrect (out of range) for this tag|371=336|372=h|373=5|10=049|
20190627-01:12:34.000000000 : 8=FIXT.1.1|9=109|35=h|34=7|49=ROFX|52=20190627-01:12:35.913|56=pjseoane232|325=Y|335=NONE|336=[N/A]|340=2|1300=MERV|1301=ROFX|10=208|
20190627-01:12:34.000000000 : 8=FIXT.1.1|9=133|35=3|34=7|49=pjseoane232|52=20190627-01:12:34.000|56=ROFX|45=7|58=Value is incorrect (out of range) for this tag|371=336|372=h|373=5|10=051|
20190627-01:12:34.000000000 : 8=FIXT.1.1|9=112|35=h|34=8|49=ROFX|52=20190627-01:12:36.441|56=pjseoane232|325=Y|335=NONE|336=1|340=0|625=1|1300=[N/A]|1301=ROFX|10=201|
20190627-01:13:04.000000000 : 8=FIXT.1.1|9=58|35=0|34=8|49=pjseoane232|52=20190627-01:13:04.000|56=ROFX|10=077|
20190627-01:13:05.000000000 : 8=FIXT.1.1|9=58|35=0|34=9|49=ROFX|52=20190627-01:13:07.013|56=pjseoane232|10=085|
20190627-01:13:34.000000000 : 8=FIXT.1.1|9=58|35=0|34=9|49=pjseoane232|52=20190627-01:13:34.000|56=ROFX|10=081|
20190627-01:13:35.000000000 : 8=FIXT.1.1|9=59|35=0|34=10|49=ROFX|52=20190627-01:13:37.013|56=pjseoane232|10=129|
20190627-01:14:04.000000000 : 8=FIXT.1.1|9=59|35=0|34=10|49=pjseoane232|52=20190627-01:14:04.000|56=ROFX|10=120|
20190627-01:14:05.000000000 : 8=FIXT.1.1|9=59|35=0|34=11|49=ROFX|52=20190627-01:14:07.013|56=pjseoane232|10=128|
20190627-01:14:34.000000000 : 8=FIXT.1.1|9=59|35=0|34=11|49=pjseoane232|52=20190627-01:14:34.000|56=ROFX|10=124|
20190627-01:14:35.000000000 : 8=FIXT.1.1|9=59|35=0|34=12|49=ROFX|52=20190627-01:14:37.013|56=pjseoane232|10=132|
20190627-01:15:04.000000000 : 8=FIXT.1.1|9=59|35=0|34=12|49=pjseoane232|52=20190627-01:15:04.000|56=ROFX|10=123|
20190627-01:15:06.000000000 : 8=FIXT.1.1|9=59|35=0|34=13|49=ROFX|52=20190627-01:15:07.013|56=pjseoane232|10=131|
20190627-01:15:34.000000000 : 8=FIXT.1.1|9=59|35=0|34=13|49=pjseoane232|52=20190627-01:15:34.000|56=ROFX|10=127|
20190627-01:15:35.000000000 : 8=FIXT.1.1|9=59|35=0|34=14|49=ROFX|52=20190627-01:15:37.013|56=pjseoane232|10=135|
20190627-01:16:04.000000000 : 8=FIXT.1.1|9=59|35=0|34=14|49=pjseoane232|52=20190627-01:16:04.000|56=ROFX|10=126|
20190627-01:16:05.000000000 : 8=FIXT.1.1|9=59|35=0|34=15|49=ROFX|52=20190627-01:16:07.013|56=pjseoane232|10=134|
20190627-01:16:34.000000000 : 8=FIXT.1.1|9=59|35=0|34=15|49=pjseoane232|52=20190627-01:16:34.000|56=ROFX|10=130|
20190627-01:16:35.000000000 : 8=FIXT.1.1|9=59|35=0|34=16|49=ROFX|52=20190627-01:16:37.013|56=pjseoane232|10=138|
20190627-01:17:04.000000000 : 8=FIXT.1.1|9=59|35=0|34=16|49=pjseoane232|52=20190627-01:17:04.000|56=ROFX|10=129|
20190627-01:17:05.000000000 : 8=FIXT.1.1|9=59|35=0|34=17|49=ROFX|52=20190627-01:17:07.013|56=pjseoane232|10=137|
20190627-01:17:34.000000000 : 8=FIXT.1.1|9=59|35=0|34=17|49=pjseoane232|52=20190627-01:17:34.000|56=ROFX|10=133|
20190627-01:17:35.000000000 : 8=FIXT.1.1|9=59|35=0|34=18|49=ROFX|52=20190627-01:17:37.013|56=pjseoane232|10=141|
20190627-01:18:04.000000000 : 8=FIXT.1.1|9=59|35=0|34=18|49=pjseoane232|52=20190627-01:18:04.000|56=ROFX|10=132|
20190627-01:18:07.000000000 : 8=FIXT.1.1|9=59|35=0|34=19|49=ROFX|52=20190627-01:18:07.013|56=pjseoane232|10=140|
20190627-01:18:34.000000000 : 8=FIXT.1.1|9=59|35=0|34=19|49=pjseoane232|52=20190627-01:18:34.000|56=ROFX|10=136|
20190627-01:18:35.000000000 : 8=FIXT.1.1|9=59|35=0|34=20|49=ROFX|52=20190627-01:18:37.013|56=pjseoane232|10=135|
20190627-01:19:04.000000000 : 8=FIXT.1.1|9=59|35=0|34=20|49=pjseoane232|52=20190627-01:19:04.000|56=ROFX|10=126|
20190627-01:19:05.000000000 : 8=FIXT.1.1|9=59|35=0|34=21|49=ROFX|52=20190627-01:19:07.013|56=pjseoane232|10=134|
20190627-01:19:34.000000000 : 8=FIXT.1.1|9=59|35=0|34=21|49=pjseoane232|52=20190627-01:19:34.000|56=ROFX|10=130|
20190627-01:19:35.000000000 : 8=FIXT.1.1|9=59|35=0|34=22|49=ROFX|52=20190627-01:19:37.013|56=pjseoane232|10=138|
20190627-01:20:04.000000000 : 8=FIXT.1.1|9=59|35=0|34=22|49=pjseoane232|52=20190627-01:20:04.000|56=ROFX|10=120|
20190627-01:20:05.000000000 : 8=FIXT.1.1|9=59|35=0|34=23|49=ROFX|52=20190627-01:20:07.013|56=pjseoane232|10=128|
20190627-01:20:34.000000000 : 8=FIXT.1.1|9=59|35=0|34=23|49=pjseoane232|52=20190627-01:20:34.000|56=ROFX|10=124|
20190627-01:20:37.000000000 : 8=FIXT.1.1|9=59|35=0|34=24|49=ROFX|52=20190627-01:20:37.013|56=pjseoane232|10=132|
20190627-01:21:04.000000000 : 8=FIXT.1.1|9=59|35=0|34=24|49=pjseoane232|52=20190627-01:21:04.000|56=ROFX|10=123|
20190627-01:21:05.000000000 : 8=FIXT.1.1|9=59|35=0|34=25|49=ROFX|52=20190627-01:21:07.048|56=pjseoane232|10=139|
20190627-01:21:34.000000000 : 8=FIXT.1.1|9=59|35=0|34=25|49=pjseoane232|52=20190627-01:21:34.000|56=ROFX|10=127|
20190627-01:21:36.000000000 : 8=FIXT.1.1|9=59|35=0|34=26|49=ROFX|52=20190627-01:21:38.013|56=pjseoane232|10=136|
20190627-01:22:04.000000000 : 8=FIXT.1.1|9=59|35=0|34=26|49=pjseoane232|52=20190627-01:22:04.000|56=ROFX|10=126|
20190627-01:22:06.000000000 : 8=FIXT.1.1|9=59|35=0|34=27|49=ROFX|52=20190627-01:22:08.013|56=pjseoane232|10=135|
20190627-01:22:34.000000000 : 8=FIXT.1.1|9=59|35=0|34=27|49=pjseoane232|52=20190627-01:22:34.000|56=ROFX|10=130|
20190627-01:22:36.000000000 : 8=FIXT.1.1|9=59|35=0|34=28|49=ROFX|52=20190627-01:22:38.013|56=pjseoane232|10=139|
20190627-01:23:04.000000000 : 8=FIXT.1.1|9=59|35=0|34=28|49=pjseoane232|52=20190627-01:23:04.000|56=ROFX|10=129|
20190627-01:23:08.000000000 : 8=FIXT.1.1|9=59|35=0|34=29|49=ROFX|52=20190627-01:23:08.013|56=pjseoane232|10=138|
20190627-01:23:34.000000000 : 8=FIXT.1.1|9=59|35=0|34=29|49=pjseoane232|52=20190627-01:23:34.000|56=ROFX|10=133|
20190627-01:23:36.000000000 : 8=FIXT.1.1|9=59|35=0|34=30|49=ROFX|52=20190627-01:23:38.013|56=pjseoane232|10=133|
20190627-01:24:05.000000000 : 8=FIXT.1.1|9=112|35=A|34=1|49=pjseoane232|52=20190627-01:24:05.000|56=ROFX|553=pjseoane232|554=AiZkiC5#|98=0|108=30|141=Y|1137=9|10=032|
20190627-01:24:06.000000000 : 8=FIXT.1.1|9=83|35=A|34=1|49=ROFX|52=20190627-01:24:08.723|56=pjseoane232|98=0|108=30|141=Y|1137=9|10=240|
20190627-01:24:07.000000000 : 8=FIXT.1.1|9=108|35=h|34=2|49=ROFX|52=20190627-01:24:09.262|56=pjseoane232|325=Y|335=NONE|336=[N/A]|340=2|1300=DDA|1301=ROFX|10=090|
20190627-01:24:07.000000000 : 8=FIXT.1.1|9=133|35=3|34=2|49=pjseoane232|52=20190627-01:24:07.000|56=ROFX|45=2|58=Value is incorrect (out of range) for this tag|371=336|372=h|373=5|10=044|
20190627-01:24:07.000000000 : 8=FIXT.1.1|9=108|35=h|34=3|49=ROFX|52=20190627-01:24:09.263|56=pjseoane232|325=Y|335=NONE|336=[N/A]|340=2|1300=DDF|1301=ROFX|10=097|
20190627-01:24:07.000000000 : 8=FIXT.1.1|9=133|35=3|34=3|49=pjseoane232|52=20190627-01:24:07.000|56=ROFX|45=3|58=Value is incorrect (out of range) for this tag|371=336|372=h|373=5|10=046|
20190627-01:24:07.000000000 : 8=FIXT.1.1|9=109|35=h|34=4|49=ROFX|52=20190627-01:24:09.263|56=pjseoane232|325=Y|335=NONE|336=[N/A]|340=2|1300=DUAL|1301=ROFX|10=187|
20190627-01:24:07.000000000 : 8=FIXT.1.1|9=133|35=3|34=4|49=pjseoane232|52=20190627-01:24:07.000|56=ROFX|45=4|58=Value is incorrect (out of range) for this tag|371=336|372=h|373=5|10=048|
20190627-01:24:07.000000000 : 8=FIXT.1.1|9=109|35=h|34=5|49=ROFX|52=20190627-01:24:09.263|56=pjseoane232|325=Y|335=NONE|336=[N/A]|340=2|1300=MERV|1301=ROFX|10=208|
20190627-01:24:07.000000000 : 8=FIXT.1.1|9=133|35=3|34=5|49=pjseoane232|52=20190627-01:24:07.000|56=ROFX|45=5|58=Value is incorrect (out of range) for this tag|371=336|372=h|373=5|10=050|
20190627-01:24:07.000000000 : 8=FIXT.1.1|9=122|35=h|34=6|49=ROFX|52=20190627-01:24:09.263|56=pjseoane232|58=EXTERNAL|325=Y|335=NONE|336=[N/A]|340=2|1300=MATBA|1301=ROFX|10=005|
20190627-01:24:07.000000000 : 8=FIXT.1.1|9=133|35=3|34=6|49=pjseoane232|52=20190627-01:24:07.000|56=ROFX|45=6|58=Value is incorrect (out of range) for this tag|371=336|372=h|373=5|10=052|
20190627-01:24:07.000000000 : 8=FIXT.1.1|9=109|35=h|34=7|49=ROFX|52=20190627-01:24:09.263|56=pjseoane232|325=Y|335=NONE|336=[N/A]|340=2|1300=RFXI|1301=ROFX|10=209|
20190627-01:24:07.000000000 : 8=FIXT.1.1|9=133|35=3|34=7|49=pjseoane232|52=20190627-01:24:07.000|56=ROFX|45=7|58=Value is incorrect (out of range) for this tag|371=336|372=h|373=5|10=054|
20190627-01:24:08.000000000 : 8=FIXT.1.1|9=112|35=h|34=8|49=ROFX|52=20190627-01:24:09.781|56=pjseoane232|325=Y|335=NONE|336=1|340=0|625=1|1300=[N/A]|1301=ROFX|10=211|
20190627-01:24:37.000000000 : 8=FIXT.1.1|9=58|35=0|34=8|49=pjseoane232|52=20190627-01:24:37.000|56=ROFX|10=085|
20190627-01:24:38.000000000 : 8=FIXT.1.1|9=58|35=0|34=9|49=ROFX|52=20190627-01:24:39.936|56=pjseoane232|10=106|
20190627-01:25:07.000000000 : 8=FIXT.1.1|9=58|35=0|34=9|49=pjseoane232|52=20190627-01:25:07.000|56=ROFX|10=084|
20190627-01:25:08.000000000 : 8=FIXT.1.1|9=59|35=0|34=10|49=ROFX|52=20190627-01:25:10.013|56=pjseoane232|10=123|
20190627-01:25:16.000000000 : 8=FIXT.1.1|9=112|35=A|34=1|49=pjseoane232|52=20190627-01:25:16.000|56=ROFX|553=pjseoane232|554=AiZkiC5#|98=0|108=30|141=Y|1137=9|10=035|
20190627-01:25:17.000000000 : 8=FIXT.1.1|9=83|35=A|34=1|49=ROFX|52=20190627-01:25:18.963|56=pjseoane232|98=0|108=30|141=Y|1137=9|10=248|
20190627-01:25:17.000000000 : 8=FIXT.1.1|9=108|35=h|34=2|49=ROFX|52=20190627-01:25:19.505|56=pjseoane232|325=Y|335=NONE|336=[N/A]|340=2|1300=DDA|1301=ROFX|10=092|
20190627-01:25:17.000000000 : 8=FIXT.1.1|9=133|35=3|34=2|49=pjseoane232|52=20190627-01:25:17.000|56=ROFX|45=2|58=Value is incorrect (out of range) for this tag|371=336|372=h|373=5|10=046|
20190627-01:25:17.000000000 : 8=FIXT.1.1|9=108|35=h|34=3|49=ROFX|52=20190627-01:25:19.505|56=pjseoane232|325=Y|335=NONE|336=[N/A]|340=2|1300=DDF|1301=ROFX|10=098|
20190627-01:25:17.000000000 : 8=FIXT.1.1|9=133|35=3|34=3|49=pjseoane232|52=20190627-01:25:17.000|56=ROFX|45=3|58=Value is incorrect (out of range) for this tag|371=336|372=h|373=5|10=048|
20190627-01:25:17.000000000 : 8=FIXT.1.1|9=109|35=h|34=4|49=ROFX|52=20190627-01:25:19.505|56=pjseoane232|325=Y|335=NONE|336=[N/A]|340=2|1300=MERV|1301=ROFX|10=208|
20190627-01:25:17.000000000 : 8=FIXT.1.1|9=133|35=3|34=4|49=pjseoane232|52=20190627-01:25:17.000|56=ROFX|45=4|58=Value is incorrect (out of range) for this tag|371=336|372=h|373=5|10=050|
20190627-01:25:17.000000000 : 8=FIXT.1.1|9=109|35=h|34=5|49=ROFX|52=20190627-01:25:19.505|56=pjseoane232|325=Y|335=NONE|336=[N/A]|340=2|1300=RFXI|1301=ROFX|10=208|
20190627-01:25:17.000000000 : 8=FIXT.1.1|9=133|35=3|34=5|49=pjseoane232|52=20190627-01:25:17.000|56=ROFX|45=5|58=Value is incorrect (out of range) for this tag|371=336|372=h|373=5|10=052|
20190627-01:25:17.000000000 : 8=FIXT.1.1|9=122|35=h|34=6|49=ROFX|52=20190627-01:25:19.505|56=pjseoane232|58=EXTERNAL|325=Y|335=NONE|336=[N/A]|340=2|1300=MATBA|1301=ROFX|10=006|
20190627-01:25:17.000000000 : 8=FIXT.1.1|9=133|35=3|34=6|49=pjseoane232|52=20190627-01:25:17.000|56=ROFX|45=6|58=Value is incorrect (out of range) for this tag|371=336|372=h|373=5|10=054|
20190627-01:25:17.000000000 : 8=FIXT.1.1|9=109|35=h|34=7|49=ROFX|52=20190627-01:25:19.506|56=pjseoane232|325=Y|335=NONE|336=[N/A]|340=2|1300=DUAL|1301=ROFX|10=192|
20190627-01:25:17.000000000 : 8=FIXT.1.1|9=133|35=3|34=7|49=pjseoane232|52=20190627-01:25:17.000|56=ROFX|45=7|58=Value is incorrect (out of range) for this tag|371=336|372=h|373=5|10=056|
20190627-01:25:18.000000000 : 8=FIXT.1.1|9=112|35=h|34=8|49=ROFX|52=20190627-01:25:20.028|56=pjseoane232|325=Y|335=NONE|336=1|340=0|625=1|1300=[N/A]|1301=ROFX|10=199|
20190627-01:28:19.000000000 : 8=FIXT.1.1|9=83|35=A|34=1|49=pjseoane232|52=20190627-01:28:19.000|56=ROFX|98=0|108=30|141=Y|1137=9|10=234|
20190627-01:28:20.000000000 : 8=FIXT.1.1|9=72|35=5|34=1|49=ROFX|52=20190627-01:28:21.894|56=pjseoane232|1128=9|1409=1|10=225|
20190627-01:29:20.000000000 : 8=FIXT.1.1|9=112|35=A|34=1|49=pjseoane232|52=20190627-01:29:20.000|56=ROFX|553=pjseoane232|554=AiZkiC5#|98=0|108=30|141=Y|1137=9|10=034|
20190627-01:29:21.000000000 : 8=FIXT.1.1|9=83|35=A|34=1|49=ROFX|52=20190627-01:29:23.217|56=pjseoane232|98=0|108=30|141=Y|1137=9|10=240|
20190627-01:29:22.000000000 : 8=FIXT.1.1|9=108|35=h|34=2|49=ROFX|52=20190627-01:29:23.758|56=pjseoane232|325=Y|335=NONE|336=[N/A]|340=2|1300=DDA|1301=ROFX|10=101|
20190627-01:29:22.000000000 : 8=FIXT.1.1|9=162|35=3|34=2|49=pjseoane232|52=20190627-01:29:22.000|56=ROFX|553=pjseoane232|554=AiZkiC5#|45=2|58=Value is incorrect (out of range) for this tag|371=336|372=h|373=5|10=070|
20190627-01:29:22.000000000 : 8=FIXT.1.1|9=108|35=h|34=3|49=ROFX|52=20190627-01:29:23.758|56=pjseoane232|325=Y|335=NONE|336=[N/A]|340=2|1300=DDF|1301=ROFX|10=107|
20190627-01:29:22.000000000 : 8=FIXT.1.1|9=162|35=3|34=3|49=pjseoane232|52=20190627-01:29:22.000|56=ROFX|553=pjseoane232|554=AiZkiC5#|45=3|58=Value is incorrect (out of range) for this tag|371=336|372=h|373=5|10=072|
20190627-01:29:22.000000000 : 8=FIXT.1.1|9=109|35=h|34=4|49=ROFX|52=20190627-01:29:23.758|56=pjseoane232|325=Y|335=NONE|336=[N/A]|340=2|1300=MERV|1301=ROFX|10=217|
20190627-01:29:22.000000000 : 8=FIXT.1.1|9=162|35=3|34=4|49=pjseoane232|52=20190627-01:29:22.000|56=ROFX|553=pjseoane232|554=AiZkiC5#|45=4|58=Value is incorrect (out of range) for this tag|371=336|372=h|373=5|10=074|
20190627-01:29:22.000000000 : 8=FIXT.1.1|9=122|35=h|34=5|49=ROFX|52=20190627-01:29:23.759|56=pjseoane232|58=EXTERNAL|325=Y|335=NONE|336=[N/A]|340=2|1300=MATBA|1301=ROFX|10=015|
20190627-01:29:22.000000000 : 8=FIXT.1.1|9=162|35=3|34=5|49=pjseoane232|52=20190627-01:29:22.000|56=ROFX|553=pjseoane232|554=AiZkiC5#|45=5|58=Value is incorrect (out of range) for this tag|371=336|372=h|373=5|10=076|
20190627-01:29:22.000000000 : 8=FIXT.1.1|9=109|35=h|34=6|49=ROFX|52=20190627-01:29:23.759|56=pjseoane232|325=Y|335=NONE|336=[N/A]|340=2|1300=RFXI|1301=ROFX|10=219|
20190627-01:29:22.000000000 : 8=FIXT.1.1|9=162|35=3|34=6|49=pjseoane232|52=20190627-01:29:22.000|56=ROFX|553=pjseoane232|554=AiZkiC5#|45=6|58=Value is incorrect (out of range) for this tag|371=336|372=h|373=5|10=078|
20190627-01:29:22.000000000 : 8=FIXT.1.1|9=109|35=h|34=7|49=ROFX|52=20190627-01:29:23.759|56=pjseoane232|325=Y|335=NONE|336=[N/A]|340=2|1300=DUAL|1301=ROFX|10=201|
20190627-01:29:22.000000000 : 8=FIXT.1.1|9=162|35=3|34=7|49=pjseoane232|52=20190627-01:29:22.000|56=ROFX|553=pjseoane232|554=AiZkiC5#|45=7|58=Value is incorrect (out of range) for this tag|371=336|372=h|373=5|10=080|
20190627-01:29:22.000000000 : 8=FIXT.1.1|9=124|35=3|34=8|49=ROFX|52=20190627-01:29:23.973|56=pjseoane232|45=2|58=Tag not defined for this message type|371=553|372=3|373=2|10=075|
20190627-01:29:22.000000000 : 8=FIXT.1.1|9=124|35=3|34=9|49=ROFX|52=20190627-01:29:23.977|56=pjseoane232|45=3|58=Tag not defined for this message type|371=553|372=3|373=2|10=081|
20190627-01:29:22.000000000 : 8=FIXT.1.1|9=125|35=3|34=10|49=ROFX|52=20190627-01:29:23.986|56=pjseoane232|45=4|58=Tag not defined for this message type|371=553|372=3|373=2|10=123|
20190627-01:29:22.000000000 : 8=FIXT.1.1|9=125|35=3|34=11|49=ROFX|52=20190627-01:29:23.989|56=pjseoane232|45=5|58=Tag not defined for this message type|371=553|372=3|373=2|10=128|
20190627-01:29:22.000000000 : 8=FIXT.1.1|9=125|35=3|34=12|49=ROFX|52=20190627-01:29:23.993|56=pjseoane232|45=6|58=Tag not defined for this message type|371=553|372=3|373=2|10=125|
20190627-01:29:22.000000000 : 8=FIXT.1.1|9=125|35=3|34=13|49=ROFX|52=20190627-01:29:23.995|56=pjseoane232|45=7|58=Tag not defined for this message type|371=553|372=3|373=2|10=129|
20190627-01:29:22.000000000 : 8=FIXT.1.1|9=113|35=h|34=14|49=ROFX|52=20190627-01:29:24.280|56=pjseoane232|325=Y|335=NONE|336=1|340=0|625=1|1300=[N/A]|1301=ROFX|10=253|
20190627-01:29:52.000000000 : 8=FIXT.1.1|9=87|35=0|34=8|49=pjseoane232|52=20190627-01:29:52.000|56=ROFX|553=pjseoane232|554=AiZkiC5#|10=111|
20190627-01:29:52.000000000 : 8=FIXT.1.1|9=125|35=3|34=15|49=ROFX|52=20190627-01:29:54.562|56=pjseoane232|45=8|58=Tag not defined for this message type|371=553|372=0|373=2|10=123|
20190627-01:30:07.000000000 : 8=FIXT.1.1|9=68|35=1|34=16|49=ROFX|52=20190627-01:30:09.013|56=pjseoane232|112=TEST|10=152|
20190627-01:30:07.000000000 : 8=FIXT.1.1|9=96|35=0|34=9|49=pjseoane232|52=20190627-01:30:07.000|56=ROFX|553=pjseoane232|554=AiZkiC5#|112=TEST|10=122|
20190627-01:30:07.000000000 : 8=FIXT.1.1|9=125|35=3|34=17|49=ROFX|52=20190627-01:30:09.211|56=pjseoane232|45=9|58=Tag not defined for this message type|371=553|372=0|373=2|10=109|
20190627-01:31:20.000000000 : 8=FIXT.1.1|9=112|35=A|34=1|49=pjseoane232|52=20190627-01:31:20.000|56=ROFX|553=pjseoane232|554=AiZkiC5#|98=0|108=30|141=Y|1137=9|10=027|
20190627-01:31:21.000000000 : 8=FIXT.1.1|9=83|35=A|34=1|49=ROFX|52=20190627-01:31:23.297|56=pjseoane232|98=0|108=30|141=Y|1137=9|10=241|
20190627-01:31:22.000000000 : 8=FIXT.1.1|9=108|35=h|34=2|49=ROFX|52=20190627-01:31:23.844|56=pjseoane232|325=Y|335=NONE|336=[N/A]|340=2|1300=DDA|1301=ROFX|10=090|
20190627-01:31:22.000000000 : 8=FIXT.1.1|9=162|35=3|34=2|49=pjseoane232|52=20190627-01:31:22.000|56=ROFX|553=pjseoane232|554=AiZkiC5#|45=2|58=Value is incorrect (out of range) for this tag|371=336|372=h|373=5|10=063|
20190627-01:31:22.000000000 : 8=FIXT.1.1|9=109|35=h|34=3|49=ROFX|52=20190627-01:31:23.845|56=pjseoane232|325=Y|335=NONE|336=[N/A]|340=2|1300=MERV|1301=ROFX|10=206|
20190627-01:31:22.000000000 : 8=FIXT.1.1|9=162|35=3|34=3|49=pjseoane232|52=20190627-01:31:22.000|56=ROFX|553=pjseoane232|554=AiZkiC5#|45=3|58=Value is incorrect (out of range) for this tag|371=336|372=h|373=5|10=065|
20190627-01:31:22.000000000 : 8=FIXT.1.1|9=122|35=h|34=4|49=ROFX|52=20190627-01:31:23.845|56=pjseoane232|58=EXTERNAL|325=Y|335=NONE|336=[N/A]|340=2|1300=MATBA|1301=ROFX|10=003|
20190627-01:31:22.000000000 : 8=FIXT.1.1|9=162|35=3|34=4|49=pjseoane232|52=20190627-01:31:22.000|56=ROFX|553=pjseoane232|554=AiZkiC5#|45=4|58=Value is incorrect (out of range) for this tag|371=336|372=h|373=5|10=067|
20190627-01:31:22.000000000 : 8=FIXT.1.1|9=109|35=h|34=5|49=ROFX|52=20190627-01:31:23.845|56=pjseoane232|325=Y|335=NONE|336=[N/A]|340=2|1300=RFXI|1301=ROFX|10=207|
20190627-01:31:22.000000000 : 8=FIXT.1.1|9=162|35=3|34=5|49=pjseoane232|52=20190627-01:31:22.000|56=ROFX|553=pjseoane232|554=AiZkiC5#|45=5|58=Value is incorrect (out of range) for this tag|371=336|372=h|373=5|10=069|
20190627-01:31:22.000000000 : 8=FIXT.1.1|9=108|35=h|34=6|49=ROFX|52=20190627-01:31:23.845|56=pjseoane232|325=Y|335=NONE|336=[N/A]|340=2|1300=DDF|1301=ROFX|10=100|
20190627-01:31:22.000000000 : 8=FIXT.1.1|9=162|35=3|34=6|49=pjseoane232|52=20190627-01:31:22.000|56=ROFX|553=pjseoane232|554=AiZkiC5#|45=6|58=Value is incorrect (out of range) for this tag|371=336|372=h|373=5|10=071|
20190627-01:31:22.000000000 : 8=FIXT.1.1|9=109|35=h|34=7|49=ROFX|52=20190627-01:31:23.845|56=pjseoane232|325=Y|335=NONE|336=[N/A]|340=2|1300=DUAL|1301=ROFX|10=190|
20190627-01:31:22.000000000 : 8=FIXT.1.1|9=162|35=3|34=7|49=pjseoane232|52=20190627-01:31:22.000|56=ROFX|553=pjseoane232|554=AiZkiC5#|45=7|58=Value is incorrect (out of range) for this tag|371=336|372=h|373=5|10=073|
20190627-01:31:22.000000000 : 8=FIXT.1.1|9=124|35=3|34=8|49=ROFX|52=20190627-01:31:24.056|56=pjseoane232|45=2|58=Tag not defined for this message type|371=553|372=3|373=2|10=061|
20190627-01:31:22.000000000 : 8=FIXT.1.1|9=112|35=h|34=9|49=ROFX|52=20190627-01:31:24.364|56=pjseoane232|325=Y|335=NONE|336=1|340=0|625=1|1300=[N/A]|1301=ROFX|10=204|
20190627-01:31:22.000000000 : 8=FIXT.1.1|9=125|35=3|34=10|49=ROFX|52=20190627-01:31:24.470|56=pjseoane232|45=3|58=Tag not defined for this message type|371=553|372=3|373=2|10=104|
20190627-01:31:22.000000000 : 8=FIXT.1.1|9=125|35=3|34=11|49=ROFX|52=20190627-01:31:24.472|56=pjseoane232|45=4|58=Tag not defined for this message type|371=553|372=3|373=2|10=108|
20190627-01:31:22.000000000 : 8=FIXT.1.1|9=125|35=3|34=12|49=ROFX|52=20190627-01:31:24.477|56=pjseoane232|45=5|58=Tag not defined for this message type|371=553|372=3|373=2|10=115|
20190627-01:31:22.000000000 : 8=FIXT.1.1|9=125|35=3|34=13|49=ROFX|52=20190627-01:31:24.479|56=pjseoane232|45=6|58=Tag not defined for this message type|371=553|372=3|373=2|10=119|
20190627-01:31:22.000000000 : 8=FIXT.1.1|9=125|35=3|34=14|49=ROFX|52=20190627-01:31:24.483|56=pjseoane232|45=7|58=Tag not defined for this message type|371=553|372=3|373=2|10=116|
20190627-01:31:52.000000000 : 8=FIXT.1.1|9=87|35=0|34=8|49=pjseoane232|52=20190627-01:31:52.000|56=ROFX|553=pjseoane232|554=AiZkiC5#|10=104|
20190627-01:31:52.000000000 : 8=FIXT.1.1|9=125|35=3|34=15|49=ROFX|52=20190627-01:31:54.621|56=pjseoane232|45=8|58=Tag not defined for this message type|371=553|372=0|373=2|10=112|
20190627-01:32:07.000000000 : 8=FIXT.1.1|9=68|35=1|34=16|49=ROFX|52=20190627-01:32:09.013|56=pjseoane232|112=TEST|10=154|
20190627-01:32:07.000000000 : 8=FIXT.1.1|9=96|35=0|34=9|49=pjseoane232|52=20190627-01:32:07.000|56=ROFX|553=pjseoane232|554=AiZkiC5#|112=TEST|10=124|
20190627-01:32:07.000000000 : 8=FIXT.1.1|9=125|35=3|34=17|49=ROFX|52=20190627-01:32:09.210|56=pjseoane232|45=9|58=Tag not defined for this message type|371=553|372=0|373=2|10=110|
20190627-01:33:20.000000000 : 8=FIXT.1.1|9=112|35=A|34=1|49=pjseoane232|52=20190627-01:33:20.000|56=ROFX|553=pjseoane232|554=AiZkiC5#|98=0|108=30|141=Y|1137=9|10=029|
20190627-01:33:21.000000000 : 8=FIXT.1.1|9=83|35=A|34=1|49=ROFX|52=20190627-01:33:23.359|56=pjseoane232|98=0|108=30|141=Y|1137=9|10=242|
20190627-01:33:22.000000000 : 8=FIXT.1.1|9=108|35=h|34=2|49=ROFX|52=20190627-01:33:23.901|56=pjseoane232|325=Y|335=NONE|336=[N/A]|340=2|1300=DDA|1301=ROFX|10=086|
20190627-01:33:22.000000000 : 8=FIXT.1.1|9=162|35=3|34=2|49=pjseoane232|52=20190627-01:33:22.000|56=ROFX|553=pjseoane232|554=AiZkiC5#|45=2|58=Value is incorrect (out of range) for this tag|371=336|372=h|373=5|10=065|
20190627-01:33:22.000000000 : 8=FIXT.1.1|9=108|35=h|34=3|49=ROFX|52=20190627-01:33:23.901|56=pjseoane232|325=Y|335=NONE|336=[N/A]|340=2|1300=DDF|1301=ROFX|10=092|
20190627-01:33:22.000000000 : 8=FIXT.1.1|9=162|35=3|34=3|49=pjseoane232|52=20190627-01:33:22.000|56=ROFX|553=pjseoane232|554=AiZkiC5#|45=3|58=Value is incorrect (out of range) for this tag|371=336|372=h|373=5|10=067|
20190627-01:33:22.000000000 : 8=FIXT.1.1|9=109|35=h|34=4|49=ROFX|52=20190627-01:33:23.901|56=pjseoane232|325=Y|335=NONE|336=[N/A]|340=2|1300=DUAL|1301=ROFX|10=182|
20190627-01:33:22.000000000 : 8=FIXT.1.1|9=162|35=3|34=4|49=pjseoane232|52=20190627-01:33:22.000|56=ROFX|553=pjseoane232|554=AiZkiC5#|45=4|58=Value is incorrect (out of range) for this tag|371=336|372=h|373=5|10=069|
20190627-01:33:22.000000000 : 8=FIXT.1.1|9=109|35=h|34=5|49=ROFX|52=20190627-01:33:23.901|56=pjseoane232|325=Y|335=NONE|336=[N/A]|340=2|1300=MERV|1301=ROFX|10=203|
20190627-01:33:22.000000000 : 8=FIXT.1.1|9=162|35=3|34=5|49=pjseoane232|52=20190627-01:33:22.000|56=ROFX|553=pjseoane232|554=AiZkiC5#|45=5|58=Value is incorrect (out of range) for this tag|371=336|372=h|373=5|10=071|
20190627-01:33:22.000000000 : 8=FIXT.1.1|9=122|35=h|34=6|49=ROFX|52=20190627-01:33:23.902|56=pjseoane232|58=EXTERNAL|325=Y|335=NONE|336=[N/A]|340=2|1300=MATBA|1301=ROFX|10=001|
20190627-01:33:22.000000000 : 8=FIXT.1.1|9=162|35=3|34=6|49=pjseoane232|52=20190627-01:33:22.000|56=ROFX|553=pjseoane232|554=AiZkiC5#|45=6|58=Value is incorrect (out of range) for this tag|371=336|372=h|373=5|10=073|
20190627-01:33:22.000000000 : 8=FIXT.1.1|9=109|35=h|34=7|49=ROFX|52=20190627-01:33:23.902|56=pjseoane232|325=Y|335=NONE|336=[N/A]|340=2|1300=RFXI|1301=ROFX|10=205|
20190627-01:33:22.000000000 : 8=FIXT.1.1|9=162|35=3|34=7|49=pjseoane232|52=20190627-01:33:22.000|56=ROFX|553=pjseoane232|554=AiZkiC5#|45=7|58=Value is incorrect (out of range) for this tag|371=336|372=h|373=5|10=075|
20190627-01:33:22.000000000 : 8=FIXT.1.1|9=124|35=3|34=8|49=ROFX|52=20190627-01:33:24.093|56=pjseoane232|45=2|58=Tag not defined for this message type|371=553|372=3|373=2|10=064|
20190627-01:33:22.000000000 : 8=FIXT.1.1|9=124|35=3|34=9|49=ROFX|52=20190627-01:33:24.096|56=pjseoane232|45=3|58=Tag not defined for this message type|371=553|372=3|373=2|10=069|
20190627-01:33:22.000000000 : 8=FIXT.1.1|9=125|35=3|34=10|49=ROFX|52=20190627-01:33:24.100|56=pjseoane232|45=4|58=Tag not defined for this message type|371=553|372=3|373=2|10=097|
20190627-01:33:22.000000000 : 8=FIXT.1.1|9=125|35=3|34=11|49=ROFX|52=20190627-01:33:24.101|56=pjseoane232|45=5|58=Tag not defined for this message type|371=553|372=3|373=2|10=100|
20190627-01:33:22.000000000 : 8=FIXT.1.1|9=125|35=3|34=12|49=ROFX|52=20190627-01:33:24.105|56=pjseoane232|45=6|58=Tag not defined for this message type|371=553|372=3|373=2|10=106|
20190627-01:33:22.000000000 : 8=FIXT.1.1|9=125|35=3|34=13|49=ROFX|52=20190627-01:33:24.109|56=pjseoane232|45=7|58=Tag not defined for this message type|371=553|372=3|373=2|10=112|
20190627-01:33:22.000000000 : 8=FIXT.1.1|9=113|35=h|34=14|49=ROFX|52=20190627-01:33:24.437|56=pjseoane232|325=Y|335=NONE|336=1|340=0|625=1|1300=[N/A]|1301=ROFX|10=252|
20190627-01:33:52.000000000 : 8=FIXT.1.1|9=87|35=0|34=8|49=pjseoane232|52=20190627-01:33:52.000|56=ROFX|553=pjseoane232|554=AiZkiC5#|10=106|
20190627-01:33:52.000000000 : 8=FIXT.1.1|9=125|35=3|34=15|49=ROFX|52=20190627-01:33:54.682|56=pjseoane232|45=8|58=Tag not defined for this message type|371=553|372=0|373=2|10=121|
20190627-01:34:07.000000000 : 8=FIXT.1.1|9=68|35=1|34=16|49=ROFX|52=20190627-01:34:09.013|56=pjseoane232|112=TEST|10=156|
20190627-01:34:07.000000000 : 8=FIXT.1.1|9=96|35=0|34=9|49=pjseoane232|52=20190627-01:34:07.000|56=ROFX|553=pjseoane232|554=AiZkiC5#|112=TEST|10=126|
20190627-01:34:07.000000000 : 8=FIXT.1.1|9=125|35=3|34=17|49=ROFX|52=20190627-01:34:09.208|56=pjseoane232|45=9|58=Tag not defined for this message type|371=553|372=0|373=2|10=119|
20190627-01:35:32.000000000 : 8=FIXT.1.1|9=112|35=A|34=1|49=pjseoane232|52=20190627-01:35:32.000|56=ROFX|553=pjseoane232|554=AiZkiC5#|98=0|108=30|141=Y|1137=9|10=034|
20190627-01:35:34.000000000 : 8=FIXT.1.1|9=83|35=A|34=1|49=ROFX|52=20190627-01:35:36.184|56=pjseoane232|98=0|108=30|141=Y|1137=9|10=244|
20190627-01:35:34.000000000 : 8=FIXT.1.1|9=108|35=h|34=2|49=ROFX|52=20190627-01:35:36.724|56=pjseoane232|325=Y|335=NONE|336=[N/A]|340=2|1300=DDA|1301=ROFX|10=095|
20190627-01:35:34.000000000 : 8=FIXT.1.1|9=162|35=3|34=2|49=pjseoane232|52=20190627-01:35:34.000|56=ROFX|553=pjseoane232|554=AiZkiC5#|45=2|58=Value is incorrect (out of range) for this tag|371=336|372=h|373=5|10=070|
20190627-01:35:34.000000000 : 8=FIXT.1.1|9=109|35=h|34=3|49=ROFX|52=20190627-01:35:36.724|56=pjseoane232|325=Y|335=NONE|336=[N/A]|340=2|1300=DUAL|1301=ROFX|10=190|
20190627-01:35:34.000000000 : 8=FIXT.1.1|9=162|35=3|34=3|49=pjseoane232|52=20190627-01:35:34.000|56=ROFX|553=pjseoane232|554=AiZkiC5#|45=3|58=Value is incorrect (out of range) for this tag|371=336|372=h|373=5|10=072|
20190627-01:35:34.000000000 : 8=FIXT.1.1|9=108|35=h|34=4|49=ROFX|52=20190627-01:35:36.724|56=pjseoane232|325=Y|335=NONE|336=[N/A]|340=2|1300=DDF|1301=ROFX|10=102|
20190627-01:35:34.000000000 : 8=FIXT.1.1|9=162|35=3|34=4|49=pjseoane232|52=20190627-01:35:34.000|56=ROFX|553=pjseoane232|554=AiZkiC5#|45=4|58=Value is incorrect (out of range) for this tag|371=336|372=h|373=5|10=074|
20190627-01:35:34.000000000 : 8=FIXT.1.1|9=109|35=h|34=5|49=ROFX|52=20190627-01:35:36.724|56=pjseoane232|325=Y|335=NONE|336=[N/A]|340=2|1300=MERV|1301=ROFX|10=212|
20190627-01:35:34.000000000 : 8=FIXT.1.1|9=162|35=3|34=5|49=pjseoane232|52=20190627-01:35:34.000|56=ROFX|553=pjseoane232|554=AiZkiC5#|45=5|58=Value is incorrect (out of range) for this tag|371=336|372=h|373=5|10=076|
20190627-01:35:34.000000000 : 8=FIXT.1.1|9=122|35=h|34=6|49=ROFX|52=20190627-01:35:36.724|56=pjseoane232|58=EXTERNAL|325=Y|335=NONE|336=[N/A]|340=2|1300=MATBA|1301=ROFX|10=009|
20190627-01:35:34.000000000 : 8=FIXT.1.1|9=162|35=3|34=6|49=pjseoane232|52=20190627-01:35:34.000|56=ROFX|553=pjseoane232|554=AiZkiC5#|45=6|58=Value is incorrect (out of range) for this tag|371=336|372=h|373=5|10=078|
20190627-01:35:34.000000000 : 8=FIXT.1.1|9=109|35=h|34=7|49=ROFX|52=20190627-01:35:36.724|56=pjseoane232|325=Y|335=NONE|336=[N/A]|340=2|1300=RFXI|1301=ROFX|10=213|
20190627-01:35:34.000000000 : 8=FIXT.1.1|9=162|35=3|34=7|49=pjseoane232|52=20190627-01:35:34.000|56=ROFX|553=pjseoane232|554=AiZkiC5#|45=7|58=Value is incorrect (out of range) for this tag|371=336|372=h|373=5|10=080|
20190627-01:35:35.000000000 : 8=FIXT.1.1|9=124|35=3|34=8|49=ROFX|52=20190627-01:35:36.917|56=pjseoane232|45=2|58=Tag not defined for this message type|371=553|372=3|373=2|10=074|
20190627-01:35:35.000000000 : 8=FIXT.1.1|9=124|35=3|34=9|49=ROFX|52=20190627-01:35:36.920|56=pjseoane232|45=3|58=Tag not defined for this message type|371=553|372=3|373=2|10=070|
20190627-01:35:35.000000000 : 8=FIXT.1.1|9=125|35=3|34=10|49=ROFX|52=20190627-01:35:36.924|56=pjseoane232|45=4|58=Tag not defined for this message type|371=553|372=3|373=2|10=116|
20190627-01:35:35.000000000 : 8=FIXT.1.1|9=125|35=3|34=11|49=ROFX|52=20190627-01:35:36.926|56=pjseoane232|45=5|58=Tag not defined for this message type|371=553|372=3|373=2|10=120|
20190627-01:35:35.000000000 : 8=FIXT.1.1|9=125|35=3|34=12|49=ROFX|52=20190627-01:35:36.930|56=pjseoane232|45=6|58=Tag not defined for this message type|371=553|372=3|373=2|10=117|
20190627-01:35:35.000000000 : 8=FIXT.1.1|9=125|35=3|34=13|49=ROFX|52=20190627-01:35:36.934|56=pjseoane232|45=7|58=Tag not defined for this message type|371=553|372=3|373=2|10=123|
20190627-01:35:35.000000000 : 8=FIXT.1.1|9=113|35=h|34=14|49=ROFX|52=20190627-01:35:37.245|56=pjseoane232|325=Y|335=NONE|336=1|340=0|625=1|1300=[N/A]|1301=ROFX|10=255|
20190627-01:36:04.000000000 : 8=FIXT.1.1|9=87|35=0|34=8|49=pjseoane232|52=20190627-01:36:04.000|56=ROFX|553=pjseoane232|554=AiZkiC5#|10=106|
20190627-01:36:04.000000000 : 8=FIXT.1.1|9=125|35=3|34=15|49=ROFX|52=20190627-01:36:06.587|56=pjseoane232|45=8|58=Tag not defined for this message type|371=553|372=0|373=2|10=125|
20190627-01:36:20.000000000 : 8=FIXT.1.1|9=68|35=1|34=16|49=ROFX|52=20190627-01:36:22.013|56=pjseoane232|112=TEST|10=153|
20190627-01:36:20.000000000 : 8=FIXT.1.1|9=96|35=0|34=9|49=pjseoane232|52=20190627-01:36:20.000|56=ROFX|553=pjseoane232|554=AiZkiC5#|112=TEST|10=123|
20190627-01:36:20.000000000 : 8=FIXT.1.1|9=125|35=3|34=17|49=ROFX|52=20190627-01:36:22.206|56=pjseoane232|45=9|58=Tag not defined for this message type|371=553|372=0|373=2|10=114|
20190627-01:37:32.000000000 : 8=FIXT.1.1|9=112|35=A|34=1|49=pjseoane232|52=20190627-01:37:32.000|56=ROFX|553=pjseoane232|554=AiZkiC5#|98=0|108=30|141=Y|1137=9|10=036|
20190627-01:37:33.000000000 : 8=FIXT.1.1|9=83|35=A|34=1|49=ROFX|52=20190627-01:37:35.312|56=pjseoane232|98=0|108=30|141=Y|1137=9|10=238|
20190627-01:37:34.000000000 : 8=FIXT.1.1|9=108|35=h|34=2|49=ROFX|52=20190627-01:37:35.874|56=pjseoane232|325=Y|335=NONE|336=[N/A]|340=2|1300=DDA|1301=ROFX|10=102|
20190627-01:37:34.000000000 : 8=FIXT.1.1|9=162|35=3|34=2|49=pjseoane232|52=20190627-01:37:34.000|56=ROFX|553=pjseoane232|554=AiZkiC5#|45=2|58=Value is incorrect (out of range) for this tag|371=336|372=h|373=5|10=072|
20190627-01:37:34.000000000 : 8=FIXT.1.1|9=109|35=h|34=3|49=ROFX|52=20190627-01:37:35.882|56=pjseoane232|325=Y|335=NONE|336=[N/A]|340=2|1300=MERV|1301=ROFX|10=216|
20190627-01:37:34.000000000 : 8=FIXT.1.1|9=162|35=3|34=3|49=pjseoane232|52=20190627-01:37:34.000|56=ROFX|553=pjseoane232|554=AiZkiC5#|45=3|58=Value is incorrect (out of range) for this tag|371=336|372=h|373=5|10=074|
20190627-01:37:34.000000000 : 8=FIXT.1.1|9=122|35=h|34=4|49=ROFX|52=20190627-01:37:35.883|56=pjseoane232|58=EXTERNAL|325=Y|335=NONE|336=[N/A]|340=2|1300=MATBA|1301=ROFX|10=014|
20190627-01:37:34.000000000 : 8=FIXT.1.1|9=162|35=3|34=4|49=pjseoane232|52=20190627-01:37:34.000|56=ROFX|553=pjseoane232|554=AiZkiC5#|45=4|58=Value is incorrect (out of range) for this tag|371=336|372=h|373=5|10=076|
20190627-01:37:34.000000000 : 8=FIXT.1.1|9=108|35=h|34=5|49=ROFX|52=20190627-01:37:35.883|56=pjseoane232|325=Y|335=NONE|336=[N/A]|340=2|1300=DDF|1301=ROFX|10=110|
20190627-01:37:34.000000000 : 8=FIXT.1.1|9=162|35=3|34=5|49=pjseoane232|52=20190627-01:37:34.000|56=ROFX|553=pjseoane232|554=AiZkiC5#|45=5|58=Value is incorrect (out of range) for this tag|371=336|372=h|373=5|10=078|
20190627-01:37:34.000000000 : 8=FIXT.1.1|9=109|35=h|34=6|49=ROFX|52=20190627-01:37:35.883|56=pjseoane232|325=Y|335=NONE|336=[N/A]|340=2|1300=RFXI|1301=ROFX|10=219|
20190627-01:37:34.000000000 : 8=FIXT.1.1|9=162|35=3|34=6|49=pjseoane232|52=20190627-01:37:34.000|56=ROFX|553=pjseoane232|554=AiZkiC5#|45=6|58=Value is incorrect (out of range) for this tag|371=336|372=h|373=5|10=080|
20190627-01:37:34.000000000 : 8=FIXT.1.1|9=109|35=h|34=7|49=ROFX|52=20190627-01:37:35.883|56=pjseoane232|325=Y|335=NONE|336=[N/A]|340=2|1300=DUAL|1301=ROFX|10=201|
20190627-01:37:34.000000000 : 8=FIXT.1.1|9=162|35=3|34=7|49=pjseoane232|52=20190627-01:37:34.000|56=ROFX|553=pjseoane232|554=AiZkiC5#|45=7|58=Value is incorrect (out of range) for this tag|371=336|372=h|373=5|10=082|
20190627-01:37:34.000000000 : 8=FIXT.1.1|9=124|35=3|34=8|49=ROFX|52=20190627-01:37:36.075|56=pjseoane232|45=2|58=Tag not defined for this message type|371=553|372=3|373=2|10=071|
20190627-01:37:34.000000000 : 8=FIXT.1.1|9=124|35=3|34=9|49=ROFX|52=20190627-01:37:36.076|56=pjseoane232|45=3|58=Tag not defined for this message type|371=553|372=3|373=2|10=074|
20190627-01:37:34.000000000 : 8=FIXT.1.1|9=125|35=3|34=10|49=ROFX|52=20190627-01:37:36.080|56=pjseoane232|45=4|58=Tag not defined for this message type|371=553|372=3|373=2|10=111|
20190627-01:37:34.000000000 : 8=FIXT.1.1|9=125|35=3|34=11|49=ROFX|52=20190627-01:37:36.084|56=pjseoane232|45=5|58=Tag not defined for this message type|371=553|372=3|373=2|10=117|
20190627-01:37:34.000000000 : 8=FIXT.1.1|9=125|35=3|34=12|49=ROFX|52=20190627-01:37:36.086|56=pjseoane232|45=6|58=Tag not defined for this message type|371=553|372=3|373=2|10=121|
20190627-01:37:34.000000000 : 8=FIXT.1.1|9=125|35=3|34=13|49=ROFX|52=20190627-01:37:36.090|56=pjseoane232|45=7|58=Tag not defined for this message type|371=553|372=3|373=2|10=118|
20190627-01:37:34.000000000 : 8=FIXT.1.1|9=113|35=h|34=14|49=ROFX|52=20190627-01:37:36.424|56=pjseoane232|325=Y|335=NONE|336=1|340=0|625=1|1300=[N/A]|1301=ROFX|10=255|
20190627-01:37:53.000000000 : 8=FIXT.1.1|9=118|35=A|34=1|49=pjseoane232|52=20190627-01:37:53.000|56=ROFX|336=1|553=pjseoane232|554=AiZkiC5#|98=0|108=30|141=Y|1137=9|10=056|
20190627-01:38:49.000000000 : 8=FIXT.1.1|9=118|35=A|34=1|49=pjseoane232|52=20190627-01:38:49.000|56=ROFX|336=0|553=pjseoane232|554=AiZkiC5#|98=0|108=30|141=Y|1137=9|10=061|
20190627-01:39:51.000000000 : 8=FIXT.1.1|9=112|35=A|34=1|49=pjseoane232|52=20190627-01:39:51.000|56=ROFX|553=pjseoane232|554=AiZkiC5#|98=0|108=30|141=Y|1137=9|10=039|
20190627-01:39:53.000000000 : 8=FIXT.1.1|9=83|35=A|34=1|49=ROFX|52=20190627-01:39:55.064|56=pjseoane232|98=0|108=30|141=Y|1137=9|10=246|
20190627-01:39:53.000000000 : 8=FIXT.1.1|9=108|35=h|34=2|49=ROFX|52=20190627-01:39:55.602|56=pjseoane232|325=Y|335=NONE|336=[N/A]|340=2|1300=DDA|1301=ROFX|10=095|
20190627-01:39:53.000000000 : 8=FIXT.1.1|9=162|35=3|34=2|49=pjseoane232|52=20190627-01:39:53.000|56=ROFX|553=pjseoane232|554=AiZkiC5#|45=2|58=Value is incorrect (out of range) for this tag|371=336|372=h|373=5|10=075|
20190627-01:39:53.000000000 : 8=FIXT.1.1|9=108|35=h|34=3|49=ROFX|52=20190627-01:39:55.603|56=pjseoane232|325=Y|335=NONE|336=[N/A]|340=2|1300=DDF|1301=ROFX|10=102|
20190627-01:39:53.000000000 : 8=FIXT.1.1|9=162|35=3|34=3|49=pjseoane232|52=20190627-01:39:53.000|56=ROFX|553=pjseoane232|554=AiZkiC5#|45=3|58=Value is incorrect (out of range) for this tag|371=336|372=h|373=5|10=077|
20190627-01:39:53.000000000 : 8=FIXT.1.1|9=109|35=h|34=4|49=ROFX|52=20190627-01:39:55.603|56=pjseoane232|325=Y|335=NONE|336=[N/A]|340=2|1300=DUAL|1301=ROFX|10=192|
20190627-01:39:53.000000000 : 8=FIXT.1.1|9=162|35=3|34=4|49=pjseoane232|52=20190627-01:39:53.000|56=ROFX|553=pjseoane232|554=AiZkiC5#|45=4|58=Value is incorrect (out of range) for this tag|371=336|372=h|373=5|10=079|
20190627-01:39:53.000000000 : 8=FIXT.1.1|9=109|35=h|34=5|49=ROFX|52=20190627-01:39:55.603|56=pjseoane232|325=Y|335=NONE|336=[N/A]|340=2|1300=MERV|1301=ROFX|10=213|
20190627-01:39:53.000000000 : 8=FIXT.1.1|9=162|35=3|34=5|49=pjseoane232|52=20190627-01:39:53.000|56=ROFX|553=pjseoane232|554=AiZkiC5#|45=5|58=Value is incorrect (out of range) for this tag|371=336|372=h|373=5|10=081|
20190627-01:39:53.000000000 : 8=FIXT.1.1|9=122|35=h|34=6|49=ROFX|52=20190627-01:39:55.603|56=pjseoane232|58=EXTERNAL|325=Y|335=NONE|336=[N/A]|340=2|1300=MATBA|1301=ROFX|10=010|
20190627-01:39:53.000000000 : 8=FIXT.1.1|9=162|35=3|34=6|49=pjseoane232|52=20190627-01:39:53.000|56=ROFX|553=pjseoane232|554=AiZkiC5#|45=6|58=Value is incorrect (out of range) for this tag|371=336|372=h|373=5|10=083|
20190627-01:39:53.000000000 : 8=FIXT.1.1|9=109|35=h|34=7|49=ROFX|52=20190627-01:39:55.603|56=pjseoane232|325=Y|335=NONE|336=[N/A]|340=2|1300=RFXI|1301=ROFX|10=214|
20190627-01:39:53.000000000 : 8=FIXT.1.1|9=162|35=3|34=7|49=pjseoane232|52=20190627-01:39:53.000|56=ROFX|553=pjseoane232|554=AiZkiC5#|45=7|58=Value is incorrect (out of range) for this tag|371=336|372=h|373=5|10=085|
20190627-01:39:54.000000000 : 8=FIXT.1.1|9=124|35=3|34=8|49=ROFX|52=20190627-01:39:55.798|56=pjseoane232|45=2|58=Tag not defined for this message type|371=553|372=3|373=2|10=086|
20190627-01:39:54.000000000 : 8=FIXT.1.1|9=124|35=3|34=9|49=ROFX|52=20190627-01:39:55.802|56=pjseoane232|45=3|58=Tag not defined for this message type|371=553|372=3|373=2|10=074|
20190627-01:39:54.000000000 : 8=FIXT.1.1|9=125|35=3|34=10|49=ROFX|52=20190627-01:39:55.805|56=pjseoane232|45=4|58=Tag not defined for this message type|371=553|372=3|373=2|10=119|
20190627-01:39:54.000000000 : 8=FIXT.1.1|9=125|35=3|34=11|49=ROFX|52=20190627-01:39:55.807|56=pjseoane232|45=5|58=Tag not defined for this message type|371=553|372=3|373=2|10=123|
20190627-01:39:54.000000000 : 8=FIXT.1.1|9=125|35=3|34=12|49=ROFX|52=20190627-01:39:55.811|56=pjseoane232|45=6|58=Tag not defined for this message type|371=553|372=3|373=2|10=120|
20190627-01:39:54.000000000 : 8=FIXT.1.1|9=125|35=3|34=13|49=ROFX|52=20190627-01:39:55.815|56=pjseoane232|45=7|58=Tag not defined for this message type|371=553|372=3|373=2|10=126|
20190627-01:39:54.000000000 : 8=FIXT.1.1|9=113|35=h|34=14|49=ROFX|52=20190627-01:39:56.119|56=pjseoane232|325=Y|335=NONE|336=1|340=0|625=1|1300=[N/A]|1301=ROFX|10=004|
20190627-01:40:23.000000000 : 8=FIXT.1.1|9=87|35=0|34=8|49=pjseoane232|52=20190627-01:40:23.000|56=ROFX|553=pjseoane232|554=AiZkiC5#|10=102|
20190627-01:40:24.000000000 : 8=FIXT.1.1|9=125|35=3|34=15|49=ROFX|52=20190627-01:40:25.846|56=pjseoane232|45=8|58=Tag not defined for this message type|371=553|372=0|373=2|10=119|
20190627-01:40:38.000000000 : 8=FIXT.1.1|9=68|35=1|34=16|49=ROFX|52=20190627-01:40:40.013|56=pjseoane232|112=TEST|10=148|
20190627-01:40:38.000000000 : 8=FIXT.1.1|9=96|35=0|34=9|49=pjseoane232|52=20190627-01:40:38.000|56=ROFX|553=pjseoane232|554=AiZkiC5#|112=TEST|10=127|
20190627-01:40:38.000000000 : 8=FIXT.1.1|9=125|35=3|34=17|49=ROFX|52=20190627-01:40:40.208|56=pjseoane232|45=9|58=Tag not defined for this message type|371=553|372=0|373=2|10=111|
20190627-01:41:42.000000000 : 8=FIXT.1.1|9=112|35=A|34=1|49=pjseoane232|52=20190627-01:41:42.000|56=ROFX|553=pjseoane232|554=AiZkiC5#|98=0|108=30|141=Y|1137=9|10=032|
20190627-01:41:43.000000000 : 8=FIXT.1.1|9=83|35=A|34=1|49=ROFX|52=20190627-01:41:45.576|56=pjseoane232|98=0|108=30|141=Y|1137=9|10=246|
20190627-01:41:44.000000000 : 8=FIXT.1.1|9=108|35=h|34=2|49=ROFX|52=20190627-01:41:46.115|56=pjseoane232|325=Y|335=NONE|336=[N/A]|340=2|1300=DDA|1301=ROFX|10=087|
20190627-01:41:44.000000000 : 8=FIXT.1.1|9=133|35=3|34=2|49=pjseoane232|52=20190627-01:41:44.000|56=ROFX|45=2|58=Value is incorrect (out of range) for this tag|371=336|372=h|373=5|10=044|
20190627-01:41:44.000000000 : 8=FIXT.1.1|9=109|35=h|34=3|49=ROFX|52=20190627-01:41:46.115|56=pjseoane232|325=Y|335=NONE|336=[N/A]|340=2|1300=MERV|1301=ROFX|10=202|
20190627-01:41:44.000000000 : 8=FIXT.1.1|9=133|35=3|34=3|49=pjseoane232|52=20190627-01:41:44.000|56=ROFX|45=3|58=Value is incorrect (out of range) for this tag|371=336|372=h|373=5|10=046|
20190627-01:41:44.000000000 : 8=FIXT.1.1|9=108|35=h|34=4|49=ROFX|52=20190627-01:41:46.115|56=pjseoane232|325=Y|335=NONE|336=[N/A]|340=2|1300=DDF|1301=ROFX|10=094|
20190627-01:41:44.000000000 : 8=FIXT.1.1|9=133|35=3|34=4|49=pjseoane232|52=20190627-01:41:44.000|56=ROFX|45=4|58=Value is incorrect (out of range) for this tag|371=336|372=h|373=5|10=048|
20190627-01:41:44.000000000 : 8=FIXT.1.1|9=122|35=h|34=5|49=ROFX|52=20190627-01:41:46.116|56=pjseoane232|58=EXTERNAL|325=Y|335=NONE|336=[N/A]|340=2|1300=MATBA|1301=ROFX|10=001|
20190627-01:41:44.000000000 : 8=FIXT.1.1|9=133|35=3|34=5|49=pjseoane232|52=20190627-01:41:44.000|56=ROFX|45=5|58=Value is incorrect (out of range) for this tag|371=336|372=h|373=5|10=050|
20190627-01:41:44.000000000 : 8=FIXT.1.1|9=109|35=h|34=6|49=ROFX|52=20190627-01:41:46.116|56=pjseoane232|325=Y|335=NONE|336=[N/A]|340=2|1300=RFXI|1301=ROFX|10=205|
20190627-01:41:44.000000000 : 8=FIXT.1.1|9=133|35=3|34=6|49=pjseoane232|52=20190627-01:41:44.000|56=ROFX|45=6|58=Value is incorrect (out of range) for this tag|371=336|372=h|373=5|10=052|
20190627-01:41:44.000000000 : 8=FIXT.1.1|9=109|35=h|34=7|49=ROFX|52=20190627-01:41:46.116|56=pjseoane232|325=Y|335=NONE|336=[N/A]|340=2|1300=DUAL|1301=ROFX|10=187|
20190627-01:41:44.000000000 : 8=FIXT.1.1|9=133|35=3|34=7|49=pjseoane232|52=20190627-01:41:44.000|56=ROFX|45=7|58=Value is incorrect (out of range) for this tag|371=336|372=h|373=5|10=054|
20190627-01:41:44.000000000 : 8=FIXT.1.1|9=112|35=h|34=8|49=ROFX|52=20190627-01:41:46.633|56=pjseoane232|325=Y|335=NONE|336=1|340=0|625=1|1300=[N/A]|1301=ROFX|10=207|
20190627-01:42:14.000000000 : 8=FIXT.1.1|9=58|35=0|34=8|49=pjseoane232|52=20190627-01:42:14.000|56=ROFX|10=080|
20190627-01:42:14.000000000 : 8=FIXT.1.1|9=58|35=0|34=9|49=ROFX|52=20190627-01:42:16.699|56=pjseoane232|10=107|
20190627-01:42:44.000000000 : 8=FIXT.1.1|9=58|35=0|34=9|49=pjseoane232|52=20190627-01:42:44.000|56=ROFX|10=084|
20190627-01:42:44.000000000 : 8=FIXT.1.1|9=59|35=0|34=10|49=ROFX|52=20190627-01:42:46.717|56=pjseoane232|10=142|
20190627-01:43:14.000000000 : 8=FIXT.1.1|9=59|35=0|34=10|49=pjseoane232|52=20190627-01:43:14.000|56=ROFX|10=123|
20190627-01:43:14.000000000 : 8=FIXT.1.1|9=59|35=0|34=11|49=ROFX|52=20190627-01:43:16.730|56=pjseoane232|10=136|
20190627-01:43:44.000000000 : 8=FIXT.1.1|9=59|35=0|34=11|49=pjseoane232|52=20190627-01:43:44.000|56=ROFX|10=127|
20190627-01:43:45.000000000 : 8=FIXT.1.1|9=59|35=0|34=12|49=ROFX|52=20190627-01:43:46.746|56=pjseoane232|10=147|
20190627-01:59:58.000000000 : 8=FIXT.1.1|9=112|35=A|34=1|49=pjseoane232|52=20190627-01:59:58.000|56=ROFX|553=pjseoane232|554=AiZkiC5#|98=0|108=30|141=Y|1137=9|10=048|
20190627-01:59:58.000000000 : 8=FIXT.1.1|9=83|35=A|34=1|49=ROFX|52=20190627-02:00:00.653|56=pjseoane232|98=0|108=30|141=Y|1137=9|10=229|
20190627-01:59:59.000000000 : 8=FIXT.1.1|9=108|35=h|34=2|49=ROFX|52=20190627-02:00:01.193|56=pjseoane232|325=Y|335=NONE|336=[N/A]|340=2|1300=DDA|1301=ROFX|10=080|
20190627-01:59:59.000000000 : 8=FIXT.1.1|9=133|35=3|34=2|49=pjseoane232|52=20190627-01:59:59.000|56=ROFX|45=2|58=Value is incorrect (out of range) for this tag|371=336|372=h|373=5|10=059|
20190627-01:59:59.000000000 : 8=FIXT.1.1|9=109|35=h|34=3|49=ROFX|52=20190627-02:00:01.194|56=pjseoane232|325=Y|335=NONE|336=[N/A]|340=2|1300=MERV|1301=ROFX|10=196|
20190627-01:59:59.000000000 : 8=FIXT.1.1|9=133|35=3|34=3|49=pjseoane232|52=20190627-01:59:59.000|56=ROFX|45=3|58=Value is incorrect (out of range) for this tag|371=336|372=h|373=5|10=061|
20190627-01:59:59.000000000 : 8=FIXT.1.1|9=122|35=h|34=4|49=ROFX|52=20190627-02:00:01.194|56=pjseoane232|58=EXTERNAL|325=Y|335=NONE|336=[N/A]|340=2|1300=MATBA|1301=ROFX|10=249|
20190627-01:59:59.000000000 : 8=FIXT.1.1|9=133|35=3|34=4|49=pjseoane232|52=20190627-01:59:59.000|56=ROFX|45=4|58=Value is incorrect (out of range) for this tag|371=336|372=h|373=5|10=063|
20190627-01:59:59.000000000 : 8=FIXT.1.1|9=109|35=h|34=5|49=ROFX|52=20190627-02:00:01.194|56=pjseoane232|325=Y|335=NONE|336=[N/A]|340=2|1300=DUAL|1301=ROFX|10=178|
20190627-01:59:59.000000000 : 8=FIXT.1.1|9=133|35=3|34=5|49=pjseoane232|52=20190627-01:59:59.000|56=ROFX|45=5|58=Value is incorrect (out of range) for this tag|371=336|372=h|373=5|10=065|
20190627-01:59:59.000000000 : 8=FIXT.1.1|9=108|35=h|34=6|49=ROFX|52=20190627-02:00:01.194|56=pjseoane232|325=Y|335=NONE|336=[N/A]|340=2|1300=DDF|1301=ROFX|10=090|
20190627-01:59:59.000000000 : 8=FIXT.1.1|9=133|35=3|34=6|49=pjseoane232|52=20190627-01:59:59.000|56=ROFX|45=6|58=Value is incorrect (out of range) for this tag|371=336|372=h|373=5|10=067|
20190627-01:59:59.000000000 : 8=FIXT.1.1|9=109|35=h|34=7|49=ROFX|52=20190627-02:00:01.194|56=pjseoane232|325=Y|335=NONE|336=[N/A]|340=2|1300=RFXI|1301=ROFX|10=199|
20190627-01:59:59.000000000 : 8=FIXT.1.1|9=133|35=3|34=7|49=pjseoane232|52=20190627-01:59:59.000|56=ROFX|45=7|58=Value is incorrect (out of range) for this tag|371=336|372=h|373=5|10=069|
20190627-01:59:59.000000000 : 8=FIXT.1.1|9=112|35=h|34=8|49=ROFX|52=20190627-02:00:01.712|56=pjseoane232|325=Y|335=NONE|336=1|340=0|625=1|1300=[N/A]|1301=ROFX|10=192|
20190627-02:00:29.000000000 : 8=FIXT.1.1|9=58|35=0|34=8|49=pjseoane232|52=20190627-02:00:29.000|56=ROFX|10=081|
20190627-02:00:30.000000000 : 8=FIXT.1.1|9=58|35=0|34=9|49=ROFX|52=20190627-02:00:32.013|56=pjseoane232|10=080|
20190627-02:00:59.000000000 : 8=FIXT.1.1|9=58|35=0|34=9|49=pjseoane232|52=20190627-02:00:59.000|56=ROFX|10=085|
20190627-02:01:00.000000000 : 8=FIXT.1.1|9=59|35=0|34=10|49=ROFX|52=20190627-02:01:02.013|56=pjseoane232|10=119|
20190627-02:16:57.000000000 : 8=FIXT.1.1|9=112|35=A|34=1|49=pjseoane232|52=20190627-02:16:57.000|56=ROFX|553=pjseoane232|554=AiZkiC5#|98=0|108=30|141=Y|1137=9|10=041|
20190627-02:16:58.000000000 : 8=FIXT.1.1|9=83|35=A|34=1|49=ROFX|52=20190627-02:17:00.618|56=pjseoane232|98=0|108=30|141=Y|1137=9|10=238|
20190627-02:16:59.000000000 : 8=FIXT.1.1|9=108|35=h|34=2|49=ROFX|52=20190627-02:17:01.172|56=pjseoane232|325=Y|335=NONE|336=[N/A]|340=2|1300=DDA|1301=ROFX|10=085|
20190627-02:16:59.000000000 : 8=FIXT.1.1|9=133|35=3|34=2|49=pjseoane232|52=20190627-02:16:59.000|56=ROFX|45=2|58=Value is incorrect (out of range) for this tag|371=336|372=h|373=5|10=053|
20190627-02:16:59.000000000 : 8=FIXT.1.1|9=108|35=h|34=3|49=ROFX|52=20190627-02:17:01.173|56=pjseoane232|325=Y|335=NONE|336=[N/A]|340=2|1300=DDF|1301=ROFX|10=092|
20190627-02:16:59.000000000 : 8=FIXT.1.1|9=133|35=3|34=3|49=pjseoane232|52=20190627-02:16:59.000|56=ROFX|45=3|58=Value is incorrect (out of range) for this tag|371=336|372=h|373=5|10=055|
20190627-02:16:59.000000000 : 8=FIXT.1.1|9=109|35=h|34=4|49=ROFX|52=20190627-02:17:01.173|56=pjseoane232|325=Y|335=NONE|336=[N/A]|340=2|1300=DUAL|1301=ROFX|10=182|
20190627-02:16:59.000000000 : 8=FIXT.1.1|9=133|35=3|34=4|49=pjseoane232|52=20190627-02:16:59.000|56=ROFX|45=4|58=Value is incorrect (out of range) for this tag|371=336|372=h|373=5|10=057|
20190627-02:16:59.000000000 : 8=FIXT.1.1|9=109|35=h|34=5|49=ROFX|52=20190627-02:17:01.173|56=pjseoane232|325=Y|335=NONE|336=[N/A]|340=2|1300=MERV|1301=ROFX|10=203|
20190627-02:16:59.000000000 : 8=FIXT.1.1|9=133|35=3|34=5|49=pjseoane232|52=20190627-02:16:59.000|56=ROFX|45=5|58=Value is incorrect (out of range) for this tag|371=336|372=h|373=5|10=059|
20190627-02:16:59.000000000 : 8=FIXT.1.1|9=122|35=h|34=6|49=ROFX|52=20190627-02:17:01.173|56=pjseoane232|58=EXTERNAL|325=Y|335=NONE|336=[N/A]|340=2|1300=MATBA|1301=ROFX|10=000|
20190627-02:16:59.000000000 : 8=FIXT.1.1|9=133|35=3|34=6|49=pjseoane232|52=20190627-02:16:59.000|56=ROFX|45=6|58=Value is incorrect (out of range) for this tag|371=336|372=h|373=5|10=061|
20190627-02:16:59.000000000 : 8=FIXT.1.1|9=109|35=h|34=7|49=ROFX|52=20190627-02:17:01.173|56=pjseoane232|325=Y|335=NONE|336=[N/A]|340=2|1300=RFXI|1301=ROFX|10=204|
20190627-02:16:59.000000000 : 8=FIXT.1.1|9=133|35=3|34=7|49=pjseoane232|52=20190627-02:16:59.000|56=ROFX|45=7|58=Value is incorrect (out of range) for this tag|371=336|372=h|373=5|10=063|
20190627-02:16:59.000000000 : 8=FIXT.1.1|9=112|35=h|34=8|49=ROFX|52=20190627-02:17:01.694|56=pjseoane232|325=Y|335=NONE|336=1|340=0|625=1|1300=[N/A]|1301=ROFX|10=209|
