2020-05-17 18:35:42,480 : onCreate session OK, sessionID >> (FIXT.1.1:pjseoane232->ROFX)
2020-05-17 18:35:42,484 : Send toAdmin1>> (8=FIXT.1.1|9=83|35=A|34=1|49=pjseoane232|52=20200517-21:35:42.484|56=ROFX|98=0|108=20|141=Y|1137=9|10=235|)
2020-05-17 18:35:42,484 : Send Logon>> (8=FIXT.1.1|9=112|35=A|34=1|49=pjseoane232|52=20200517-21:35:42.484|56=ROFX|553=pjseoane232|554=AiZkiC5#|98=0|108=20|141=Y|1137=9|10=042|)
2020-05-17 18:35:44,261 : Received from adm>> (8=FIXT.1.1|9=83|35=A|34=1|49=ROFX|52=20200517-21:35:44.141|56=pjseoane232|98=0|108=20|141=Y|1137=9|10=227|)
2020-05-17 18:35:44,261 : onLogon OK, Hello Rofex,goRobot: >> (FIXT.1.1:pjseoane232->ROFX)
2020-05-17 18:35:44,263 : Send toApp>> (8=FIXT.1.1|9=118|35=x|34=2|49=pjseoane232|52=20200517-21:35:44.263|56=ROFX|1128=9|320=ListRequestA|461=FXXXSX|559=4|1300=DDF|1301=ROFX|10=156|)
2020-05-17 18:35:44,477 : Send toAdmin1>> (8=FIXT.1.1|9=123|35=3|34=3|49=pjseoane232|52=20200517-21:35:44.477|56=ROFX|45=2|58=Tag not defined for this message type|371=15|372=y|373=2|10=075|)
2020-05-17 18:35:44,772 : Send toAdmin1>> (8=FIXT.1.1|9=133|35=3|34=4|49=pjseoane232|52=20200517-21:35:44.772|56=ROFX|45=3|58=Value is incorrect (out of range) for this tag|371=336|372=h|373=5|10=058|)
2020-05-17 18:35:44,774 : Send toAdmin1>> (8=FIXT.1.1|9=133|35=3|34=5|49=pjseoane232|52=20200517-21:35:44.773|56=ROFX|45=4|58=Value is incorrect (out of range) for this tag|371=336|372=h|373=5|10=061|)
2020-05-17 18:35:44,774 : Send toAdmin1>> (8=FIXT.1.1|9=133|35=3|34=6|49=pjseoane232|52=20200517-21:35:44.774|56=ROFX|45=5|58=Value is incorrect (out of range) for this tag|371=336|372=h|373=5|10=064|)
2020-05-17 18:35:44,775 : Send toAdmin1>> (8=FIXT.1.1|9=133|35=3|34=7|49=pjseoane232|52=20200517-21:35:44.775|56=ROFX|45=6|58=Value is incorrect (out of range) for this tag|371=336|372=h|373=5|10=067|)
2020-05-17 18:35:44,776 : Send toAdmin1>> (8=FIXT.1.1|9=133|35=3|34=8|49=pjseoane232|52=20200517-21:35:44.776|56=ROFX|45=7|58=Value is incorrect (out of range) for this tag|371=336|372=h|373=5|10=070|)
2020-05-17 18:35:44,777 : Send toAdmin1>> (8=FIXT.1.1|9=133|35=3|34=9|49=pjseoane232|52=20200517-21:35:44.777|56=ROFX|45=8|58=Value is incorrect (out of range) for this tag|371=336|372=h|373=5|10=073|)
2020-05-17 18:35:45,292 : from app>> (8=FIXT.1.1|9=112|35=h|34=9|49=ROFX|52=20200517-21:35:45.188|56=pjseoane232|325=Y|335=NONE|336=1|340=0|625=1|1300=[N/A]|1301=ROFX|10=207|)
2020-05-17 18:36:04,979 : Send toAdmin1>> (8=FIXT.1.1|9=59|35=0|34=10|49=pjseoane232|52=20200517-21:36:04.979|56=ROFX|10=141|)
2020-05-17 18:36:06,002 : Received from adm>> (8=FIXT.1.1|9=59|35=0|34=10|49=ROFX|52=20200517-21:36:05.899|56=pjseoane232|10=143|)
2020-05-17 18:36:24,619 : Send toAdmin1>> (8=FIXT.1.1|9=59|35=0|34=11|49=pjseoane232|52=20200517-21:36:24.619|56=ROFX|10=135|)
2020-05-17 18:36:26,003 : Received from adm>> (8=FIXT.1.1|9=59|35=0|34=11|49=ROFX|52=20200517-21:36:25.899|56=pjseoane232|10=146|)
