2020-05-16 14:08:46,393 : onCreate, sessionID >> (FIXT.1.1:pjseoane232->ROFX)
2020-05-16 14:08:46,410 : S toAdmin1>> (8=FIXT.1.1|9=83|35=A|34=1|49=pjseoane232|52=20200516-17:08:46.000|56=ROFX|98=0|108=30|141=Y|1137=9|10=228|)
2020-05-16 14:08:46,410 : S Logon>> (8=FIXT.1.1|9=112|35=A|34=1|49=pjseoane232|52=20200516-17:08:46.000|56=ROFX|553=pjseoane232|554=AiZkiC5#|98=0|108=30|141=Y|1137=9|10=035|)
2020-05-16 14:08:47,260 : R adm>> (8=FIXT.1.1|9=83|35=A|34=1|49=ROFX|52=20200516-17:08:45.373|56=pjseoane232|98=0|108=30|141=Y|1137=9|10=240|)
2020-05-16 14:08:47,260 : onLogon, Hello Rofex: >> (FIXT.1.1:pjseoane232->ROFX)
2020-05-16 14:08:47,261 : S toApp>> (8=FIXT.1.1|9=145|35=V|34=2|49=pjseoane232|52=20200516-17:08:47.000|56=ROFX|1128=9|146=1|55=RFX20Sep19|262=ListaMktData2|263=2|264=1|265=0|266=Y|267=2|269=0|269=1|10=171|)
2020-05-16 14:08:47,483 : onMessage, R app>> (8=FIXT.1.1|9=133|35=j|34=2|49=ROFX|52=20200516-17:08:45.621|56=pjseoane232|58=Internal application error, contact support.671438144529761|372=V|380=4|10=147|)
2020-05-16 14:08:47,773 : onMessage, R app>> (8=FIXT.1.1|9=108|35=h|34=3|49=ROFX|52=20200516-17:08:45.911|56=pjseoane232|325=Y|335=NONE|336=[N/A]|340=2|1300=DDA|1301=ROFX|10=090|)
2020-05-16 14:08:47,774 : onMessage, R app>> (8=FIXT.1.1|9=108|35=h|34=4|49=ROFX|52=20200516-17:08:45.911|56=pjseoane232|325=Y|335=NONE|336=[N/A]|340=2|1300=DDF|1301=ROFX|10=096|)
2020-05-16 14:08:47,774 : onMessage, R app>> (8=FIXT.1.1|9=109|35=h|34=5|49=ROFX|52=20200516-17:08:45.911|56=pjseoane232|325=Y|335=NONE|336=[N/A]|340=2|1300=MERV|1301=ROFX|10=206|)
2020-05-16 14:08:47,774 : onMessage, R app>> (8=FIXT.1.1|9=122|35=h|34=6|49=ROFX|52=20200516-17:08:45.911|56=pjseoane232|58=EXTERNAL|325=Y|335=NONE|336=[N/A]|340=2|1300=MATBA|1301=ROFX|10=003|)
2020-05-16 14:08:47,774 : onMessage, R app>> (8=FIXT.1.1|9=109|35=h|34=7|49=ROFX|52=20200516-17:08:45.911|56=pjseoane232|325=Y|335=NONE|336=[N/A]|340=2|1300=RFXI|1301=ROFX|10=207|)
2020-05-16 14:08:47,774 : onMessage, R app>> (8=FIXT.1.1|9=109|35=h|34=8|49=ROFX|52=20200516-17:08:45.911|56=pjseoane232|325=Y|335=NONE|336=[N/A]|340=2|1300=DUAL|1301=ROFX|10=189|)
2020-05-16 14:08:48,290 : onMessage, R app>> (8=FIXT.1.1|9=112|35=h|34=9|49=ROFX|52=20200516-17:08:46.428|56=pjseoane232|325=Y|335=NONE|336=1|340=0|625=1|1300=[N/A]|1301=ROFX|10=209|)
2020-05-16 14:09:17,417 : S toAdmin1>> (8=FIXT.1.1|9=58|35=0|34=3|49=pjseoane232|52=20200516-17:09:17.000|56=ROFX|10=077|)
2020-05-16 14:09:18,333 : R adm>> (8=FIXT.1.1|9=59|35=0|34=10|49=ROFX|52=20200516-17:09:16.471|56=pjseoane232|10=135|)
2020-05-16 14:09:47,434 : S toAdmin1>> (8=FIXT.1.1|9=58|35=0|34=4|49=pjseoane232|52=20200516-17:09:47.000|56=ROFX|10=081|)
2020-05-16 14:09:48,333 : R adm>> (8=FIXT.1.1|9=59|35=0|34=11|49=ROFX|52=20200516-17:09:46.471|56=pjseoane232|10=139|)
2020-05-16 14:10:17,448 : S toAdmin1>> (8=FIXT.1.1|9=58|35=0|34=5|49=pjseoane232|52=20200516-17:10:17.000|56=ROFX|10=071|)
2020-05-16 14:10:18,333 : R adm>> (8=FIXT.1.1|9=59|35=0|34=12|49=ROFX|52=20200516-17:10:16.471|56=pjseoane232|10=129|)
2020-05-16 14:10:47,464 : S toAdmin1>> (8=FIXT.1.1|9=58|35=0|34=6|49=pjseoane232|52=20200516-17:10:47.000|56=ROFX|10=075|)
2020-05-16 14:10:48,333 : R adm>> (8=FIXT.1.1|9=59|35=0|34=13|49=ROFX|52=20200516-17:10:46.471|56=pjseoane232|10=133|)
2020-05-16 14:11:17,480 : S toAdmin1>> (8=FIXT.1.1|9=58|35=0|34=7|49=pjseoane232|52=20200516-17:11:17.000|56=ROFX|10=074|)
2020-05-16 14:11:18,349 : R adm>> (8=FIXT.1.1|9=59|35=0|34=14|49=ROFX|52=20200516-17:11:16.471|56=pjseoane232|10=132|)
2020-05-16 14:11:47,496 : S toAdmin1>> (8=FIXT.1.1|9=58|35=0|34=8|49=pjseoane232|52=20200516-17:11:47.000|56=ROFX|10=078|)
2020-05-16 14:11:48,333 : R adm>> (8=FIXT.1.1|9=59|35=0|34=15|49=ROFX|52=20200516-17:11:46.471|56=pjseoane232|10=136|)
2020-05-16 14:12:17,510 : S toAdmin1>> (8=FIXT.1.1|9=58|35=0|34=9|49=pjseoane232|52=20200516-17:12:17.000|56=ROFX|10=077|)
2020-05-16 14:12:18,332 : R adm>> (8=FIXT.1.1|9=59|35=0|34=16|49=ROFX|52=20200516-17:12:16.471|56=pjseoane232|10=135|)
2020-05-16 14:12:47,527 : S toAdmin1>> (8=FIXT.1.1|9=59|35=0|34=10|49=pjseoane232|52=20200516-17:12:47.000|56=ROFX|10=121|)
2020-05-16 14:12:48,332 : R adm>> (8=FIXT.1.1|9=59|35=0|34=17|49=ROFX|52=20200516-17:12:46.471|56=pjseoane232|10=139|)
2020-05-16 14:13:17,544 : S toAdmin1>> (8=FIXT.1.1|9=59|35=0|34=11|49=pjseoane232|52=20200516-17:13:17.000|56=ROFX|10=120|)
2020-05-16 14:13:18,333 : R adm>> (8=FIXT.1.1|9=59|35=0|34=18|49=ROFX|52=20200516-17:13:16.471|56=pjseoane232|10=138|)
2020-05-16 14:13:47,555 : S toAdmin1>> (8=FIXT.1.1|9=59|35=0|34=12|49=pjseoane232|52=20200516-17:13:47.000|56=ROFX|10=124|)
2020-05-16 14:13:48,332 : R adm>> (8=FIXT.1.1|9=59|35=0|34=19|49=ROFX|52=20200516-17:13:46.471|56=pjseoane232|10=142|)
2020-05-16 14:14:17,568 : S toAdmin1>> (8=FIXT.1.1|9=59|35=0|34=13|49=pjseoane232|52=20200516-17:14:17.000|56=ROFX|10=123|)
2020-05-16 14:14:18,332 : R adm>> (8=FIXT.1.1|9=59|35=0|34=20|49=ROFX|52=20200516-17:14:16.471|56=pjseoane232|10=132|)
2020-05-16 14:14:47,583 : S toAdmin1>> (8=FIXT.1.1|9=59|35=0|34=14|49=pjseoane232|52=20200516-17:14:47.000|56=ROFX|10=127|)
2020-05-16 14:14:48,333 : R adm>> (8=FIXT.1.1|9=59|35=0|34=21|49=ROFX|52=20200516-17:14:46.471|56=pjseoane232|10=136|)
2020-05-16 14:15:17,600 : S toAdmin1>> (8=FIXT.1.1|9=59|35=0|34=15|49=pjseoane232|52=20200516-17:15:17.000|56=ROFX|10=126|)
2020-05-16 14:15:18,333 : R adm>> (8=FIXT.1.1|9=59|35=0|34=22|49=ROFX|52=20200516-17:15:16.471|56=pjseoane232|10=135|)
2020-05-16 14:15:47,615 : S toAdmin1>> (8=FIXT.1.1|9=59|35=0|34=16|49=pjseoane232|52=20200516-17:15:47.000|56=ROFX|10=130|)
2020-05-16 14:15:48,332 : R adm>> (8=FIXT.1.1|9=59|35=0|34=23|49=ROFX|52=20200516-17:15:46.471|56=pjseoane232|10=139|)
2020-05-16 14:16:17,629 : S toAdmin1>> (8=FIXT.1.1|9=59|35=0|34=17|49=pjseoane232|52=20200516-17:16:17.000|56=ROFX|10=129|)
2020-05-16 14:16:18,335 : R adm>> (8=FIXT.1.1|9=59|35=0|34=24|49=ROFX|52=20200516-17:16:16.471|56=pjseoane232|10=138|)
2020-05-16 14:16:47,646 : S toAdmin1>> (8=FIXT.1.1|9=59|35=0|34=18|49=pjseoane232|52=20200516-17:16:47.000|56=ROFX|10=133|)
2020-05-16 14:16:48,332 : R adm>> (8=FIXT.1.1|9=59|35=0|34=25|49=ROFX|52=20200516-17:16:46.471|56=pjseoane232|10=142|)
2020-05-16 14:17:17,661 : S toAdmin1>> (8=FIXT.1.1|9=59|35=0|34=19|49=pjseoane232|52=20200516-17:17:17.000|56=ROFX|10=132|)
2020-05-16 14:17:18,331 : R adm>> (8=FIXT.1.1|9=59|35=0|34=26|49=ROFX|52=20200516-17:17:16.471|56=pjseoane232|10=141|)
2020-05-16 14:17:47,680 : S toAdmin1>> (8=FIXT.1.1|9=59|35=0|34=20|49=pjseoane232|52=20200516-17:17:47.000|56=ROFX|10=127|)
2020-05-16 14:17:48,344 : R adm>> (8=FIXT.1.1|9=59|35=0|34=27|49=ROFX|52=20200516-17:17:46.471|56=pjseoane232|10=145|)
2020-05-16 14:18:17,695 : S toAdmin1>> (8=FIXT.1.1|9=59|35=0|34=21|49=pjseoane232|52=20200516-17:18:17.000|56=ROFX|10=126|)
2020-05-16 14:18:18,331 : R adm>> (8=FIXT.1.1|9=59|35=0|34=28|49=ROFX|52=20200516-17:18:16.471|56=pjseoane232|10=144|)
