2019-06-30 19:52:41,253 : onCreate, sessionID >> (FIXT.1.1:pjseoane232->ROFX)
2019-06-30 19:52:41,266 : S toAdmin1>> (8=FIXT.1.1|9=83|35=A|34=1|49=pjseoane232|52=20190630-22:52:41.000|56=ROFX|98=0|108=30|141=Y|1137=9|10=223|)
2019-06-30 19:52:41,266 : S Logon>> (8=FIXT.1.1|9=112|35=A|34=1|49=pjseoane232|52=20190630-22:52:41.000|56=ROFX|553=pjseoane232|554=AiZkiC5#|98=0|108=30|141=Y|1137=9|10=030|)
2019-06-30 19:52:42,229 : R adm>> (8=FIXT.1.1|9=83|35=A|34=1|49=ROFX|52=20190630-22:52:42.550|56=pjseoane232|98=0|108=30|141=Y|1137=9|10=234|)
2019-06-30 19:52:42,229 : onLogon, Hello Rofex: >> (FIXT.1.1:pjseoane232->ROFX)
2019-06-30 19:52:42,229 : S toApp>> (8=FIXT.1.1|9=83|35=z|34=2|49=pjseoane232|52=20190630-22:52:42.000|56=ROFX|320=ListaContratos|559=4|10=051|)
2019-06-30 19:52:42,697 : onMessage, R app>> (8=FIXT.1.1|9=108|35=h|34=2|49=ROFX|52=20190630-22:52:43.090|56=pjseoane232|325=Y|335=NONE|336=[N/A]|340=2|1300=DDA|1301=ROFX|10=085|)
2019-06-30 19:52:42,698 : onMessage, R app>> (8=FIXT.1.1|9=108|35=h|34=3|49=ROFX|52=20190630-22:52:43.090|56=pjseoane232|325=Y|335=NONE|336=[N/A]|340=2|1300=DDF|1301=ROFX|10=091|)
2019-06-30 19:52:42,699 : onMessage, R app>> (8=FIXT.1.1|9=109|35=h|34=4|49=ROFX|52=20190630-22:52:43.091|56=pjseoane232|325=Y|335=NONE|336=[N/A]|340=2|1300=DUAL|1301=ROFX|10=182|)
2019-06-30 19:52:42,700 : onMessage, R app>> (8=FIXT.1.1|9=109|35=h|34=5|49=ROFX|52=20190630-22:52:43.092|56=pjseoane232|325=Y|335=NONE|336=[N/A]|340=2|1300=MERV|1301=ROFX|10=204|)
2019-06-30 19:52:42,701 : onMessage, R app>> (8=FIXT.1.1|9=122|35=h|34=6|49=ROFX|52=20190630-22:52:43.092|56=pjseoane232|58=EXTERNAL|325=Y|335=NONE|336=[N/A]|340=2|1300=MATBA|1301=ROFX|10=001|)
2019-06-30 19:52:42,701 : onMessage, R app>> (8=FIXT.1.1|9=109|35=h|34=7|49=ROFX|52=20190630-22:52:43.093|56=pjseoane232|325=Y|335=NONE|336=[N/A]|340=2|1300=RFXI|1301=ROFX|10=206|)
2019-06-30 19:52:43,218 : onMessage, R app>> (8=FIXT.1.1|9=112|35=h|34=8|49=ROFX|52=20190630-22:52:43.612|56=pjseoane232|325=Y|335=NONE|336=1|340=0|625=1|1300=[N/A]|1301=ROFX|10=200|)
2019-06-30 19:53:12,278 : S toAdmin1>> (8=FIXT.1.1|9=58|35=0|34=3|49=pjseoane232|52=20190630-22:53:12.000|56=ROFX|10=072|)
2019-06-30 19:53:13,590 : R adm>> (8=FIXT.1.1|9=58|35=0|34=9|49=ROFX|52=20190630-22:53:13.983|56=pjseoane232|10=099|)
2019-06-30 19:53:42,296 : S toAdmin1>> (8=FIXT.1.1|9=58|35=0|34=4|49=pjseoane232|52=20190630-22:53:42.000|56=ROFX|10=076|)
2019-06-30 19:53:43,591 : R adm>> (8=FIXT.1.1|9=59|35=0|34=10|49=ROFX|52=20190630-22:53:43.983|56=pjseoane232|10=143|)
2019-06-30 19:54:12,313 : S toAdmin1>> (8=FIXT.1.1|9=58|35=0|34=5|49=pjseoane232|52=20190630-22:54:12.000|56=ROFX|10=075|)
2019-06-30 19:54:13,594 : R adm>> (8=FIXT.1.1|9=59|35=0|34=11|49=ROFX|52=20190630-22:54:13.983|56=pjseoane232|10=142|)
2019-06-30 19:54:42,331 : S toAdmin1>> (8=FIXT.1.1|9=58|35=0|34=6|49=pjseoane232|52=20190630-22:54:42.000|56=ROFX|10=079|)
2019-06-30 19:54:43,591 : R adm>> (8=FIXT.1.1|9=59|35=0|34=12|49=ROFX|52=20190630-22:54:43.983|56=pjseoane232|10=146|)
2019-06-30 19:55:12,347 : S toAdmin1>> (8=FIXT.1.1|9=58|35=0|34=7|49=pjseoane232|52=20190630-22:55:12.000|56=ROFX|10=078|)
2019-06-30 19:55:13,592 : R adm>> (8=FIXT.1.1|9=59|35=0|34=13|49=ROFX|52=20190630-22:55:13.983|56=pjseoane232|10=145|)
2019-06-30 19:55:42,363 : S toAdmin1>> (8=FIXT.1.1|9=58|35=0|34=8|49=pjseoane232|52=20190630-22:55:42.000|56=ROFX|10=082|)
2019-06-30 19:55:43,591 : R adm>> (8=FIXT.1.1|9=59|35=0|34=14|49=ROFX|52=20190630-22:55:43.983|56=pjseoane232|10=149|)
2019-06-30 19:56:12,380 : S toAdmin1>> (8=FIXT.1.1|9=58|35=0|34=9|49=pjseoane232|52=20190630-22:56:12.000|56=ROFX|10=081|)
2019-06-30 19:56:13,592 : R adm>> (8=FIXT.1.1|9=59|35=0|34=15|49=ROFX|52=20190630-22:56:13.983|56=pjseoane232|10=148|)
2019-06-30 19:56:42,392 : S toAdmin1>> (8=FIXT.1.1|9=59|35=0|34=10|49=pjseoane232|52=20190630-22:56:42.000|56=ROFX|10=125|)
2019-06-30 19:56:43,593 : R adm>> (8=FIXT.1.1|9=59|35=0|34=16|49=ROFX|52=20190630-22:56:43.983|56=pjseoane232|10=152|)
2019-06-30 19:57:12,409 : S toAdmin1>> (8=FIXT.1.1|9=59|35=0|34=11|49=pjseoane232|52=20190630-22:57:12.000|56=ROFX|10=124|)
2019-06-30 19:57:13,593 : R adm>> (8=FIXT.1.1|9=59|35=0|34=17|49=ROFX|52=20190630-22:57:13.983|56=pjseoane232|10=151|)
2019-06-30 19:57:42,424 : S toAdmin1>> (8=FIXT.1.1|9=59|35=0|34=12|49=pjseoane232|52=20190630-22:57:42.000|56=ROFX|10=128|)
2019-06-30 19:57:43,594 : R adm>> (8=FIXT.1.1|9=59|35=0|34=18|49=ROFX|52=20190630-22:57:43.983|56=pjseoane232|10=155|)
2019-06-30 19:58:12,437 : S toAdmin1>> (8=FIXT.1.1|9=59|35=0|34=13|49=pjseoane232|52=20190630-22:58:12.000|56=ROFX|10=127|)
2019-06-30 19:58:13,601 : R adm>> (8=FIXT.1.1|9=59|35=0|34=19|49=ROFX|52=20190630-22:58:13.983|56=pjseoane232|10=154|)
2019-06-30 19:58:42,453 : S toAdmin1>> (8=FIXT.1.1|9=59|35=0|34=14|49=pjseoane232|52=20190630-22:58:42.000|56=ROFX|10=131|)
2019-06-30 19:58:43,594 : R adm>> (8=FIXT.1.1|9=59|35=0|34=20|49=ROFX|52=20190630-22:58:43.983|56=pjseoane232|10=149|)
2019-06-30 19:59:12,467 : S toAdmin1>> (8=FIXT.1.1|9=59|35=0|34=15|49=pjseoane232|52=20190630-22:59:12.000|56=ROFX|10=130|)
2019-06-30 19:59:13,594 : R adm>> (8=FIXT.1.1|9=59|35=0|34=21|49=ROFX|52=20190630-22:59:13.983|56=pjseoane232|10=148|)
2019-06-30 19:59:42,486 : S toAdmin1>> (8=FIXT.1.1|9=59|35=0|34=16|49=pjseoane232|52=20190630-22:59:42.000|56=ROFX|10=134|)
2019-06-30 19:59:43,595 : R adm>> (8=FIXT.1.1|9=59|35=0|34=22|49=ROFX|52=20190630-22:59:43.983|56=pjseoane232|10=152|)
2019-06-30 20:00:12,503 : S toAdmin1>> (8=FIXT.1.1|9=59|35=0|34=17|49=pjseoane232|52=20190630-23:00:12.000|56=ROFX|10=119|)
2019-06-30 20:00:13,594 : R adm>> (8=FIXT.1.1|9=59|35=0|34=23|49=ROFX|52=20190630-23:00:13.983|56=pjseoane232|10=137|)
2019-06-30 20:00:42,519 : S toAdmin1>> (8=FIXT.1.1|9=59|35=0|34=18|49=pjseoane232|52=20190630-23:00:42.000|56=ROFX|10=123|)
2019-06-30 20:00:43,597 : R adm>> (8=FIXT.1.1|9=59|35=0|34=24|49=ROFX|52=20190630-23:00:43.983|56=pjseoane232|10=141|)
2019-06-30 20:01:12,539 : S toAdmin1>> (8=FIXT.1.1|9=59|35=0|34=19|49=pjseoane232|52=20190630-23:01:12.000|56=ROFX|10=122|)
2019-06-30 20:01:13,596 : R adm>> (8=FIXT.1.1|9=59|35=0|34=25|49=ROFX|52=20190630-23:01:13.983|56=pjseoane232|10=140|)
2019-06-30 20:01:42,554 : S toAdmin1>> (8=FIXT.1.1|9=59|35=0|34=20|49=pjseoane232|52=20190630-23:01:42.000|56=ROFX|10=117|)
2019-06-30 20:01:43,602 : R adm>> (8=FIXT.1.1|9=59|35=0|34=26|49=ROFX|52=20190630-23:01:43.983|56=pjseoane232|10=144|)
2019-06-30 20:02:12,572 : S toAdmin1>> (8=FIXT.1.1|9=59|35=0|34=21|49=pjseoane232|52=20190630-23:02:12.000|56=ROFX|10=116|)
2019-06-30 20:02:13,596 : R adm>> (8=FIXT.1.1|9=59|35=0|34=27|49=ROFX|52=20190630-23:02:13.983|56=pjseoane232|10=143|)
2019-06-30 20:02:42,588 : S toAdmin1>> (8=FIXT.1.1|9=59|35=0|34=22|49=pjseoane232|52=20190630-23:02:42.000|56=ROFX|10=120|)
2019-06-30 20:02:43,597 : R adm>> (8=FIXT.1.1|9=59|35=0|34=28|49=ROFX|52=20190630-23:02:43.983|56=pjseoane232|10=147|)
2019-06-30 20:03:12,602 : S toAdmin1>> (8=FIXT.1.1|9=59|35=0|34=23|49=pjseoane232|52=20190630-23:03:12.000|56=ROFX|10=119|)
2019-06-30 20:03:13,597 : R adm>> (8=FIXT.1.1|9=59|35=0|34=29|49=ROFX|52=20190630-23:03:13.983|56=pjseoane232|10=146|)
2019-06-30 20:03:42,616 : S toAdmin1>> (8=FIXT.1.1|9=59|35=0|34=24|49=pjseoane232|52=20190630-23:03:42.000|56=ROFX|10=123|)
2019-06-30 20:03:43,598 : R adm>> (8=FIXT.1.1|9=59|35=0|34=30|49=ROFX|52=20190630-23:03:43.983|56=pjseoane232|10=141|)
2019-06-30 20:04:12,629 : S toAdmin1>> (8=FIXT.1.1|9=59|35=0|34=25|49=pjseoane232|52=20190630-23:04:12.000|56=ROFX|10=122|)
2019-06-30 20:04:13,598 : R adm>> (8=FIXT.1.1|9=59|35=0|34=31|49=ROFX|52=20190630-23:04:13.983|56=pjseoane232|10=140|)
2019-06-30 20:04:42,644 : S toAdmin1>> (8=FIXT.1.1|9=59|35=0|34=26|49=pjseoane232|52=20190630-23:04:42.000|56=ROFX|10=126|)
2019-06-30 20:04:43,598 : R adm>> (8=FIXT.1.1|9=59|35=0|34=32|49=ROFX|52=20190630-23:04:43.983|56=pjseoane232|10=144|)
2019-06-30 20:05:12,661 : S toAdmin1>> (8=FIXT.1.1|9=59|35=0|34=27|49=pjseoane232|52=20190630-23:05:12.000|56=ROFX|10=125|)
2019-06-30 20:05:13,600 : R adm>> (8=FIXT.1.1|9=59|35=0|34=33|49=ROFX|52=20190630-23:05:13.983|56=pjseoane232|10=143|)
2019-06-30 20:05:42,677 : S toAdmin1>> (8=FIXT.1.1|9=59|35=0|34=28|49=pjseoane232|52=20190630-23:05:42.000|56=ROFX|10=129|)
2019-06-30 20:05:43,598 : R adm>> (8=FIXT.1.1|9=59|35=0|34=34|49=ROFX|52=20190630-23:05:43.983|56=pjseoane232|10=147|)
2019-06-30 20:06:12,697 : S toAdmin1>> (8=FIXT.1.1|9=59|35=0|34=29|49=pjseoane232|52=20190630-23:06:12.000|56=ROFX|10=128|)
2019-06-30 20:06:13,599 : R adm>> (8=FIXT.1.1|9=59|35=0|34=35|49=ROFX|52=20190630-23:06:13.983|56=pjseoane232|10=146|)
2019-06-30 20:06:42,716 : S toAdmin1>> (8=FIXT.1.1|9=59|35=0|34=30|49=pjseoane232|52=20190630-23:06:42.000|56=ROFX|10=123|)
2019-06-30 20:06:43,599 : R adm>> (8=FIXT.1.1|9=59|35=0|34=36|49=ROFX|52=20190630-23:06:43.983|56=pjseoane232|10=150|)
2019-06-30 20:07:12,732 : S toAdmin1>> (8=FIXT.1.1|9=59|35=0|34=31|49=pjseoane232|52=20190630-23:07:12.000|56=ROFX|10=122|)
2019-06-30 20:07:13,602 : R adm>> (8=FIXT.1.1|9=59|35=0|34=37|49=ROFX|52=20190630-23:07:13.983|56=pjseoane232|10=149|)
2019-06-30 20:07:42,749 : S toAdmin1>> (8=FIXT.1.1|9=59|35=0|34=32|49=pjseoane232|52=20190630-23:07:42.000|56=ROFX|10=126|)
2019-06-30 20:07:43,602 : R adm>> (8=FIXT.1.1|9=59|35=0|34=38|49=ROFX|52=20190630-23:07:43.983|56=pjseoane232|10=153|)
2019-06-30 20:08:12,765 : S toAdmin1>> (8=FIXT.1.1|9=59|35=0|34=33|49=pjseoane232|52=20190630-23:08:12.000|56=ROFX|10=125|)
2019-06-30 20:08:13,600 : R adm>> (8=FIXT.1.1|9=59|35=0|34=39|49=ROFX|52=20190630-23:08:13.983|56=pjseoane232|10=152|)
2019-06-30 20:08:42,782 : S toAdmin1>> (8=FIXT.1.1|9=59|35=0|34=34|49=pjseoane232|52=20190630-23:08:42.000|56=ROFX|10=129|)
2019-06-30 20:08:43,603 : R adm>> (8=FIXT.1.1|9=59|35=0|34=40|49=ROFX|52=20190630-23:08:43.983|56=pjseoane232|10=147|)
2019-06-30 20:09:12,801 : S toAdmin1>> (8=FIXT.1.1|9=59|35=0|34=35|49=pjseoane232|52=20190630-23:09:12.000|56=ROFX|10=128|)
2019-06-30 20:09:13,601 : R adm>> (8=FIXT.1.1|9=59|35=0|34=41|49=ROFX|52=20190630-23:09:13.983|56=pjseoane232|10=146|)
2019-06-30 20:09:42,822 : S toAdmin1>> (8=FIXT.1.1|9=59|35=0|34=36|49=pjseoane232|52=20190630-23:09:42.000|56=ROFX|10=132|)
2019-06-30 20:09:43,602 : R adm>> (8=FIXT.1.1|9=59|35=0|34=42|49=ROFX|52=20190630-23:09:43.983|56=pjseoane232|10=150|)
2019-06-30 20:10:12,842 : S toAdmin1>> (8=FIXT.1.1|9=59|35=0|34=37|49=pjseoane232|52=20190630-23:10:12.000|56=ROFX|10=122|)
2019-06-30 20:10:13,602 : R adm>> (8=FIXT.1.1|9=59|35=0|34=43|49=ROFX|52=20190630-23:10:13.983|56=pjseoane232|10=140|)
2019-06-30 20:10:42,859 : S toAdmin1>> (8=FIXT.1.1|9=59|35=0|34=38|49=pjseoane232|52=20190630-23:10:42.000|56=ROFX|10=126|)
2019-06-30 20:10:43,602 : R adm>> (8=FIXT.1.1|9=59|35=0|34=44|49=ROFX|52=20190630-23:10:43.983|56=pjseoane232|10=144|)
2019-06-30 20:11:12,875 : S toAdmin1>> (8=FIXT.1.1|9=59|35=0|34=39|49=pjseoane232|52=20190630-23:11:12.000|56=ROFX|10=125|)
2019-06-30 20:11:13,602 : R adm>> (8=FIXT.1.1|9=59|35=0|34=45|49=ROFX|52=20190630-23:11:13.983|56=pjseoane232|10=143|)
2019-06-30 20:11:42,898 : S toAdmin1>> (8=FIXT.1.1|9=59|35=0|34=40|49=pjseoane232|52=20190630-23:11:42.000|56=ROFX|10=120|)
2019-06-30 20:11:43,604 : R adm>> (8=FIXT.1.1|9=59|35=0|34=46|49=ROFX|52=20190630-23:11:43.983|56=pjseoane232|10=147|)
2019-06-30 20:12:12,919 : S toAdmin1>> (8=FIXT.1.1|9=59|35=0|34=41|49=pjseoane232|52=20190630-23:12:12.000|56=ROFX|10=119|)
2019-06-30 20:12:13,602 : R adm>> (8=FIXT.1.1|9=59|35=0|34=47|49=ROFX|52=20190630-23:12:13.983|56=pjseoane232|10=146|)
2019-06-30 20:12:42,933 : S toAdmin1>> (8=FIXT.1.1|9=59|35=0|34=42|49=pjseoane232|52=20190630-23:12:42.000|56=ROFX|10=123|)
2019-06-30 20:12:43,606 : R adm>> (8=FIXT.1.1|9=59|35=0|34=48|49=ROFX|52=20190630-23:12:43.983|56=pjseoane232|10=150|)
2019-06-30 20:13:12,955 : S toAdmin1>> (8=FIXT.1.1|9=59|35=0|34=43|49=pjseoane232|52=20190630-23:13:12.000|56=ROFX|10=122|)
2019-06-30 20:13:13,631 : R adm>> (8=FIXT.1.1|9=59|35=0|34=49|49=ROFX|52=20190630-23:13:13.983|56=pjseoane232|10=149|)
2019-06-30 20:13:42,978 : S toAdmin1>> (8=FIXT.1.1|9=59|35=0|34=44|49=pjseoane232|52=20190630-23:13:42.000|56=ROFX|10=126|)
2019-06-30 20:13:43,604 : R adm>> (8=FIXT.1.1|9=59|35=0|34=50|49=ROFX|52=20190630-23:13:43.983|56=pjseoane232|10=144|)
2019-06-30 20:14:13,001 : S toAdmin1>> (8=FIXT.1.1|9=59|35=0|34=45|49=pjseoane232|52=20190630-23:14:13.000|56=ROFX|10=126|)
2019-06-30 20:14:13,605 : R adm>> (8=FIXT.1.1|9=59|35=0|34=51|49=ROFX|52=20190630-23:14:13.983|56=pjseoane232|10=143|)
2019-06-30 20:14:43,015 : S toAdmin1>> (8=FIXT.1.1|9=59|35=0|34=46|49=pjseoane232|52=20190630-23:14:43.000|56=ROFX|10=130|)
2019-06-30 20:14:43,604 : R adm>> (8=FIXT.1.1|9=59|35=0|34=52|49=ROFX|52=20190630-23:14:43.983|56=pjseoane232|10=147|)
2019-06-30 20:15:13,035 : S toAdmin1>> (8=FIXT.1.1|9=59|35=0|34=47|49=pjseoane232|52=20190630-23:15:13.000|56=ROFX|10=129|)
2019-06-30 20:15:13,616 : R adm>> (8=FIXT.1.1|9=59|35=0|34=53|49=ROFX|52=20190630-23:15:13.983|56=pjseoane232|10=146|)
2019-06-30 20:15:43,049 : S toAdmin1>> (8=FIXT.1.1|9=59|35=0|34=48|49=pjseoane232|52=20190630-23:15:43.000|56=ROFX|10=133|)
2019-06-30 20:15:43,616 : R adm>> (8=FIXT.1.1|9=59|35=0|34=54|49=ROFX|52=20190630-23:15:43.983|56=pjseoane232|10=150|)
2019-06-30 20:16:13,071 : S toAdmin1>> (8=FIXT.1.1|9=59|35=0|34=49|49=pjseoane232|52=20190630-23:16:13.000|56=ROFX|10=132|)
2019-06-30 20:16:13,617 : R adm>> (8=FIXT.1.1|9=59|35=0|34=55|49=ROFX|52=20190630-23:16:13.983|56=pjseoane232|10=149|)
2019-06-30 20:16:43,089 : S toAdmin1>> (8=FIXT.1.1|9=59|35=0|34=50|49=pjseoane232|52=20190630-23:16:43.000|56=ROFX|10=127|)
2019-06-30 20:16:43,606 : R adm>> (8=FIXT.1.1|9=59|35=0|34=56|49=ROFX|52=20190630-23:16:43.983|56=pjseoane232|10=153|)
2019-06-30 20:17:13,107 : S toAdmin1>> (8=FIXT.1.1|9=59|35=0|34=51|49=pjseoane232|52=20190630-23:17:13.000|56=ROFX|10=126|)
2019-06-30 20:17:13,605 : R adm>> (8=FIXT.1.1|9=59|35=0|34=57|49=ROFX|52=20190630-23:17:13.983|56=pjseoane232|10=152|)
2019-06-30 20:17:43,139 : S toAdmin1>> (8=FIXT.1.1|9=59|35=0|34=52|49=pjseoane232|52=20190630-23:17:43.000|56=ROFX|10=130|)
2019-06-30 20:17:43,606 : R adm>> (8=FIXT.1.1|9=59|35=0|34=58|49=ROFX|52=20190630-23:17:43.983|56=pjseoane232|10=156|)
2019-06-30 20:18:13,160 : S toAdmin1>> (8=FIXT.1.1|9=59|35=0|34=53|49=pjseoane232|52=20190630-23:18:13.000|56=ROFX|10=129|)
2019-06-30 20:18:13,616 : R adm>> (8=FIXT.1.1|9=59|35=0|34=59|49=ROFX|52=20190630-23:18:13.983|56=pjseoane232|10=155|)
2019-06-30 20:18:43,180 : S toAdmin1>> (8=FIXT.1.1|9=59|35=0|34=54|49=pjseoane232|52=20190630-23:18:43.000|56=ROFX|10=133|)
2019-06-30 20:18:43,607 : R adm>> (8=FIXT.1.1|9=59|35=0|34=60|49=ROFX|52=20190630-23:18:43.983|56=pjseoane232|10=150|)
2019-06-30 20:19:13,193 : S toAdmin1>> (8=FIXT.1.1|9=59|35=0|34=55|49=pjseoane232|52=20190630-23:19:13.000|56=ROFX|10=132|)
2019-06-30 20:19:13,613 : R adm>> (8=FIXT.1.1|9=59|35=0|34=61|49=ROFX|52=20190630-23:19:13.983|56=pjseoane232|10=149|)
2019-06-30 20:19:43,213 : S toAdmin1>> (8=FIXT.1.1|9=59|35=0|34=56|49=pjseoane232|52=20190630-23:19:43.000|56=ROFX|10=136|)
2019-06-30 20:19:43,607 : R adm>> (8=FIXT.1.1|9=59|35=0|34=62|49=ROFX|52=20190630-23:19:43.983|56=pjseoane232|10=153|)
2019-06-30 20:20:13,231 : S toAdmin1>> (8=FIXT.1.1|9=59|35=0|34=57|49=pjseoane232|52=20190630-23:20:13.000|56=ROFX|10=126|)
2019-06-30 20:20:13,608 : R adm>> (8=FIXT.1.1|9=59|35=0|34=63|49=ROFX|52=20190630-23:20:13.983|56=pjseoane232|10=143|)
2019-06-30 20:20:43,249 : S toAdmin1>> (8=FIXT.1.1|9=59|35=0|34=58|49=pjseoane232|52=20190630-23:20:43.000|56=ROFX|10=130|)
2019-06-30 20:20:43,609 : R adm>> (8=FIXT.1.1|9=59|35=0|34=64|49=ROFX|52=20190630-23:20:43.983|56=pjseoane232|10=147|)
2019-06-30 20:21:13,267 : S toAdmin1>> (8=FIXT.1.1|9=59|35=0|34=59|49=pjseoane232|52=20190630-23:21:13.000|56=ROFX|10=129|)
2019-06-30 20:21:13,610 : R adm>> (8=FIXT.1.1|9=59|35=0|34=65|49=ROFX|52=20190630-23:21:13.983|56=pjseoane232|10=146|)
2019-06-30 20:21:43,284 : S toAdmin1>> (8=FIXT.1.1|9=59|35=0|34=60|49=pjseoane232|52=20190630-23:21:43.000|56=ROFX|10=124|)
2019-06-30 20:21:43,617 : R adm>> (8=FIXT.1.1|9=59|35=0|34=66|49=ROFX|52=20190630-23:21:43.983|56=pjseoane232|10=150|)
2019-06-30 20:22:13,306 : S toAdmin1>> (8=FIXT.1.1|9=59|35=0|34=61|49=pjseoane232|52=20190630-23:22:13.000|56=ROFX|10=123|)
2019-06-30 20:22:13,610 : R adm>> (8=FIXT.1.1|9=59|35=0|34=67|49=ROFX|52=20190630-23:22:13.983|56=pjseoane232|10=149|)
2019-06-30 20:22:43,332 : S toAdmin1>> (8=FIXT.1.1|9=59|35=0|34=62|49=pjseoane232|52=20190630-23:22:43.000|56=ROFX|10=127|)
2019-06-30 20:22:43,613 : R adm>> (8=FIXT.1.1|9=59|35=0|34=68|49=ROFX|52=20190630-23:22:43.983|56=pjseoane232|10=153|)
2019-06-30 20:23:13,351 : S toAdmin1>> (8=FIXT.1.1|9=59|35=0|34=63|49=pjseoane232|52=20190630-23:23:13.000|56=ROFX|10=126|)
2019-06-30 20:23:13,610 : R adm>> (8=FIXT.1.1|9=59|35=0|34=69|49=ROFX|52=20190630-23:23:13.983|56=pjseoane232|10=152|)
2019-06-30 20:23:43,373 : S toAdmin1>> (8=FIXT.1.1|9=59|35=0|34=64|49=pjseoane232|52=20190630-23:23:43.000|56=ROFX|10=130|)
2019-06-30 20:23:43,628 : R adm>> (8=FIXT.1.1|9=59|35=0|34=70|49=ROFX|52=20190630-23:23:43.983|56=pjseoane232|10=147|)
2019-06-30 20:24:13,391 : S toAdmin1>> (8=FIXT.1.1|9=59|35=0|34=65|49=pjseoane232|52=20190630-23:24:13.000|56=ROFX|10=129|)
2019-06-30 20:24:13,620 : R adm>> (8=FIXT.1.1|9=59|35=0|34=71|49=ROFX|52=20190630-23:24:13.983|56=pjseoane232|10=146|)
2019-06-30 20:24:43,416 : S toAdmin1>> (8=FIXT.1.1|9=59|35=0|34=66|49=pjseoane232|52=20190630-23:24:43.000|56=ROFX|10=133|)
2019-06-30 20:24:43,610 : R adm>> (8=FIXT.1.1|9=59|35=0|34=72|49=ROFX|52=20190630-23:24:43.982|56=pjseoane232|10=149|)
2019-06-30 20:25:13,437 : S toAdmin1>> (8=FIXT.1.1|9=59|35=0|34=67|49=pjseoane232|52=20190630-23:25:13.000|56=ROFX|10=132|)
2019-06-30 20:25:13,621 : R adm>> (8=FIXT.1.1|9=59|35=0|34=73|49=ROFX|52=20190630-23:25:13.983|56=pjseoane232|10=149|)
2019-06-30 20:25:43,463 : S toAdmin1>> (8=FIXT.1.1|9=59|35=0|34=68|49=pjseoane232|52=20190630-23:25:43.000|56=ROFX|10=136|)
2019-06-30 20:25:43,612 : R adm>> (8=FIXT.1.1|9=59|35=0|34=74|49=ROFX|52=20190630-23:25:43.983|56=pjseoane232|10=153|)
2019-06-30 20:26:13,480 : S toAdmin1>> (8=FIXT.1.1|9=59|35=0|34=69|49=pjseoane232|52=20190630-23:26:13.000|56=ROFX|10=135|)
2019-06-30 20:26:13,613 : R adm>> (8=FIXT.1.1|9=59|35=0|34=75|49=ROFX|52=20190630-23:26:13.983|56=pjseoane232|10=152|)
2019-06-30 20:26:43,503 : S toAdmin1>> (8=FIXT.1.1|9=59|35=0|34=70|49=pjseoane232|52=20190630-23:26:43.000|56=ROFX|10=130|)
2019-06-30 20:26:43,613 : R adm>> (8=FIXT.1.1|9=59|35=0|34=76|49=ROFX|52=20190630-23:26:43.983|56=pjseoane232|10=156|)
2019-06-30 20:27:13,523 : S toAdmin1>> (8=FIXT.1.1|9=59|35=0|34=71|49=pjseoane232|52=20190630-23:27:13.000|56=ROFX|10=129|)
2019-06-30 20:27:13,614 : R adm>> (8=FIXT.1.1|9=59|35=0|34=77|49=ROFX|52=20190630-23:27:13.983|56=pjseoane232|10=155|)
2019-06-30 20:27:43,546 : S toAdmin1>> (8=FIXT.1.1|9=59|35=0|34=72|49=pjseoane232|52=20190630-23:27:43.000|56=ROFX|10=133|)
2019-06-30 20:27:43,613 : R adm>> (8=FIXT.1.1|9=59|35=0|34=78|49=ROFX|52=20190630-23:27:43.983|56=pjseoane232|10=159|)
2019-06-30 20:28:13,567 : S toAdmin1>> (8=FIXT.1.1|9=59|35=0|34=73|49=pjseoane232|52=20190630-23:28:13.000|56=ROFX|10=132|)
2019-06-30 20:28:13,614 : R adm>> (8=FIXT.1.1|9=59|35=0|34=79|49=ROFX|52=20190630-23:28:13.983|56=pjseoane232|10=158|)
2019-06-30 20:28:43,583 : S toAdmin1>> (8=FIXT.1.1|9=59|35=0|34=74|49=pjseoane232|52=20190630-23:28:43.000|56=ROFX|10=136|)
2019-06-30 20:28:43,613 : R adm>> (8=FIXT.1.1|9=59|35=0|34=80|49=ROFX|52=20190630-23:28:43.983|56=pjseoane232|10=153|)
2019-06-30 20:29:13,604 : S toAdmin1>> (8=FIXT.1.1|9=59|35=0|34=75|49=pjseoane232|52=20190630-23:29:13.000|56=ROFX|10=135|)
2019-06-30 20:29:13,614 : R adm>> (8=FIXT.1.1|9=59|35=0|34=81|49=ROFX|52=20190630-23:29:13.983|56=pjseoane232|10=152|)
2019-06-30 20:29:43,617 : R adm>> (8=FIXT.1.1|9=59|35=0|34=82|49=ROFX|52=20190630-23:29:43.983|56=pjseoane232|10=156|)
2019-06-30 20:29:43,617 : S toAdmin1>> (8=FIXT.1.1|9=59|35=0|34=76|49=pjseoane232|52=20190630-23:29:43.000|56=ROFX|10=139|)
2019-06-30 20:30:13,618 : R adm>> (8=FIXT.1.1|9=59|35=0|34=83|49=ROFX|52=20190630-23:30:13.983|56=pjseoane232|10=146|)
2019-06-30 20:30:13,618 : S toAdmin1>> (8=FIXT.1.1|9=59|35=0|34=77|49=pjseoane232|52=20190630-23:30:13.000|56=ROFX|10=129|)
2019-06-30 20:30:43,628 : R adm>> (8=FIXT.1.1|9=59|35=0|34=84|49=ROFX|52=20190630-23:30:43.983|56=pjseoane232|10=150|)
2019-06-30 20:30:43,629 : S toAdmin1>> (8=FIXT.1.1|9=59|35=0|34=78|49=pjseoane232|52=20190630-23:30:43.000|56=ROFX|10=133|)
2019-06-30 20:31:13,628 : R adm>> (8=FIXT.1.1|9=59|35=0|34=85|49=ROFX|52=20190630-23:31:13.983|56=pjseoane232|10=149|)
2019-06-30 20:31:13,631 : S toAdmin1>> (8=FIXT.1.1|9=59|35=0|34=79|49=pjseoane232|52=20190630-23:31:13.000|56=ROFX|10=132|)
2019-06-30 20:31:43,622 : R adm>> (8=FIXT.1.1|9=59|35=0|34=86|49=ROFX|52=20190630-23:31:43.983|56=pjseoane232|10=153|)
2019-06-30 20:31:43,623 : S toAdmin1>> (8=FIXT.1.1|9=59|35=0|34=80|49=pjseoane232|52=20190630-23:31:43.000|56=ROFX|10=127|)
2019-06-30 20:32:13,630 : R adm>> (8=FIXT.1.1|9=59|35=0|34=87|49=ROFX|52=20190630-23:32:13.983|56=pjseoane232|10=152|)
2019-06-30 20:32:13,630 : S toAdmin1>> (8=FIXT.1.1|9=59|35=0|34=81|49=pjseoane232|52=20190630-23:32:13.000|56=ROFX|10=126|)
2019-06-30 20:32:43,617 : R adm>> (8=FIXT.1.1|9=59|35=0|34=88|49=ROFX|52=20190630-23:32:43.983|56=pjseoane232|10=156|)
2019-06-30 20:32:43,618 : S toAdmin1>> (8=FIXT.1.1|9=59|35=0|34=82|49=pjseoane232|52=20190630-23:32:43.000|56=ROFX|10=130|)
2019-06-30 20:33:13,619 : R adm>> (8=FIXT.1.1|9=59|35=0|34=89|49=ROFX|52=20190630-23:33:13.983|56=pjseoane232|10=155|)
2019-06-30 20:33:13,619 : S toAdmin1>> (8=FIXT.1.1|9=59|35=0|34=83|49=pjseoane232|52=20190630-23:33:13.000|56=ROFX|10=129|)
2019-06-30 20:33:43,617 : R adm>> (8=FIXT.1.1|9=59|35=0|34=90|49=ROFX|52=20190630-23:33:43.983|56=pjseoane232|10=150|)
2019-06-30 20:33:43,619 : S toAdmin1>> (8=FIXT.1.1|9=59|35=0|34=84|49=pjseoane232|52=20190630-23:33:43.000|56=ROFX|10=133|)
2019-06-30 20:34:13,619 : R adm>> (8=FIXT.1.1|9=59|35=0|34=91|49=ROFX|52=20190630-23:34:13.983|56=pjseoane232|10=149|)
2019-06-30 20:34:13,619 : S toAdmin1>> (8=FIXT.1.1|9=59|35=0|34=85|49=pjseoane232|52=20190630-23:34:13.000|56=ROFX|10=132|)
2019-06-30 20:34:43,618 : R adm>> (8=FIXT.1.1|9=59|35=0|34=92|49=ROFX|52=20190630-23:34:43.983|56=pjseoane232|10=153|)
2019-06-30 20:34:43,619 : S toAdmin1>> (8=FIXT.1.1|9=59|35=0|34=86|49=pjseoane232|52=20190630-23:34:43.000|56=ROFX|10=136|)
2019-06-30 20:35:13,618 : R adm>> (8=FIXT.1.1|9=59|35=0|34=93|49=ROFX|52=20190630-23:35:13.983|56=pjseoane232|10=152|)
2019-06-30 20:35:13,620 : S toAdmin1>> (8=FIXT.1.1|9=59|35=0|34=87|49=pjseoane232|52=20190630-23:35:13.000|56=ROFX|10=135|)
2019-06-30 20:35:43,620 : R adm>> (8=FIXT.1.1|9=59|35=0|34=94|49=ROFX|52=20190630-23:35:43.983|56=pjseoane232|10=156|)
2019-06-30 20:35:43,621 : S toAdmin1>> (8=FIXT.1.1|9=59|35=0|34=88|49=pjseoane232|52=20190630-23:35:43.000|56=ROFX|10=139|)
2019-06-30 20:36:13,619 : R adm>> (8=FIXT.1.1|9=59|35=0|34=95|49=ROFX|52=20190630-23:36:13.983|56=pjseoane232|10=155|)
2019-06-30 20:36:13,619 : S toAdmin1>> (8=FIXT.1.1|9=59|35=0|34=89|49=pjseoane232|52=20190630-23:36:13.000|56=ROFX|10=138|)
2019-06-30 20:36:43,619 : R adm>> (8=FIXT.1.1|9=59|35=0|34=96|49=ROFX|52=20190630-23:36:43.983|56=pjseoane232|10=159|)
2019-06-30 20:36:43,619 : S toAdmin1>> (8=FIXT.1.1|9=59|35=0|34=90|49=pjseoane232|52=20190630-23:36:43.000|56=ROFX|10=133|)
2019-06-30 20:37:13,620 : R adm>> (8=FIXT.1.1|9=59|35=0|34=97|49=ROFX|52=20190630-23:37:13.983|56=pjseoane232|10=158|)
2019-06-30 20:37:13,620 : S toAdmin1>> (8=FIXT.1.1|9=59|35=0|34=91|49=pjseoane232|52=20190630-23:37:13.000|56=ROFX|10=132|)
2019-06-30 20:37:43,620 : R adm>> (8=FIXT.1.1|9=59|35=0|34=98|49=ROFX|52=20190630-23:37:43.983|56=pjseoane232|10=162|)
2019-06-30 20:37:43,620 : S toAdmin1>> (8=FIXT.1.1|9=59|35=0|34=92|49=pjseoane232|52=20190630-23:37:43.000|56=ROFX|10=136|)
2019-06-30 20:38:13,621 : R adm>> (8=FIXT.1.1|9=59|35=0|34=99|49=ROFX|52=20190630-23:38:13.983|56=pjseoane232|10=161|)
2019-06-30 20:38:13,621 : S toAdmin1>> (8=FIXT.1.1|9=59|35=0|34=93|49=pjseoane232|52=20190630-23:38:13.000|56=ROFX|10=135|)
2019-06-30 20:38:43,626 : R adm>> (8=FIXT.1.1|9=60|35=0|34=100|49=ROFX|52=20190630-23:38:43.983|56=pjseoane232|10=187|)
2019-06-30 20:38:43,627 : S toAdmin1>> (8=FIXT.1.1|9=59|35=0|34=94|49=pjseoane232|52=20190630-23:38:43.000|56=ROFX|10=139|)
2019-06-30 20:39:13,620 : R adm>> (8=FIXT.1.1|9=60|35=0|34=101|49=ROFX|52=20190630-23:39:13.983|56=pjseoane232|10=186|)
2019-06-30 20:39:13,620 : S toAdmin1>> (8=FIXT.1.1|9=59|35=0|34=95|49=pjseoane232|52=20190630-23:39:13.000|56=ROFX|10=138|)
2019-06-30 20:39:43,623 : R adm>> (8=FIXT.1.1|9=60|35=0|34=102|49=ROFX|52=20190630-23:39:43.983|56=pjseoane232|10=190|)
2019-06-30 20:39:43,624 : S toAdmin1>> (8=FIXT.1.1|9=59|35=0|34=96|49=pjseoane232|52=20190630-23:39:43.000|56=ROFX|10=142|)
2019-06-30 20:40:13,624 : R adm>> (8=FIXT.1.1|9=60|35=0|34=103|49=ROFX|52=20190630-23:40:13.983|56=pjseoane232|10=180|)
2019-06-30 20:40:13,624 : S toAdmin1>> (8=FIXT.1.1|9=59|35=0|34=97|49=pjseoane232|52=20190630-23:40:13.000|56=ROFX|10=132|)
2019-06-30 20:40:43,623 : R adm>> (8=FIXT.1.1|9=60|35=0|34=104|49=ROFX|52=20190630-23:40:43.983|56=pjseoane232|10=184|)
2019-06-30 20:40:43,623 : S toAdmin1>> (8=FIXT.1.1|9=59|35=0|34=98|49=pjseoane232|52=20190630-23:40:43.000|56=ROFX|10=136|)
2019-06-30 20:41:13,622 : R adm>> (8=FIXT.1.1|9=60|35=0|34=105|49=ROFX|52=20190630-23:41:13.983|56=pjseoane232|10=183|)
2019-06-30 20:41:13,622 : S toAdmin1>> (8=FIXT.1.1|9=59|35=0|34=99|49=pjseoane232|52=20190630-23:41:13.000|56=ROFX|10=135|)
2019-06-30 20:41:43,622 : R adm>> (8=FIXT.1.1|9=60|35=0|34=106|49=ROFX|52=20190630-23:41:43.983|56=pjseoane232|10=187|)
2019-06-30 20:41:43,623 : S toAdmin1>> (8=FIXT.1.1|9=60|35=0|34=100|49=pjseoane232|52=20190630-23:41:43.000|56=ROFX|10=161|)
2019-06-30 20:42:13,004 : S toAdmin1>> (8=FIXT.1.1|9=60|35=0|34=101|49=pjseoane232|52=20190630-23:42:13.000|56=ROFX|10=160|)
2019-06-30 20:42:13,623 : R adm>> (8=FIXT.1.1|9=60|35=0|34=107|49=ROFX|52=20190630-23:42:13.983|56=pjseoane232|10=186|)
2019-06-30 20:42:43,024 : S toAdmin1>> (8=FIXT.1.1|9=60|35=0|34=102|49=pjseoane232|52=20190630-23:42:43.000|56=ROFX|10=164|)
2019-06-30 20:42:43,628 : R adm>> (8=FIXT.1.1|9=60|35=0|34=108|49=ROFX|52=20190630-23:42:43.983|56=pjseoane232|10=190|)
2019-06-30 20:43:13,043 : S toAdmin1>> (8=FIXT.1.1|9=60|35=0|34=103|49=pjseoane232|52=20190630-23:43:13.000|56=ROFX|10=163|)
2019-06-30 20:43:13,626 : R adm>> (8=FIXT.1.1|9=60|35=0|34=109|49=ROFX|52=20190630-23:43:13.983|56=pjseoane232|10=189|)
2019-06-30 20:43:43,059 : S toAdmin1>> (8=FIXT.1.1|9=60|35=0|34=104|49=pjseoane232|52=20190630-23:43:43.000|56=ROFX|10=167|)
2019-06-30 20:43:43,628 : R adm>> (8=FIXT.1.1|9=60|35=0|34=110|49=ROFX|52=20190630-23:43:43.983|56=pjseoane232|10=184|)
2019-06-30 20:44:13,076 : S toAdmin1>> (8=FIXT.1.1|9=60|35=0|34=105|49=pjseoane232|52=20190630-23:44:13.000|56=ROFX|10=166|)
2019-06-30 20:44:13,626 : R adm>> (8=FIXT.1.1|9=60|35=0|34=111|49=ROFX|52=20190630-23:44:13.983|56=pjseoane232|10=183|)
2019-06-30 20:44:43,090 : S toAdmin1>> (8=FIXT.1.1|9=60|35=0|34=106|49=pjseoane232|52=20190630-23:44:43.000|56=ROFX|10=170|)
2019-06-30 20:44:43,629 : R adm>> (8=FIXT.1.1|9=60|35=0|34=112|49=ROFX|52=20190630-23:44:43.983|56=pjseoane232|10=187|)
2019-06-30 20:45:13,108 : S toAdmin1>> (8=FIXT.1.1|9=60|35=0|34=107|49=pjseoane232|52=20190630-23:45:13.000|56=ROFX|10=169|)
2019-06-30 20:45:13,626 : R adm>> (8=FIXT.1.1|9=60|35=0|34=113|49=ROFX|52=20190630-23:45:13.983|56=pjseoane232|10=186|)
2019-06-30 20:45:43,130 : S toAdmin1>> (8=FIXT.1.1|9=60|35=0|34=108|49=pjseoane232|52=20190630-23:45:43.000|56=ROFX|10=173|)
2019-06-30 20:45:43,630 : R adm>> (8=FIXT.1.1|9=60|35=0|34=114|49=ROFX|52=20190630-23:45:43.983|56=pjseoane232|10=190|)
2019-06-30 20:46:13,149 : S toAdmin1>> (8=FIXT.1.1|9=60|35=0|34=109|49=pjseoane232|52=20190630-23:46:13.000|56=ROFX|10=172|)
2019-06-30 20:46:13,630 : R adm>> (8=FIXT.1.1|9=60|35=0|34=115|49=ROFX|52=20190630-23:46:13.983|56=pjseoane232|10=189|)
2019-06-30 20:46:43,165 : S toAdmin1>> (8=FIXT.1.1|9=60|35=0|34=110|49=pjseoane232|52=20190630-23:46:43.000|56=ROFX|10=167|)
2019-06-30 20:46:43,626 : R adm>> (8=FIXT.1.1|9=60|35=0|34=116|49=ROFX|52=20190630-23:46:43.983|56=pjseoane232|10=193|)
2019-06-30 20:47:13,181 : S toAdmin1>> (8=FIXT.1.1|9=60|35=0|34=111|49=pjseoane232|52=20190630-23:47:13.000|56=ROFX|10=166|)
2019-06-30 20:47:13,629 : R adm>> (8=FIXT.1.1|9=60|35=0|34=117|49=ROFX|52=20190630-23:47:13.983|56=pjseoane232|10=192|)
2019-06-30 20:47:43,198 : S toAdmin1>> (8=FIXT.1.1|9=60|35=0|34=112|49=pjseoane232|52=20190630-23:47:43.000|56=ROFX|10=170|)
2019-06-30 20:47:43,627 : R adm>> (8=FIXT.1.1|9=60|35=0|34=118|49=ROFX|52=20190630-23:47:43.983|56=pjseoane232|10=196|)
2019-06-30 20:48:13,215 : S toAdmin1>> (8=FIXT.1.1|9=60|35=0|34=113|49=pjseoane232|52=20190630-23:48:13.000|56=ROFX|10=169|)
2019-06-30 20:48:13,627 : R adm>> (8=FIXT.1.1|9=60|35=0|34=119|49=ROFX|52=20190630-23:48:13.983|56=pjseoane232|10=195|)
2019-06-30 20:48:43,232 : S toAdmin1>> (8=FIXT.1.1|9=60|35=0|34=114|49=pjseoane232|52=20190630-23:48:43.000|56=ROFX|10=173|)
2019-06-30 20:48:43,627 : R adm>> (8=FIXT.1.1|9=60|35=0|34=120|49=ROFX|52=20190630-23:48:43.983|56=pjseoane232|10=190|)
2019-06-30 20:49:13,251 : S toAdmin1>> (8=FIXT.1.1|9=60|35=0|34=115|49=pjseoane232|52=20190630-23:49:13.000|56=ROFX|10=172|)
2019-06-30 20:49:13,628 : R adm>> (8=FIXT.1.1|9=60|35=0|34=121|49=ROFX|52=20190630-23:49:13.983|56=pjseoane232|10=189|)
2019-06-30 20:49:43,267 : S toAdmin1>> (8=FIXT.1.1|9=60|35=0|34=116|49=pjseoane232|52=20190630-23:49:43.000|56=ROFX|10=176|)
2019-06-30 20:49:43,629 : R adm>> (8=FIXT.1.1|9=60|35=0|34=122|49=ROFX|52=20190630-23:49:43.983|56=pjseoane232|10=193|)
2019-06-30 20:50:13,286 : S toAdmin1>> (8=FIXT.1.1|9=60|35=0|34=117|49=pjseoane232|52=20190630-23:50:13.000|56=ROFX|10=166|)
2019-06-30 20:50:13,629 : R adm>> (8=FIXT.1.1|9=60|35=0|34=123|49=ROFX|52=20190630-23:50:13.983|56=pjseoane232|10=183|)
2019-06-30 20:50:43,303 : S toAdmin1>> (8=FIXT.1.1|9=60|35=0|34=118|49=pjseoane232|52=20190630-23:50:43.000|56=ROFX|10=170|)
2019-06-30 20:50:43,629 : R adm>> (8=FIXT.1.1|9=60|35=0|34=124|49=ROFX|52=20190630-23:50:43.983|56=pjseoane232|10=187|)
2019-06-30 20:51:13,321 : S toAdmin1>> (8=FIXT.1.1|9=60|35=0|34=119|49=pjseoane232|52=20190630-23:51:13.000|56=ROFX|10=169|)
2019-06-30 20:51:13,638 : R adm>> (8=FIXT.1.1|9=60|35=0|34=125|49=ROFX|52=20190630-23:51:13.983|56=pjseoane232|10=186|)
2019-06-30 20:51:43,339 : S toAdmin1>> (8=FIXT.1.1|9=60|35=0|34=120|49=pjseoane232|52=20190630-23:51:43.000|56=ROFX|10=164|)
2019-06-30 20:51:43,629 : R adm>> (8=FIXT.1.1|9=60|35=0|34=126|49=ROFX|52=20190630-23:51:43.983|56=pjseoane232|10=190|)
2019-06-30 20:52:13,364 : S toAdmin1>> (8=FIXT.1.1|9=60|35=0|34=121|49=pjseoane232|52=20190630-23:52:13.000|56=ROFX|10=163|)
2019-06-30 20:52:13,630 : R adm>> (8=FIXT.1.1|9=60|35=0|34=127|49=ROFX|52=20190630-23:52:13.983|56=pjseoane232|10=189|)
2019-06-30 20:52:43,381 : S toAdmin1>> (8=FIXT.1.1|9=60|35=0|34=122|49=pjseoane232|52=20190630-23:52:43.000|56=ROFX|10=167|)
2019-06-30 20:52:43,630 : R adm>> (8=FIXT.1.1|9=60|35=0|34=128|49=ROFX|52=20190630-23:52:43.983|56=pjseoane232|10=193|)
2019-06-30 20:53:13,396 : S toAdmin1>> (8=FIXT.1.1|9=60|35=0|34=123|49=pjseoane232|52=20190630-23:53:13.000|56=ROFX|10=166|)
2019-06-30 20:53:13,632 : R adm>> (8=FIXT.1.1|9=60|35=0|34=129|49=ROFX|52=20190630-23:53:13.983|56=pjseoane232|10=192|)
2019-06-30 20:53:43,408 : S toAdmin1>> (8=FIXT.1.1|9=60|35=0|34=124|49=pjseoane232|52=20190630-23:53:43.000|56=ROFX|10=170|)
2019-06-30 20:53:43,633 : R adm>> (8=FIXT.1.1|9=60|35=0|34=130|49=ROFX|52=20190630-23:53:43.983|56=pjseoane232|10=187|)
2019-06-30 20:54:13,427 : S toAdmin1>> (8=FIXT.1.1|9=60|35=0|34=125|49=pjseoane232|52=20190630-23:54:13.000|56=ROFX|10=169|)
2019-06-30 20:54:13,632 : R adm>> (8=FIXT.1.1|9=60|35=0|34=131|49=ROFX|52=20190630-23:54:13.983|56=pjseoane232|10=186|)
2019-06-30 20:54:43,445 : S toAdmin1>> (8=FIXT.1.1|9=60|35=0|34=126|49=pjseoane232|52=20190630-23:54:43.000|56=ROFX|10=173|)
2019-06-30 20:54:43,632 : R adm>> (8=FIXT.1.1|9=60|35=0|34=132|49=ROFX|52=20190630-23:54:43.983|56=pjseoane232|10=190|)
2019-06-30 20:55:13,461 : S toAdmin1>> (8=FIXT.1.1|9=60|35=0|34=127|49=pjseoane232|52=20190630-23:55:13.000|56=ROFX|10=172|)
2019-06-30 20:55:13,635 : R adm>> (8=FIXT.1.1|9=60|35=0|34=133|49=ROFX|52=20190630-23:55:13.983|56=pjseoane232|10=189|)
2019-06-30 20:55:43,481 : S toAdmin1>> (8=FIXT.1.1|9=60|35=0|34=128|49=pjseoane232|52=20190630-23:55:43.000|56=ROFX|10=176|)
2019-06-30 20:55:43,633 : R adm>> (8=FIXT.1.1|9=60|35=0|34=134|49=ROFX|52=20190630-23:55:43.983|56=pjseoane232|10=193|)
2019-06-30 20:56:13,498 : S toAdmin1>> (8=FIXT.1.1|9=60|35=0|34=129|49=pjseoane232|52=20190630-23:56:13.000|56=ROFX|10=175|)
2019-06-30 20:56:13,637 : R adm>> (8=FIXT.1.1|9=60|35=0|34=135|49=ROFX|52=20190630-23:56:13.983|56=pjseoane232|10=192|)
2019-06-30 20:56:43,516 : S toAdmin1>> (8=FIXT.1.1|9=60|35=0|34=130|49=pjseoane232|52=20190630-23:56:43.000|56=ROFX|10=170|)
2019-06-30 20:56:43,634 : R adm>> (8=FIXT.1.1|9=60|35=0|34=136|49=ROFX|52=20190630-23:56:43.983|56=pjseoane232|10=196|)
2019-06-30 20:57:13,532 : S toAdmin1>> (8=FIXT.1.1|9=60|35=0|34=131|49=pjseoane232|52=20190630-23:57:13.000|56=ROFX|10=169|)
2019-06-30 20:57:13,635 : R adm>> (8=FIXT.1.1|9=60|35=0|34=137|49=ROFX|52=20190630-23:57:13.983|56=pjseoane232|10=195|)
2019-06-30 20:57:43,547 : S toAdmin1>> (8=FIXT.1.1|9=60|35=0|34=132|49=pjseoane232|52=20190630-23:57:43.000|56=ROFX|10=173|)
2019-06-30 20:57:43,635 : R adm>> (8=FIXT.1.1|9=60|35=0|34=138|49=ROFX|52=20190630-23:57:43.983|56=pjseoane232|10=199|)
2019-06-30 20:58:13,565 : S toAdmin1>> (8=FIXT.1.1|9=60|35=0|34=133|49=pjseoane232|52=20190630-23:58:13.000|56=ROFX|10=172|)
2019-06-30 20:58:13,635 : R adm>> (8=FIXT.1.1|9=60|35=0|34=139|49=ROFX|52=20190630-23:58:13.983|56=pjseoane232|10=198|)
2019-06-30 20:58:43,580 : S toAdmin1>> (8=FIXT.1.1|9=60|35=0|34=134|49=pjseoane232|52=20190630-23:58:43.000|56=ROFX|10=176|)
2019-06-30 20:58:44,946 : R adm>> (8=FIXT.1.1|9=60|35=0|34=140|49=ROFX|52=20190630-23:58:43.983|56=pjseoane232|10=193|)
2019-06-30 20:59:13,595 : S toAdmin1>> (8=FIXT.1.1|9=60|35=0|34=135|49=pjseoane232|52=20190630-23:59:13.000|56=ROFX|10=175|)
2019-06-30 20:59:13,761 : R adm>> (8=FIXT.1.1|9=60|35=0|34=141|49=ROFX|52=20190630-23:59:13.983|56=pjseoane232|10=192|)
2019-06-30 20:59:43,612 : S toAdmin1>> (8=FIXT.1.1|9=60|35=0|34=136|49=pjseoane232|52=20190630-23:59:43.000|56=ROFX|10=179|)
2019-06-30 20:59:43,879 : R adm>> (8=FIXT.1.1|9=60|35=0|34=142|49=ROFX|52=20190630-23:59:43.983|56=pjseoane232|10=196|)
2019-06-30 21:00:00,947 : R adm>> (8=FIXT.1.1|9=67|35=5|34=143|49=ROFX|52=20190701-00:00:01.081|56=pjseoane232|1128=9|10=239|)
2019-06-30 21:00:00,950 : S toAdmin1>> (8=FIXT.1.1|9=60|35=5|34=137|49=pjseoane232|52=20190701-00:00:00.000|56=ROFX|10=158|)
2019-06-30 21:00:00,971 : onLogout, bye Rofex >> (FIXT.1.1:pjseoane232->ROFX)
2019-06-30 21:00:00,983 : S toAdmin1>> (8=FIXT.1.1|9=83|35=A|34=1|49=pjseoane232|52=20190701-00:00:00.000|56=ROFX|98=0|108=30|141=Y|1137=9|10=206|)
2019-06-30 21:00:00,984 : S Logon>> (8=FIXT.1.1|9=112|35=A|34=1|49=pjseoane232|52=20190701-00:00:00.000|56=ROFX|553=pjseoane232|554=AiZkiC5#|98=0|108=30|141=Y|1137=9|10=013|)
2019-06-30 21:00:00,990 : onLogout, bye Rofex >> (FIXT.1.1:pjseoane232->ROFX)
2019-06-30 21:42:01,832 : S toAdmin1>> (8=FIXT.1.1|9=83|35=A|34=1|49=pjseoane232|52=20190701-00:42:01.000|56=ROFX|98=0|108=30|141=Y|1137=9|10=213|)
2019-06-30 21:42:01,833 : S Logon>> (8=FIXT.1.1|9=112|35=A|34=1|49=pjseoane232|52=20190701-00:42:01.000|56=ROFX|553=pjseoane232|554=AiZkiC5#|98=0|108=30|141=Y|1137=9|10=020|)
2019-06-30 21:42:01,893 : onLogout, bye Rofex >> (FIXT.1.1:pjseoane232->ROFX)
2019-06-30 21:43:01,607 : S toAdmin1>> (8=FIXT.1.1|9=83|35=A|34=1|49=pjseoane232|52=20190701-00:43:01.000|56=ROFX|98=0|108=30|141=Y|1137=9|10=214|)
2019-06-30 21:43:01,607 : S Logon>> (8=FIXT.1.1|9=112|35=A|34=1|49=pjseoane232|52=20190701-00:43:01.000|56=ROFX|553=pjseoane232|554=AiZkiC5#|98=0|108=30|141=Y|1137=9|10=021|)
2019-06-30 21:43:07,272 : R adm>> (8=FIXT.1.1|9=83|35=A|34=1|49=ROFX|52=20190701-00:43:07.411|56=pjseoane232|98=0|108=30|141=Y|1137=9|10=226|)
2019-06-30 21:43:07,273 : onLogon, Hello Rofex: >> (FIXT.1.1:pjseoane232->ROFX)
2019-06-30 21:43:07,297 : S toApp>> (8=FIXT.1.1|9=83|35=z|34=2|49=pjseoane232|52=20190701-00:43:07.000|56=ROFX|320=ListaContratos|559=4|10=047|)
2019-06-30 21:43:07,743 : onMessage, R app>> (8=FIXT.1.1|9=108|35=h|34=2|49=ROFX|52=20190701-00:43:07.955|56=pjseoane232|325=Y|335=NONE|336=[N/A]|340=2|1300=DDA|1301=ROFX|10=090|)
2019-06-30 21:43:07,744 : onMessage, R app>> (8=FIXT.1.1|9=108|35=h|34=3|49=ROFX|52=20190701-00:43:07.955|56=pjseoane232|325=Y|335=NONE|336=[N/A]|340=2|1300=DDF|1301=ROFX|10=096|)
2019-06-30 21:43:07,745 : onMessage, R app>> (8=FIXT.1.1|9=109|35=h|34=4|49=ROFX|52=20190701-00:43:07.955|56=pjseoane232|325=Y|335=NONE|336=[N/A]|340=2|1300=DUAL|1301=ROFX|10=186|)
2019-06-30 21:43:07,745 : onMessage, R app>> (8=FIXT.1.1|9=109|35=h|34=5|49=ROFX|52=20190701-00:43:07.955|56=pjseoane232|325=Y|335=NONE|336=[N/A]|340=2|1300=MERV|1301=ROFX|10=207|)
2019-06-30 21:43:08,265 : onMessage, R app>> (8=FIXT.1.1|9=122|35=h|34=6|49=ROFX|52=20190701-00:43:07.955|56=pjseoane232|58=EXTERNAL|325=Y|335=NONE|336=[N/A]|340=2|1300=MATBA|1301=ROFX|10=004|)
2019-06-30 21:43:08,265 : onMessage, R app>> (8=FIXT.1.1|9=109|35=h|34=7|49=ROFX|52=20190701-00:43:07.956|56=pjseoane232|325=Y|335=NONE|336=[N/A]|340=2|1300=RFXI|1301=ROFX|10=209|)
2019-06-30 21:43:08,266 : onMessage, R app>> (8=FIXT.1.1|9=112|35=h|34=8|49=ROFX|52=20190701-00:43:08.477|56=pjseoane232|325=Y|335=NONE|336=1|340=0|625=1|1300=[N/A]|1301=ROFX|10=205|)
2019-06-30 21:43:37,621 : S toAdmin1>> (8=FIXT.1.1|9=58|35=0|34=3|49=pjseoane232|52=20190701-00:43:37.000|56=ROFX|10=073|)
2019-06-30 21:43:39,124 : R adm>> (8=FIXT.1.1|9=58|35=0|34=9|49=ROFX|52=20190701-00:43:38.983|56=pjseoane232|10=100|)
2019-06-30 21:44:07,639 : S toAdmin1>> (8=FIXT.1.1|9=58|35=0|34=4|49=pjseoane232|52=20190701-00:44:07.000|56=ROFX|10=072|)
2019-06-30 21:44:09,510 : R adm>> (8=FIXT.1.1|9=59|35=0|34=10|49=ROFX|52=20190701-00:44:08.983|56=pjseoane232|10=139|)
2019-06-30 21:44:37,655 : S toAdmin1>> (8=FIXT.1.1|9=58|35=0|34=5|49=pjseoane232|52=20190701-00:44:37.000|56=ROFX|10=076|)
2019-06-30 21:44:38,625 : R adm>> (8=FIXT.1.1|9=59|35=0|34=11|49=ROFX|52=20190701-00:44:38.983|56=pjseoane232|10=143|)
2019-06-30 21:45:07,672 : S toAdmin1>> (8=FIXT.1.1|9=58|35=0|34=6|49=pjseoane232|52=20190701-00:45:07.000|56=ROFX|10=075|)
2019-06-30 21:45:08,746 : R adm>> (8=FIXT.1.1|9=59|35=0|34=12|49=ROFX|52=20190701-00:45:08.983|56=pjseoane232|10=142|)
2019-06-30 21:45:37,691 : S toAdmin1>> (8=FIXT.1.1|9=58|35=0|34=7|49=pjseoane232|52=20190701-00:45:37.000|56=ROFX|10=079|)
2019-06-30 21:45:38,618 : R adm>> (8=FIXT.1.1|9=59|35=0|34=13|49=ROFX|52=20190701-00:45:38.983|56=pjseoane232|10=146|)
2019-06-30 21:46:07,714 : S toAdmin1>> (8=FIXT.1.1|9=58|35=0|34=8|49=pjseoane232|52=20190701-00:46:07.000|56=ROFX|10=078|)
2019-06-30 21:46:08,623 : R adm>> (8=FIXT.1.1|9=59|35=0|34=14|49=ROFX|52=20190701-00:46:08.983|56=pjseoane232|10=145|)
2019-06-30 21:46:37,728 : S toAdmin1>> (8=FIXT.1.1|9=58|35=0|34=9|49=pjseoane232|52=20190701-00:46:37.000|56=ROFX|10=082|)
2019-06-30 21:46:38,621 : R adm>> (8=FIXT.1.1|9=59|35=0|34=15|49=ROFX|52=20190701-00:46:38.983|56=pjseoane232|10=149|)
2019-06-30 21:47:07,748 : S toAdmin1>> (8=FIXT.1.1|9=59|35=0|34=10|49=pjseoane232|52=20190701-00:47:07.000|56=ROFX|10=121|)
2019-06-30 21:47:08,620 : R adm>> (8=FIXT.1.1|9=59|35=0|34=16|49=ROFX|52=20190701-00:47:08.983|56=pjseoane232|10=148|)
2019-06-30 21:47:37,766 : S toAdmin1>> (8=FIXT.1.1|9=59|35=0|34=11|49=pjseoane232|52=20190701-00:47:37.000|56=ROFX|10=125|)
2019-06-30 21:47:38,624 : R adm>> (8=FIXT.1.1|9=59|35=0|34=17|49=ROFX|52=20190701-00:47:38.983|56=pjseoane232|10=152|)
2019-06-30 21:48:07,782 : S toAdmin1>> (8=FIXT.1.1|9=59|35=0|34=12|49=pjseoane232|52=20190701-00:48:07.000|56=ROFX|10=124|)
2019-06-30 21:48:08,620 : R adm>> (8=FIXT.1.1|9=59|35=0|34=18|49=ROFX|52=20190701-00:48:08.983|56=pjseoane232|10=151|)
2019-06-30 21:48:37,799 : S toAdmin1>> (8=FIXT.1.1|9=59|35=0|34=13|49=pjseoane232|52=20190701-00:48:37.000|56=ROFX|10=128|)
2019-06-30 21:48:38,625 : R adm>> (8=FIXT.1.1|9=59|35=0|34=19|49=ROFX|52=20190701-00:48:38.983|56=pjseoane232|10=155|)
2019-06-30 21:49:07,816 : S toAdmin1>> (8=FIXT.1.1|9=59|35=0|34=14|49=pjseoane232|52=20190701-00:49:07.000|56=ROFX|10=127|)
2019-06-30 21:49:08,625 : R adm>> (8=FIXT.1.1|9=59|35=0|34=20|49=ROFX|52=20190701-00:49:08.983|56=pjseoane232|10=145|)
2019-06-30 21:49:37,831 : S toAdmin1>> (8=FIXT.1.1|9=59|35=0|34=15|49=pjseoane232|52=20190701-00:49:37.000|56=ROFX|10=131|)
2019-06-30 21:49:38,621 : R adm>> (8=FIXT.1.1|9=59|35=0|34=21|49=ROFX|52=20190701-00:49:38.983|56=pjseoane232|10=149|)
2019-06-30 21:50:07,849 : S toAdmin1>> (8=FIXT.1.1|9=59|35=0|34=16|49=pjseoane232|52=20190701-00:50:07.000|56=ROFX|10=121|)
2019-06-30 21:50:08,622 : R adm>> (8=FIXT.1.1|9=59|35=0|34=22|49=ROFX|52=20190701-00:50:08.983|56=pjseoane232|10=139|)
2019-06-30 21:50:37,864 : S toAdmin1>> (8=FIXT.1.1|9=59|35=0|34=17|49=pjseoane232|52=20190701-00:50:37.000|56=ROFX|10=125|)
2019-06-30 21:50:38,623 : R adm>> (8=FIXT.1.1|9=59|35=0|34=23|49=ROFX|52=20190701-00:50:38.983|56=pjseoane232|10=143|)
2019-06-30 21:51:07,881 : S toAdmin1>> (8=FIXT.1.1|9=59|35=0|34=18|49=pjseoane232|52=20190701-00:51:07.000|56=ROFX|10=124|)
2019-06-30 21:51:08,622 : R adm>> (8=FIXT.1.1|9=59|35=0|34=24|49=ROFX|52=20190701-00:51:08.983|56=pjseoane232|10=142|)
2019-06-30 21:51:37,897 : S toAdmin1>> (8=FIXT.1.1|9=59|35=0|34=19|49=pjseoane232|52=20190701-00:51:37.000|56=ROFX|10=128|)
2019-06-30 21:51:38,623 : R adm>> (8=FIXT.1.1|9=59|35=0|34=25|49=ROFX|52=20190701-00:51:38.983|56=pjseoane232|10=146|)
2019-06-30 21:52:07,916 : S toAdmin1>> (8=FIXT.1.1|9=59|35=0|34=20|49=pjseoane232|52=20190701-00:52:07.000|56=ROFX|10=118|)
2019-06-30 21:52:08,623 : R adm>> (8=FIXT.1.1|9=59|35=0|34=26|49=ROFX|52=20190701-00:52:08.983|56=pjseoane232|10=145|)
2019-06-30 21:52:37,932 : S toAdmin1>> (8=FIXT.1.1|9=59|35=0|34=21|49=pjseoane232|52=20190701-00:52:37.000|56=ROFX|10=122|)
2019-06-30 21:52:38,623 : R adm>> (8=FIXT.1.1|9=59|35=0|34=27|49=ROFX|52=20190701-00:52:38.983|56=pjseoane232|10=149|)
2019-06-30 21:53:07,947 : S toAdmin1>> (8=FIXT.1.1|9=59|35=0|34=22|49=pjseoane232|52=20190701-00:53:07.000|56=ROFX|10=121|)
2019-06-30 21:53:08,626 : R adm>> (8=FIXT.1.1|9=59|35=0|34=28|49=ROFX|52=20190701-00:53:08.983|56=pjseoane232|10=148|)
2019-06-30 21:53:37,961 : S toAdmin1>> (8=FIXT.1.1|9=59|35=0|34=23|49=pjseoane232|52=20190701-00:53:37.000|56=ROFX|10=125|)
2019-06-30 21:53:39,148 : R adm>> (8=FIXT.1.1|9=59|35=0|34=29|49=ROFX|52=20190701-00:53:38.983|56=pjseoane232|10=152|)
2019-06-30 21:54:07,980 : S toAdmin1>> (8=FIXT.1.1|9=59|35=0|34=24|49=pjseoane232|52=20190701-00:54:07.000|56=ROFX|10=124|)
2019-06-30 21:54:08,626 : R adm>> (8=FIXT.1.1|9=59|35=0|34=30|49=ROFX|52=20190701-00:54:08.983|56=pjseoane232|10=142|)
2019-06-30 21:54:37,995 : S toAdmin1>> (8=FIXT.1.1|9=59|35=0|34=25|49=pjseoane232|52=20190701-00:54:37.000|56=ROFX|10=128|)
2019-06-30 21:54:38,627 : R adm>> (8=FIXT.1.1|9=59|35=0|34=31|49=ROFX|52=20190701-00:54:38.983|56=pjseoane232|10=146|)
2019-06-30 21:55:07,010 : S toAdmin1>> (8=FIXT.1.1|9=59|35=0|34=26|49=pjseoane232|52=20190701-00:55:07.000|56=ROFX|10=127|)
2019-06-30 21:55:08,626 : R adm>> (8=FIXT.1.1|9=59|35=0|34=32|49=ROFX|52=20190701-00:55:08.983|56=pjseoane232|10=145|)
2019-06-30 21:55:37,024 : S toAdmin1>> (8=FIXT.1.1|9=59|35=0|34=27|49=pjseoane232|52=20190701-00:55:37.000|56=ROFX|10=131|)
2019-06-30 21:55:38,626 : R adm>> (8=FIXT.1.1|9=59|35=0|34=33|49=ROFX|52=20190701-00:55:38.983|56=pjseoane232|10=149|)
2019-06-30 21:56:07,039 : S toAdmin1>> (8=FIXT.1.1|9=59|35=0|34=28|49=pjseoane232|52=20190701-00:56:07.000|56=ROFX|10=130|)
2019-06-30 21:56:08,628 : R adm>> (8=FIXT.1.1|9=59|35=0|34=34|49=ROFX|52=20190701-00:56:08.983|56=pjseoane232|10=148|)
2019-06-30 21:56:37,055 : S toAdmin1>> (8=FIXT.1.1|9=59|35=0|34=29|49=pjseoane232|52=20190701-00:56:37.000|56=ROFX|10=134|)
2019-06-30 21:56:38,626 : R adm>> (8=FIXT.1.1|9=59|35=0|34=35|49=ROFX|52=20190701-00:56:38.983|56=pjseoane232|10=152|)
2019-06-30 21:57:07,072 : S toAdmin1>> (8=FIXT.1.1|9=59|35=0|34=30|49=pjseoane232|52=20190701-00:57:07.000|56=ROFX|10=124|)
2019-06-30 21:57:08,626 : R adm>> (8=FIXT.1.1|9=59|35=0|34=36|49=ROFX|52=20190701-00:57:08.983|56=pjseoane232|10=151|)
2019-06-30 21:57:37,087 : S toAdmin1>> (8=FIXT.1.1|9=59|35=0|34=31|49=pjseoane232|52=20190701-00:57:37.000|56=ROFX|10=128|)
2019-06-30 21:57:38,762 : R adm>> (8=FIXT.1.1|9=59|35=0|34=37|49=ROFX|52=20190701-00:57:39.111|56=pjseoane232|10=139|)
2019-06-30 21:58:07,101 : S toAdmin1>> (8=FIXT.1.1|9=59|35=0|34=32|49=pjseoane232|52=20190701-00:58:07.000|56=ROFX|10=127|)
2019-06-30 21:58:09,628 : R adm>> (8=FIXT.1.1|9=59|35=0|34=38|49=ROFX|52=20190701-00:58:09.983|56=pjseoane232|10=155|)
2019-06-30 21:58:37,117 : S toAdmin1>> (8=FIXT.1.1|9=59|35=0|34=33|49=pjseoane232|52=20190701-00:58:37.000|56=ROFX|10=131|)
2019-06-30 21:58:39,630 : R adm>> (8=FIXT.1.1|9=59|35=0|34=39|49=ROFX|52=20190701-00:58:39.983|56=pjseoane232|10=159|)
2019-06-30 21:59:07,133 : S toAdmin1>> (8=FIXT.1.1|9=59|35=0|34=34|49=pjseoane232|52=20190701-00:59:07.000|56=ROFX|10=130|)
2019-06-30 21:59:09,630 : R adm>> (8=FIXT.1.1|9=59|35=0|34=40|49=ROFX|52=20190701-00:59:09.983|56=pjseoane232|10=149|)
2019-06-30 21:59:37,148 : S toAdmin1>> (8=FIXT.1.1|9=59|35=0|34=35|49=pjseoane232|52=20190701-00:59:37.000|56=ROFX|10=134|)
2019-06-30 21:59:39,628 : R adm>> (8=FIXT.1.1|9=59|35=0|34=41|49=ROFX|52=20190701-00:59:39.983|56=pjseoane232|10=153|)
2019-06-30 22:00:07,167 : S toAdmin1>> (8=FIXT.1.1|9=59|35=0|34=36|49=pjseoane232|52=20190701-01:00:07.000|56=ROFX|10=119|)
2019-06-30 22:00:09,630 : R adm>> (8=FIXT.1.1|9=59|35=0|34=42|49=ROFX|52=20190701-01:00:09.983|56=pjseoane232|10=138|)
2019-06-30 22:00:37,180 : S toAdmin1>> (8=FIXT.1.1|9=59|35=0|34=37|49=pjseoane232|52=20190701-01:00:37.000|56=ROFX|10=123|)
2019-06-30 22:00:39,638 : R adm>> (8=FIXT.1.1|9=59|35=0|34=43|49=ROFX|52=20190701-01:00:39.983|56=pjseoane232|10=142|)
2019-06-30 22:01:07,199 : S toAdmin1>> (8=FIXT.1.1|9=59|35=0|34=38|49=pjseoane232|52=20190701-01:01:07.000|56=ROFX|10=122|)
2019-06-30 22:01:09,629 : R adm>> (8=FIXT.1.1|9=59|35=0|34=44|49=ROFX|52=20190701-01:01:09.983|56=pjseoane232|10=141|)
2019-06-30 22:01:37,226 : S toAdmin1>> (8=FIXT.1.1|9=59|35=0|34=39|49=pjseoane232|52=20190701-01:01:37.000|56=ROFX|10=126|)
2019-06-30 22:01:39,632 : R adm>> (8=FIXT.1.1|9=59|35=0|34=45|49=ROFX|52=20190701-01:01:39.983|56=pjseoane232|10=145|)
2019-06-30 22:02:07,243 : S toAdmin1>> (8=FIXT.1.1|9=59|35=0|34=40|49=pjseoane232|52=20190701-01:02:07.000|56=ROFX|10=116|)
2019-06-30 22:02:09,630 : R adm>> (8=FIXT.1.1|9=59|35=0|34=46|49=ROFX|52=20190701-01:02:09.983|56=pjseoane232|10=144|)
2019-06-30 22:02:37,264 : S toAdmin1>> (8=FIXT.1.1|9=59|35=0|34=41|49=pjseoane232|52=20190701-01:02:37.000|56=ROFX|10=120|)
2019-06-30 22:02:39,629 : R adm>> (8=FIXT.1.1|9=59|35=0|34=47|49=ROFX|52=20190701-01:02:39.983|56=pjseoane232|10=148|)
2019-06-30 22:03:07,285 : S toAdmin1>> (8=FIXT.1.1|9=59|35=0|34=42|49=pjseoane232|52=20190701-01:03:07.000|56=ROFX|10=119|)
2019-06-30 22:03:09,633 : R adm>> (8=FIXT.1.1|9=59|35=0|34=48|49=ROFX|52=20190701-01:03:09.983|56=pjseoane232|10=147|)
2019-06-30 22:03:37,302 : S toAdmin1>> (8=FIXT.1.1|9=59|35=0|34=43|49=pjseoane232|52=20190701-01:03:37.000|56=ROFX|10=123|)
2019-06-30 22:03:39,632 : R adm>> (8=FIXT.1.1|9=59|35=0|34=49|49=ROFX|52=20190701-01:03:39.983|56=pjseoane232|10=151|)
2019-06-30 22:04:07,326 : S toAdmin1>> (8=FIXT.1.1|9=59|35=0|34=44|49=pjseoane232|52=20190701-01:04:07.000|56=ROFX|10=122|)
2019-06-30 22:04:09,631 : R adm>> (8=FIXT.1.1|9=59|35=0|34=50|49=ROFX|52=20190701-01:04:09.983|56=pjseoane232|10=141|)
2019-06-30 22:04:37,344 : S toAdmin1>> (8=FIXT.1.1|9=59|35=0|34=45|49=pjseoane232|52=20190701-01:04:37.000|56=ROFX|10=126|)
2019-06-30 22:04:39,634 : R adm>> (8=FIXT.1.1|9=59|35=0|34=51|49=ROFX|52=20190701-01:04:39.983|56=pjseoane232|10=145|)
2019-06-30 22:05:07,363 : S toAdmin1>> (8=FIXT.1.1|9=59|35=0|34=46|49=pjseoane232|52=20190701-01:05:07.000|56=ROFX|10=125|)
2019-06-30 22:05:09,632 : R adm>> (8=FIXT.1.1|9=59|35=0|34=52|49=ROFX|52=20190701-01:05:09.983|56=pjseoane232|10=144|)
2019-06-30 22:05:37,383 : S toAdmin1>> (8=FIXT.1.1|9=59|35=0|34=47|49=pjseoane232|52=20190701-01:05:37.000|56=ROFX|10=129|)
2019-06-30 22:05:39,637 : R adm>> (8=FIXT.1.1|9=59|35=0|34=53|49=ROFX|52=20190701-01:05:39.983|56=pjseoane232|10=148|)
2019-06-30 22:06:07,404 : S toAdmin1>> (8=FIXT.1.1|9=59|35=0|34=48|49=pjseoane232|52=20190701-01:06:07.000|56=ROFX|10=128|)
2019-06-30 22:06:09,635 : R adm>> (8=FIXT.1.1|9=59|35=0|34=54|49=ROFX|52=20190701-01:06:09.983|56=pjseoane232|10=147|)
2019-06-30 22:06:37,419 : S toAdmin1>> (8=FIXT.1.1|9=59|35=0|34=49|49=pjseoane232|52=20190701-01:06:37.000|56=ROFX|10=132|)
2019-06-30 22:06:39,633 : R adm>> (8=FIXT.1.1|9=59|35=0|34=55|49=ROFX|52=20190701-01:06:39.983|56=pjseoane232|10=151|)
2019-06-30 22:07:07,438 : S toAdmin1>> (8=FIXT.1.1|9=59|35=0|34=50|49=pjseoane232|52=20190701-01:07:07.000|56=ROFX|10=122|)
2019-06-30 22:07:09,635 : R adm>> (8=FIXT.1.1|9=59|35=0|34=56|49=ROFX|52=20190701-01:07:09.983|56=pjseoane232|10=150|)
2019-06-30 22:07:37,458 : S toAdmin1>> (8=FIXT.1.1|9=59|35=0|34=51|49=pjseoane232|52=20190701-01:07:37.000|56=ROFX|10=126|)
2019-06-30 22:07:39,635 : R adm>> (8=FIXT.1.1|9=59|35=0|34=57|49=ROFX|52=20190701-01:07:39.983|56=pjseoane232|10=154|)
2019-06-30 22:08:07,479 : S toAdmin1>> (8=FIXT.1.1|9=59|35=0|34=52|49=pjseoane232|52=20190701-01:08:07.000|56=ROFX|10=125|)
2019-06-30 22:08:09,635 : R adm>> (8=FIXT.1.1|9=59|35=0|34=58|49=ROFX|52=20190701-01:08:09.983|56=pjseoane232|10=153|)
2019-06-30 22:08:37,496 : S toAdmin1>> (8=FIXT.1.1|9=59|35=0|34=53|49=pjseoane232|52=20190701-01:08:37.000|56=ROFX|10=129|)
2019-06-30 22:08:39,634 : R adm>> (8=FIXT.1.1|9=59|35=0|34=59|49=ROFX|52=20190701-01:08:39.983|56=pjseoane232|10=157|)
2019-06-30 22:09:07,514 : S toAdmin1>> (8=FIXT.1.1|9=59|35=0|34=54|49=pjseoane232|52=20190701-01:09:07.000|56=ROFX|10=128|)
2019-06-30 22:09:09,634 : R adm>> (8=FIXT.1.1|9=59|35=0|34=60|49=ROFX|52=20190701-01:09:09.983|56=pjseoane232|10=147|)
2019-06-30 22:09:37,528 : S toAdmin1>> (8=FIXT.1.1|9=59|35=0|34=55|49=pjseoane232|52=20190701-01:09:37.000|56=ROFX|10=132|)
2019-06-30 22:09:39,637 : R adm>> (8=FIXT.1.1|9=59|35=0|34=61|49=ROFX|52=20190701-01:09:39.983|56=pjseoane232|10=151|)
2019-06-30 22:10:07,548 : S toAdmin1>> (8=FIXT.1.1|9=59|35=0|34=56|49=pjseoane232|52=20190701-01:10:07.000|56=ROFX|10=122|)
2019-06-30 22:10:09,635 : R adm>> (8=FIXT.1.1|9=59|35=0|34=62|49=ROFX|52=20190701-01:10:09.983|56=pjseoane232|10=141|)
2019-06-30 22:10:37,563 : S toAdmin1>> (8=FIXT.1.1|9=59|35=0|34=57|49=pjseoane232|52=20190701-01:10:37.000|56=ROFX|10=126|)
2019-06-30 22:10:39,636 : R adm>> (8=FIXT.1.1|9=59|35=0|34=63|49=ROFX|52=20190701-01:10:39.983|56=pjseoane232|10=145|)
2019-06-30 22:11:07,579 : S toAdmin1>> (8=FIXT.1.1|9=59|35=0|34=58|49=pjseoane232|52=20190701-01:11:07.000|56=ROFX|10=125|)
2019-06-30 22:11:09,638 : R adm>> (8=FIXT.1.1|9=59|35=0|34=64|49=ROFX|52=20190701-01:11:09.983|56=pjseoane232|10=144|)
2019-06-30 22:11:37,596 : S toAdmin1>> (8=FIXT.1.1|9=59|35=0|34=59|49=pjseoane232|52=20190701-01:11:37.000|56=ROFX|10=129|)
2019-06-30 22:11:39,638 : R adm>> (8=FIXT.1.1|9=59|35=0|34=65|49=ROFX|52=20190701-01:11:39.983|56=pjseoane232|10=148|)
2019-06-30 22:12:07,614 : S toAdmin1>> (8=FIXT.1.1|9=59|35=0|34=60|49=pjseoane232|52=20190701-01:12:07.000|56=ROFX|10=119|)
2019-06-30 22:12:09,635 : R adm>> (8=FIXT.1.1|9=59|35=0|34=66|49=ROFX|52=20190701-01:12:09.983|56=pjseoane232|10=147|)
2019-06-30 22:12:37,630 : S toAdmin1>> (8=FIXT.1.1|9=59|35=0|34=61|49=pjseoane232|52=20190701-01:12:37.000|56=ROFX|10=123|)
2019-06-30 22:12:39,634 : R adm>> (8=FIXT.1.1|9=59|35=0|34=67|49=ROFX|52=20190701-01:12:39.983|56=pjseoane232|10=151|)
2019-06-30 22:13:07,650 : S toAdmin1>> (8=FIXT.1.1|9=59|35=0|34=62|49=pjseoane232|52=20190701-01:13:07.000|56=ROFX|10=122|)
2019-06-30 22:13:09,635 : R adm>> (8=FIXT.1.1|9=59|35=0|34=68|49=ROFX|52=20190701-01:13:09.983|56=pjseoane232|10=150|)
2019-06-30 22:13:37,670 : S toAdmin1>> (8=FIXT.1.1|9=59|35=0|34=63|49=pjseoane232|52=20190701-01:13:37.000|56=ROFX|10=126|)
2019-06-30 22:13:39,635 : R adm>> (8=FIXT.1.1|9=59|35=0|34=69|49=ROFX|52=20190701-01:13:39.983|56=pjseoane232|10=154|)
2019-06-30 22:14:07,692 : S toAdmin1>> (8=FIXT.1.1|9=59|35=0|34=64|49=pjseoane232|52=20190701-01:14:07.000|56=ROFX|10=125|)
2019-06-30 22:14:09,635 : R adm>> (8=FIXT.1.1|9=59|35=0|34=70|49=ROFX|52=20190701-01:14:09.983|56=pjseoane232|10=144|)
2019-06-30 22:14:37,716 : S toAdmin1>> (8=FIXT.1.1|9=59|35=0|34=65|49=pjseoane232|52=20190701-01:14:37.000|56=ROFX|10=129|)
2019-06-30 22:14:39,638 : R adm>> (8=FIXT.1.1|9=59|35=0|34=71|49=ROFX|52=20190701-01:14:39.983|56=pjseoane232|10=148|)
2019-06-30 22:15:07,731 : S toAdmin1>> (8=FIXT.1.1|9=59|35=0|34=66|49=pjseoane232|52=20190701-01:15:07.000|56=ROFX|10=128|)
2019-06-30 22:15:09,636 : R adm>> (8=FIXT.1.1|9=59|35=0|34=72|49=ROFX|52=20190701-01:15:09.983|56=pjseoane232|10=147|)
2019-06-30 22:15:37,746 : S toAdmin1>> (8=FIXT.1.1|9=59|35=0|34=67|49=pjseoane232|52=20190701-01:15:37.000|56=ROFX|10=132|)
2019-06-30 22:15:39,637 : R adm>> (8=FIXT.1.1|9=59|35=0|34=73|49=ROFX|52=20190701-01:15:39.983|56=pjseoane232|10=151|)
2019-06-30 22:16:07,762 : S toAdmin1>> (8=FIXT.1.1|9=59|35=0|34=68|49=pjseoane232|52=20190701-01:16:07.000|56=ROFX|10=131|)
2019-06-30 22:16:09,637 : R adm>> (8=FIXT.1.1|9=59|35=0|34=74|49=ROFX|52=20190701-01:16:09.983|56=pjseoane232|10=150|)
2019-06-30 22:16:37,778 : S toAdmin1>> (8=FIXT.1.1|9=59|35=0|34=69|49=pjseoane232|52=20190701-01:16:37.000|56=ROFX|10=135|)
2019-06-30 22:16:39,637 : R adm>> (8=FIXT.1.1|9=59|35=0|34=75|49=ROFX|52=20190701-01:16:39.983|56=pjseoane232|10=154|)
2019-06-30 22:17:07,792 : S toAdmin1>> (8=FIXT.1.1|9=59|35=0|34=70|49=pjseoane232|52=20190701-01:17:07.000|56=ROFX|10=125|)
2019-06-30 22:17:09,637 : R adm>> (8=FIXT.1.1|9=59|35=0|34=76|49=ROFX|52=20190701-01:17:09.983|56=pjseoane232|10=153|)
2019-06-30 22:17:37,809 : S toAdmin1>> (8=FIXT.1.1|9=59|35=0|34=71|49=pjseoane232|52=20190701-01:17:37.000|56=ROFX|10=129|)
2019-06-30 22:17:39,637 : R adm>> (8=FIXT.1.1|9=59|35=0|34=77|49=ROFX|52=20190701-01:17:39.983|56=pjseoane232|10=157|)
2019-06-30 22:18:07,830 : S toAdmin1>> (8=FIXT.1.1|9=59|35=0|34=72|49=pjseoane232|52=20190701-01:18:07.000|56=ROFX|10=128|)
2019-06-30 22:18:09,640 : R adm>> (8=FIXT.1.1|9=59|35=0|34=78|49=ROFX|52=20190701-01:18:09.983|56=pjseoane232|10=156|)
2019-06-30 22:18:37,843 : S toAdmin1>> (8=FIXT.1.1|9=59|35=0|34=73|49=pjseoane232|52=20190701-01:18:37.000|56=ROFX|10=132|)
2019-06-30 22:18:39,641 : R adm>> (8=FIXT.1.1|9=59|35=0|34=79|49=ROFX|52=20190701-01:18:39.983|56=pjseoane232|10=160|)
2019-06-30 22:19:07,861 : S toAdmin1>> (8=FIXT.1.1|9=59|35=0|34=74|49=pjseoane232|52=20190701-01:19:07.000|56=ROFX|10=131|)
2019-06-30 22:19:09,640 : R adm>> (8=FIXT.1.1|9=59|35=0|34=80|49=ROFX|52=20190701-01:19:09.983|56=pjseoane232|10=150|)
2019-06-30 22:19:37,879 : S toAdmin1>> (8=FIXT.1.1|9=59|35=0|34=75|49=pjseoane232|52=20190701-01:19:37.000|56=ROFX|10=135|)
2019-06-30 22:19:39,639 : R adm>> (8=FIXT.1.1|9=59|35=0|34=81|49=ROFX|52=20190701-01:19:39.983|56=pjseoane232|10=154|)
2019-06-30 22:20:07,895 : S toAdmin1>> (8=FIXT.1.1|9=59|35=0|34=76|49=pjseoane232|52=20190701-01:20:07.000|56=ROFX|10=125|)
2019-06-30 22:20:09,640 : R adm>> (8=FIXT.1.1|9=59|35=0|34=82|49=ROFX|52=20190701-01:20:09.983|56=pjseoane232|10=144|)
2019-06-30 22:20:37,909 : S toAdmin1>> (8=FIXT.1.1|9=59|35=0|34=77|49=pjseoane232|52=20190701-01:20:37.000|56=ROFX|10=129|)
2019-06-30 22:20:39,641 : R adm>> (8=FIXT.1.1|9=59|35=0|34=83|49=ROFX|52=20190701-01:20:39.983|56=pjseoane232|10=148|)
2019-06-30 22:21:07,928 : S toAdmin1>> (8=FIXT.1.1|9=59|35=0|34=78|49=pjseoane232|52=20190701-01:21:07.000|56=ROFX|10=128|)
2019-06-30 22:21:09,640 : R adm>> (8=FIXT.1.1|9=59|35=0|34=84|49=ROFX|52=20190701-01:21:09.983|56=pjseoane232|10=147|)
2019-06-30 22:21:37,945 : S toAdmin1>> (8=FIXT.1.1|9=59|35=0|34=79|49=pjseoane232|52=20190701-01:21:37.000|56=ROFX|10=132|)
2019-06-30 22:21:39,642 : R adm>> (8=FIXT.1.1|9=59|35=0|34=85|49=ROFX|52=20190701-01:21:39.983|56=pjseoane232|10=151|)
2019-06-30 22:22:07,962 : S toAdmin1>> (8=FIXT.1.1|9=59|35=0|34=80|49=pjseoane232|52=20190701-01:22:07.000|56=ROFX|10=122|)
2019-06-30 22:22:09,641 : R adm>> (8=FIXT.1.1|9=59|35=0|34=86|49=ROFX|52=20190701-01:22:09.983|56=pjseoane232|10=150|)
2019-06-30 22:22:37,976 : S toAdmin1>> (8=FIXT.1.1|9=59|35=0|34=81|49=pjseoane232|52=20190701-01:22:37.000|56=ROFX|10=126|)
2019-06-30 22:22:39,641 : R adm>> (8=FIXT.1.1|9=59|35=0|34=87|49=ROFX|52=20190701-01:22:39.983|56=pjseoane232|10=154|)
2019-06-30 22:23:07,995 : S toAdmin1>> (8=FIXT.1.1|9=59|35=0|34=82|49=pjseoane232|52=20190701-01:23:07.000|56=ROFX|10=125|)
2019-06-30 22:23:09,641 : R adm>> (8=FIXT.1.1|9=59|35=0|34=88|49=ROFX|52=20190701-01:23:09.983|56=pjseoane232|10=153|)
2019-06-30 22:23:37,009 : S toAdmin1>> (8=FIXT.1.1|9=59|35=0|34=83|49=pjseoane232|52=20190701-01:23:37.000|56=ROFX|10=129|)
2019-06-30 22:23:39,648 : R adm>> (8=FIXT.1.1|9=59|35=0|34=89|49=ROFX|52=20190701-01:23:39.983|56=pjseoane232|10=157|)
2019-06-30 22:24:07,023 : S toAdmin1>> (8=FIXT.1.1|9=59|35=0|34=84|49=pjseoane232|52=20190701-01:24:07.000|56=ROFX|10=128|)
2019-06-30 22:24:09,645 : R adm>> (8=FIXT.1.1|9=59|35=0|34=90|49=ROFX|52=20190701-01:24:09.983|56=pjseoane232|10=147|)
2019-06-30 22:24:37,040 : S toAdmin1>> (8=FIXT.1.1|9=59|35=0|34=85|49=pjseoane232|52=20190701-01:24:37.000|56=ROFX|10=132|)
2019-06-30 22:24:39,644 : R adm>> (8=FIXT.1.1|9=59|35=0|34=91|49=ROFX|52=20190701-01:24:39.983|56=pjseoane232|10=151|)
2019-06-30 22:25:07,058 : S toAdmin1>> (8=FIXT.1.1|9=59|35=0|34=86|49=pjseoane232|52=20190701-01:25:07.000|56=ROFX|10=131|)
2019-06-30 22:25:09,645 : R adm>> (8=FIXT.1.1|9=59|35=0|34=92|49=ROFX|52=20190701-01:25:09.983|56=pjseoane232|10=150|)
2019-06-30 22:25:37,075 : S toAdmin1>> (8=FIXT.1.1|9=59|35=0|34=87|49=pjseoane232|52=20190701-01:25:37.000|56=ROFX|10=135|)
2019-06-30 22:25:39,646 : R adm>> (8=FIXT.1.1|9=59|35=0|34=93|49=ROFX|52=20190701-01:25:39.983|56=pjseoane232|10=154|)
2019-06-30 22:26:07,097 : S toAdmin1>> (8=FIXT.1.1|9=59|35=0|34=88|49=pjseoane232|52=20190701-01:26:07.000|56=ROFX|10=134|)
2019-06-30 22:26:09,644 : R adm>> (8=FIXT.1.1|9=59|35=0|34=94|49=ROFX|52=20190701-01:26:09.983|56=pjseoane232|10=153|)
2019-06-30 22:26:37,112 : S toAdmin1>> (8=FIXT.1.1|9=59|35=0|34=89|49=pjseoane232|52=20190701-01:26:37.000|56=ROFX|10=138|)
2019-06-30 22:26:39,644 : R adm>> (8=FIXT.1.1|9=59|35=0|34=95|49=ROFX|52=20190701-01:26:39.983|56=pjseoane232|10=157|)
2019-06-30 22:27:07,132 : S toAdmin1>> (8=FIXT.1.1|9=59|35=0|34=90|49=pjseoane232|52=20190701-01:27:07.000|56=ROFX|10=128|)
2019-06-30 22:27:09,645 : R adm>> (8=FIXT.1.1|9=59|35=0|34=96|49=ROFX|52=20190701-01:27:09.983|56=pjseoane232|10=156|)
2019-06-30 22:27:37,150 : S toAdmin1>> (8=FIXT.1.1|9=59|35=0|34=91|49=pjseoane232|52=20190701-01:27:37.000|56=ROFX|10=132|)
2019-06-30 22:27:39,643 : R adm>> (8=FIXT.1.1|9=59|35=0|34=97|49=ROFX|52=20190701-01:27:39.983|56=pjseoane232|10=160|)
2019-06-30 22:28:07,169 : S toAdmin1>> (8=FIXT.1.1|9=59|35=0|34=92|49=pjseoane232|52=20190701-01:28:07.000|56=ROFX|10=131|)
2019-06-30 22:28:09,646 : R adm>> (8=FIXT.1.1|9=59|35=0|34=98|49=ROFX|52=20190701-01:28:09.983|56=pjseoane232|10=159|)
2019-06-30 22:28:37,188 : S toAdmin1>> (8=FIXT.1.1|9=59|35=0|34=93|49=pjseoane232|52=20190701-01:28:37.000|56=ROFX|10=135|)
2019-06-30 22:28:39,647 : R adm>> (8=FIXT.1.1|9=59|35=0|34=99|49=ROFX|52=20190701-01:28:39.983|56=pjseoane232|10=163|)
2019-06-30 22:29:07,208 : S toAdmin1>> (8=FIXT.1.1|9=59|35=0|34=94|49=pjseoane232|52=20190701-01:29:07.000|56=ROFX|10=134|)
2019-06-30 22:29:09,645 : R adm>> (8=FIXT.1.1|9=60|35=0|34=100|49=ROFX|52=20190701-01:29:09.983|56=pjseoane232|10=184|)
2019-06-30 22:29:37,227 : S toAdmin1>> (8=FIXT.1.1|9=59|35=0|34=95|49=pjseoane232|52=20190701-01:29:37.000|56=ROFX|10=138|)
2019-06-30 22:29:39,648 : R adm>> (8=FIXT.1.1|9=60|35=0|34=101|49=ROFX|52=20190701-01:29:39.983|56=pjseoane232|10=188|)
2019-06-30 22:30:07,246 : S toAdmin1>> (8=FIXT.1.1|9=59|35=0|34=96|49=pjseoane232|52=20190701-01:30:07.000|56=ROFX|10=128|)
2019-06-30 22:30:09,647 : R adm>> (8=FIXT.1.1|9=60|35=0|34=102|49=ROFX|52=20190701-01:30:09.983|56=pjseoane232|10=178|)
2019-06-30 22:30:37,262 : S toAdmin1>> (8=FIXT.1.1|9=59|35=0|34=97|49=pjseoane232|52=20190701-01:30:37.000|56=ROFX|10=132|)
2019-06-30 22:30:39,646 : R adm>> (8=FIXT.1.1|9=60|35=0|34=103|49=ROFX|52=20190701-01:30:39.983|56=pjseoane232|10=182|)
2019-06-30 22:31:07,280 : S toAdmin1>> (8=FIXT.1.1|9=59|35=0|34=98|49=pjseoane232|52=20190701-01:31:07.000|56=ROFX|10=131|)
2019-06-30 22:31:09,647 : R adm>> (8=FIXT.1.1|9=60|35=0|34=104|49=ROFX|52=20190701-01:31:09.983|56=pjseoane232|10=181|)
2019-06-30 22:31:37,296 : S toAdmin1>> (8=FIXT.1.1|9=59|35=0|34=99|49=pjseoane232|52=20190701-01:31:37.000|56=ROFX|10=135|)
2019-06-30 22:31:39,648 : R adm>> (8=FIXT.1.1|9=60|35=0|34=105|49=ROFX|52=20190701-01:31:39.983|56=pjseoane232|10=185|)
2019-06-30 22:32:07,310 : S toAdmin1>> (8=FIXT.1.1|9=60|35=0|34=100|49=pjseoane232|52=20190701-01:32:07.000|56=ROFX|10=156|)
2019-06-30 22:32:09,647 : R adm>> (8=FIXT.1.1|9=60|35=0|34=106|49=ROFX|52=20190701-01:32:09.983|56=pjseoane232|10=184|)
2019-06-30 22:32:37,327 : S toAdmin1>> (8=FIXT.1.1|9=60|35=0|34=101|49=pjseoane232|52=20190701-01:32:37.000|56=ROFX|10=160|)
2019-06-30 22:32:39,649 : R adm>> (8=FIXT.1.1|9=60|35=0|34=107|49=ROFX|52=20190701-01:32:39.983|56=pjseoane232|10=188|)
2019-06-30 22:33:07,344 : S toAdmin1>> (8=FIXT.1.1|9=60|35=0|34=102|49=pjseoane232|52=20190701-01:33:07.000|56=ROFX|10=159|)
2019-06-30 22:33:09,664 : R adm>> (8=FIXT.1.1|9=60|35=0|34=108|49=ROFX|52=20190701-01:33:09.983|56=pjseoane232|10=187|)
2019-06-30 22:33:37,363 : S toAdmin1>> (8=FIXT.1.1|9=60|35=0|34=103|49=pjseoane232|52=20190701-01:33:37.000|56=ROFX|10=163|)
2019-06-30 22:33:39,648 : R adm>> (8=FIXT.1.1|9=60|35=0|34=109|49=ROFX|52=20190701-01:33:39.983|56=pjseoane232|10=191|)
2019-06-30 22:34:07,378 : S toAdmin1>> (8=FIXT.1.1|9=60|35=0|34=104|49=pjseoane232|52=20190701-01:34:07.000|56=ROFX|10=162|)
2019-06-30 22:34:09,754 : R adm>> (8=FIXT.1.1|9=60|35=0|34=110|49=ROFX|52=20190701-01:34:09.983|56=pjseoane232|10=181|)
2019-06-30 22:34:37,393 : S toAdmin1>> (8=FIXT.1.1|9=60|35=0|34=105|49=pjseoane232|52=20190701-01:34:37.000|56=ROFX|10=166|)
2019-06-30 22:34:39,650 : R adm>> (8=FIXT.1.1|9=60|35=0|34=111|49=ROFX|52=20190701-01:34:39.983|56=pjseoane232|10=185|)
2019-06-30 22:35:07,409 : S toAdmin1>> (8=FIXT.1.1|9=60|35=0|34=106|49=pjseoane232|52=20190701-01:35:07.000|56=ROFX|10=165|)
2019-06-30 22:35:09,650 : R adm>> (8=FIXT.1.1|9=60|35=0|34=112|49=ROFX|52=20190701-01:35:09.983|56=pjseoane232|10=184|)
2019-06-30 22:35:37,428 : S toAdmin1>> (8=FIXT.1.1|9=60|35=0|34=107|49=pjseoane232|52=20190701-01:35:37.000|56=ROFX|10=169|)
2019-06-30 22:35:39,649 : R adm>> (8=FIXT.1.1|9=60|35=0|34=113|49=ROFX|52=20190701-01:35:39.983|56=pjseoane232|10=188|)
2019-06-30 22:36:07,444 : S toAdmin1>> (8=FIXT.1.1|9=60|35=0|34=108|49=pjseoane232|52=20190701-01:36:07.000|56=ROFX|10=168|)
2019-06-30 22:36:09,667 : R adm>> (8=FIXT.1.1|9=60|35=0|34=114|49=ROFX|52=20190701-01:36:09.983|56=pjseoane232|10=187|)
2019-06-30 22:36:37,458 : S toAdmin1>> (8=FIXT.1.1|9=60|35=0|34=109|49=pjseoane232|52=20190701-01:36:37.000|56=ROFX|10=172|)
2019-06-30 22:36:39,651 : R adm>> (8=FIXT.1.1|9=60|35=0|34=115|49=ROFX|52=20190701-01:36:39.983|56=pjseoane232|10=191|)
2019-06-30 22:37:07,478 : S toAdmin1>> (8=FIXT.1.1|9=60|35=0|34=110|49=pjseoane232|52=20190701-01:37:07.000|56=ROFX|10=162|)
2019-06-30 22:37:09,650 : R adm>> (8=FIXT.1.1|9=60|35=0|34=116|49=ROFX|52=20190701-01:37:09.983|56=pjseoane232|10=190|)
2019-06-30 22:37:37,492 : S toAdmin1>> (8=FIXT.1.1|9=60|35=0|34=111|49=pjseoane232|52=20190701-01:37:37.000|56=ROFX|10=166|)
2019-06-30 22:37:39,651 : R adm>> (8=FIXT.1.1|9=60|35=0|34=117|49=ROFX|52=20190701-01:37:39.983|56=pjseoane232|10=194|)
2019-06-30 22:38:07,508 : S toAdmin1>> (8=FIXT.1.1|9=60|35=0|34=112|49=pjseoane232|52=20190701-01:38:07.000|56=ROFX|10=165|)
2019-06-30 22:38:09,651 : R adm>> (8=FIXT.1.1|9=60|35=0|34=118|49=ROFX|52=20190701-01:38:09.983|56=pjseoane232|10=193|)
2019-06-30 22:38:37,523 : S toAdmin1>> (8=FIXT.1.1|9=60|35=0|34=113|49=pjseoane232|52=20190701-01:38:37.000|56=ROFX|10=169|)
2019-06-30 22:38:39,654 : R adm>> (8=FIXT.1.1|9=60|35=0|34=119|49=ROFX|52=20190701-01:38:39.983|56=pjseoane232|10=197|)
2019-06-30 22:39:07,539 : S toAdmin1>> (8=FIXT.1.1|9=60|35=0|34=114|49=pjseoane232|52=20190701-01:39:07.000|56=ROFX|10=168|)
2019-06-30 22:39:09,653 : R adm>> (8=FIXT.1.1|9=60|35=0|34=120|49=ROFX|52=20190701-01:39:09.983|56=pjseoane232|10=187|)
2019-06-30 22:39:37,555 : S toAdmin1>> (8=FIXT.1.1|9=60|35=0|34=115|49=pjseoane232|52=20190701-01:39:37.000|56=ROFX|10=172|)
2019-06-30 22:39:39,655 : R adm>> (8=FIXT.1.1|9=60|35=0|34=121|49=ROFX|52=20190701-01:39:39.983|56=pjseoane232|10=191|)
2019-06-30 22:40:07,572 : S toAdmin1>> (8=FIXT.1.1|9=60|35=0|34=116|49=pjseoane232|52=20190701-01:40:07.000|56=ROFX|10=162|)
2019-06-30 22:40:09,652 : R adm>> (8=FIXT.1.1|9=60|35=0|34=122|49=ROFX|52=20190701-01:40:09.983|56=pjseoane232|10=181|)
2019-06-30 22:40:37,585 : S toAdmin1>> (8=FIXT.1.1|9=60|35=0|34=117|49=pjseoane232|52=20190701-01:40:37.000|56=ROFX|10=166|)
2019-06-30 22:40:39,653 : R adm>> (8=FIXT.1.1|9=60|35=0|34=123|49=ROFX|52=20190701-01:40:39.983|56=pjseoane232|10=185|)
2019-06-30 22:41:07,602 : S toAdmin1>> (8=FIXT.1.1|9=60|35=0|34=118|49=pjseoane232|52=20190701-01:41:07.000|56=ROFX|10=165|)
2019-06-30 22:41:09,653 : R adm>> (8=FIXT.1.1|9=60|35=0|34=124|49=ROFX|52=20190701-01:41:09.983|56=pjseoane232|10=184|)
2019-06-30 22:41:37,617 : S toAdmin1>> (8=FIXT.1.1|9=60|35=0|34=119|49=pjseoane232|52=20190701-01:41:37.000|56=ROFX|10=169|)
2019-06-30 22:41:39,659 : R adm>> (8=FIXT.1.1|9=60|35=0|34=125|49=ROFX|52=20190701-01:41:39.983|56=pjseoane232|10=188|)
2019-06-30 22:42:07,634 : S toAdmin1>> (8=FIXT.1.1|9=60|35=0|34=120|49=pjseoane232|52=20190701-01:42:07.000|56=ROFX|10=159|)
2019-06-30 22:42:09,669 : R adm>> (8=FIXT.1.1|9=60|35=0|34=126|49=ROFX|52=20190701-01:42:09.983|56=pjseoane232|10=187|)
2019-06-30 22:42:37,649 : S toAdmin1>> (8=FIXT.1.1|9=60|35=0|34=121|49=pjseoane232|52=20190701-01:42:37.000|56=ROFX|10=163|)
2019-06-30 22:42:39,657 : R adm>> (8=FIXT.1.1|9=60|35=0|34=127|49=ROFX|52=20190701-01:42:39.983|56=pjseoane232|10=191|)
2019-06-30 22:43:07,664 : S toAdmin1>> (8=FIXT.1.1|9=60|35=0|34=122|49=pjseoane232|52=20190701-01:43:07.000|56=ROFX|10=162|)
2019-06-30 22:43:09,693 : R adm>> (8=FIXT.1.1|9=60|35=0|34=128|49=ROFX|52=20190701-01:43:09.983|56=pjseoane232|10=190|)
2019-06-30 22:43:37,682 : S toAdmin1>> (8=FIXT.1.1|9=60|35=0|34=123|49=pjseoane232|52=20190701-01:43:37.000|56=ROFX|10=166|)
2019-06-30 22:43:39,818 : R adm>> (8=FIXT.1.1|9=60|35=0|34=129|49=ROFX|52=20190701-01:43:39.983|56=pjseoane232|10=194|)
2019-06-30 22:44:07,699 : S toAdmin1>> (8=FIXT.1.1|9=60|35=0|34=124|49=pjseoane232|52=20190701-01:44:07.000|56=ROFX|10=165|)
2019-06-30 22:44:09,930 : R adm>> (8=FIXT.1.1|9=60|35=0|34=130|49=ROFX|52=20190701-01:44:09.983|56=pjseoane232|10=184|)
2019-06-30 22:44:37,721 : S toAdmin1>> (8=FIXT.1.1|9=60|35=0|34=125|49=pjseoane232|52=20190701-01:44:37.000|56=ROFX|10=169|)
2019-06-30 22:44:39,961 : R adm>> (8=FIXT.1.1|9=60|35=0|34=131|49=ROFX|52=20190701-01:44:39.983|56=pjseoane232|10=188|)
2019-06-30 22:45:07,736 : S toAdmin1>> (8=FIXT.1.1|9=60|35=0|34=126|49=pjseoane232|52=20190701-01:45:07.000|56=ROFX|10=168|)
2019-06-30 22:45:09,720 : R adm>> (8=FIXT.1.1|9=60|35=0|34=132|49=ROFX|52=20190701-01:45:09.983|56=pjseoane232|10=187|)
2019-06-30 22:45:37,750 : S toAdmin1>> (8=FIXT.1.1|9=60|35=0|34=127|49=pjseoane232|52=20190701-01:45:37.000|56=ROFX|10=172|)
2019-06-30 22:45:39,862 : R adm>> (8=FIXT.1.1|9=60|35=0|34=133|49=ROFX|52=20190701-01:45:39.983|56=pjseoane232|10=191|)
2019-06-30 22:46:07,766 : S toAdmin1>> (8=FIXT.1.1|9=60|35=0|34=128|49=pjseoane232|52=20190701-01:46:07.000|56=ROFX|10=171|)
2019-06-30 22:46:09,768 : R adm>> (8=FIXT.1.1|9=60|35=0|34=134|49=ROFX|52=20190701-01:46:09.983|56=pjseoane232|10=190|)
2019-06-30 22:46:37,783 : S toAdmin1>> (8=FIXT.1.1|9=60|35=0|34=129|49=pjseoane232|52=20190701-01:46:37.000|56=ROFX|10=175|)
2019-06-30 22:46:39,946 : R adm>> (8=FIXT.1.1|9=60|35=0|34=135|49=ROFX|52=20190701-01:46:39.983|56=pjseoane232|10=194|)
2019-06-30 22:47:07,801 : S toAdmin1>> (8=FIXT.1.1|9=60|35=0|34=130|49=pjseoane232|52=20190701-01:47:07.000|56=ROFX|10=165|)
2019-06-30 22:47:10,275 : R adm>> (8=FIXT.1.1|9=60|35=0|34=136|49=ROFX|52=20190701-01:47:09.983|56=pjseoane232|10=193|)
2019-06-30 22:47:37,817 : S toAdmin1>> (8=FIXT.1.1|9=60|35=0|34=131|49=pjseoane232|52=20190701-01:47:37.000|56=ROFX|10=169|)
2019-06-30 22:47:39,772 : R adm>> (8=FIXT.1.1|9=60|35=0|34=137|49=ROFX|52=20190701-01:47:39.983|56=pjseoane232|10=197|)
2019-06-30 22:48:07,833 : S toAdmin1>> (8=FIXT.1.1|9=60|35=0|34=132|49=pjseoane232|52=20190701-01:48:07.000|56=ROFX|10=168|)
2019-06-30 22:48:09,891 : R adm>> (8=FIXT.1.1|9=60|35=0|34=138|49=ROFX|52=20190701-01:48:09.983|56=pjseoane232|10=196|)
2019-06-30 22:48:37,851 : S toAdmin1>> (8=FIXT.1.1|9=60|35=0|34=133|49=pjseoane232|52=20190701-01:48:37.000|56=ROFX|10=172|)
2019-06-30 22:48:39,669 : R adm>> (8=FIXT.1.1|9=60|35=0|34=139|49=ROFX|52=20190701-01:48:39.983|56=pjseoane232|10=200|)
2019-06-30 22:49:07,866 : S toAdmin1>> (8=FIXT.1.1|9=60|35=0|34=134|49=pjseoane232|52=20190701-01:49:07.000|56=ROFX|10=171|)
2019-06-30 22:49:10,135 : R adm>> (8=FIXT.1.1|9=60|35=0|34=140|49=ROFX|52=20190701-01:49:09.983|56=pjseoane232|10=190|)
2019-06-30 22:49:37,884 : S toAdmin1>> (8=FIXT.1.1|9=60|35=0|34=135|49=pjseoane232|52=20190701-01:49:37.000|56=ROFX|10=175|)
2019-06-30 22:49:40,256 : R adm>> (8=FIXT.1.1|9=60|35=0|34=141|49=ROFX|52=20190701-01:49:39.983|56=pjseoane232|10=194|)
2019-06-30 22:50:07,903 : S toAdmin1>> (8=FIXT.1.1|9=60|35=0|34=136|49=pjseoane232|52=20190701-01:50:07.000|56=ROFX|10=165|)
2019-06-30 22:50:10,375 : R adm>> (8=FIXT.1.1|9=60|35=0|34=142|49=ROFX|52=20190701-01:50:09.983|56=pjseoane232|10=184|)
2019-06-30 22:50:37,920 : S toAdmin1>> (8=FIXT.1.1|9=60|35=0|34=137|49=pjseoane232|52=20190701-01:50:37.000|56=ROFX|10=169|)
2019-06-30 22:50:40,492 : R adm>> (8=FIXT.1.1|9=60|35=0|34=143|49=ROFX|52=20190701-01:50:39.983|56=pjseoane232|10=188|)
2019-06-30 22:51:07,937 : S toAdmin1>> (8=FIXT.1.1|9=60|35=0|34=138|49=pjseoane232|52=20190701-01:51:07.000|56=ROFX|10=168|)
2019-06-30 22:51:10,614 : R adm>> (8=FIXT.1.1|9=60|35=0|34=144|49=ROFX|52=20190701-01:51:09.983|56=pjseoane232|10=187|)
2019-06-30 22:51:37,952 : S toAdmin1>> (8=FIXT.1.1|9=60|35=0|34=139|49=pjseoane232|52=20190701-01:51:37.000|56=ROFX|10=172|)
2019-06-30 22:51:39,732 : R adm>> (8=FIXT.1.1|9=60|35=0|34=145|49=ROFX|52=20190701-01:51:39.983|56=pjseoane232|10=191|)
