2019-07-09 21:52:17,302 : onCreate, sessionID >> (FIXT.1.1:pjseoane232->ROFX)
2019-07-09 21:52:17,303 : S toAdmin1>> (8=FIXT.1.1|9=83|35=A|34=1|49=pjseoane232|52=20190710-00:52:17.303|56=ROFX|98=0|108=30|141=Y|1137=9|10=227|)
2019-07-09 21:52:17,303 : S Logon>> (8=FIXT.1.1|9=112|35=A|34=1|49=pjseoane232|52=20190710-00:52:17.303|56=ROFX|553=pjseoane232|554=AiZkiC5#|98=0|108=30|141=Y|1137=9|10=034|)
2019-07-09 21:52:18,979 : R adm>> (8=FIXT.1.1|9=83|35=A|34=1|49=ROFX|52=20190710-00:52:18.686|56=pjseoane232|98=0|108=30|141=Y|1137=9|10=242|)
2019-07-09 21:52:18,979 : onLogon, Hello Rofex: >> (FIXT.1.1:pjseoane232->ROFX)
2019-07-09 21:52:18,980 : S toApp>> (8=FIXT.1.1|9=145|35=V|34=2|49=pjseoane232|52=20190710-00:52:18.980|56=ROFX|1128=9|146=1|55=RFX20Sep19|262=ListaMktData2|263=2|264=1|265=0|266=Y|267=2|269=0|269=1|10=181|)
2019-07-09 21:52:19,389 : onMessage, R app>> (8=FIXT.1.1|9=134|35=j|34=2|49=ROFX|52=20190710-00:52:19.190|56=pjseoane232|58=Internal application error, contact support.3392287337750557|372=V|380=4|10=201|)
2019-07-09 21:52:19,781 : onMessage, R app>> (8=FIXT.1.1|9=108|35=h|34=3|49=ROFX|52=20190710-00:52:19.214|56=pjseoane232|325=Y|335=NONE|336=[N/A]|340=2|1300=DDF|1301=ROFX|10=087|)
2019-07-09 21:52:19,781 : onMessage, R app>> (8=FIXT.1.1|9=108|35=h|34=4|49=ROFX|52=20190710-00:52:19.214|56=pjseoane232|325=Y|335=NONE|336=[N/A]|340=2|1300=DDA|1301=ROFX|10=083|)
2019-07-09 21:52:19,781 : onMessage, R app>> (8=FIXT.1.1|9=109|35=h|34=5|49=ROFX|52=20190710-00:52:19.214|56=pjseoane232|325=Y|335=NONE|336=[N/A]|340=2|1300=DUAL|1301=ROFX|10=178|)
2019-07-09 21:52:19,781 : onMessage, R app>> (8=FIXT.1.1|9=109|35=h|34=6|49=ROFX|52=20190710-00:52:19.214|56=pjseoane232|325=Y|335=NONE|336=[N/A]|340=2|1300=MERV|1301=ROFX|10=199|)
2019-07-09 21:52:19,782 : onMessage, R app>> (8=FIXT.1.1|9=122|35=h|34=7|49=ROFX|52=20190710-00:52:19.214|56=pjseoane232|58=EXTERNAL|325=Y|335=NONE|336=[N/A]|340=2|1300=MATBA|1301=ROFX|10=252|)
2019-07-09 21:52:19,782 : onMessage, R app>> (8=FIXT.1.1|9=109|35=h|34=8|49=ROFX|52=20190710-00:52:19.214|56=pjseoane232|325=Y|335=NONE|336=[N/A]|340=2|1300=RFXI|1301=ROFX|10=200|)
2019-07-09 21:52:19,856 : onMessage, R app>> (8=FIXT.1.1|9=112|35=h|34=9|49=ROFX|52=20190710-00:52:19.734|56=pjseoane232|325=Y|335=NONE|336=1|340=0|625=1|1300=[N/A]|1301=ROFX|10=204|)
2019-07-09 21:52:48,701 : S toAdmin1>> (8=FIXT.1.1|9=58|35=0|34=3|49=pjseoane232|52=20190710-00:52:48.701|56=ROFX|10=083|)
2019-07-09 21:52:51,702 : R adm>> (8=FIXT.1.1|9=59|35=0|34=10|49=ROFX|52=20190710-00:52:50.519|56=pjseoane232|10=130|)
2019-07-09 21:53:18,390 : S toAdmin1>> (8=FIXT.1.1|9=58|35=0|34=4|49=pjseoane232|52=20190710-00:53:18.390|56=ROFX|10=086|)
2019-07-09 21:53:22,361 : R adm>> (8=FIXT.1.1|9=59|35=0|34=11|49=ROFX|52=20190710-00:53:20.519|56=pjseoane232|10=129|)
2019-07-09 21:53:48,881 : S toAdmin1>> (8=FIXT.1.1|9=58|35=0|34=5|49=pjseoane232|52=20190710-00:53:48.881|56=ROFX|10=095|)
2019-07-09 21:53:50,677 : R adm>> (8=FIXT.1.1|9=59|35=0|34=12|49=ROFX|52=20190710-00:53:50.519|56=pjseoane232|10=133|)
2019-07-09 21:54:18,029 : S toAdmin1>> (8=FIXT.1.1|9=58|35=0|34=6|49=pjseoane232|52=20190710-00:54:18.029|56=ROFX|10=088|)
2019-07-09 21:54:20,798 : R adm>> (8=FIXT.1.1|9=59|35=0|34=13|49=ROFX|52=20190710-00:54:20.519|56=pjseoane232|10=132|)
2019-07-09 21:54:54,662 : S toAdmin1>> (8=FIXT.1.1|9=58|35=0|34=7|49=pjseoane232|52=20190710-00:54:48.755|56=ROFX|10=098|)
2019-07-09 21:54:56,581 : S toAdmin1>> (8=FIXT.1.1|9=67|35=1|34=8|49=pjseoane232|52=20190710-00:54:56.580|56=ROFX|112=TEST|10=113|)
2019-07-09 21:54:56,830 : R adm>> (8=FIXT.1.1|9=59|35=0|34=14|49=ROFX|52=20190710-00:54:50.519|56=pjseoane232|10=136|)
2019-07-09 21:54:57,148 : R adm>> (8=FIXT.1.1|9=68|35=0|34=15|49=ROFX|52=20190710-00:54:56.677|56=pjseoane232|112=TEST|10=166|)
2019-07-09 21:55:26,695 : S toAdmin1>> (8=FIXT.1.1|9=58|35=0|34=9|49=pjseoane232|52=20190710-00:55:26.695|56=ROFX|10=100|)
2019-07-09 21:55:27,174 : R adm>> (8=FIXT.1.1|9=59|35=0|34=16|49=ROFX|52=20190710-00:55:26.787|56=pjseoane232|10=149|)
2019-07-09 21:55:56,682 : S toAdmin1>> (8=FIXT.1.1|9=59|35=0|34=10|49=pjseoane232|52=20190710-00:55:56.682|56=ROFX|10=140|)
2019-07-09 21:55:57,255 : R adm>> (8=FIXT.1.1|9=59|35=0|34=17|49=ROFX|52=20190710-00:55:56.778|56=pjseoane232|10=153|)
2019-07-09 21:56:26,629 : S toAdmin1>> (8=FIXT.1.1|9=59|35=0|34=11|49=pjseoane232|52=20190710-00:56:26.629|56=ROFX|10=140|)
2019-07-09 21:56:28,588 : R adm>> (8=FIXT.1.1|9=59|35=0|34=18|49=ROFX|52=20190710-00:56:27.273|56=pjseoane232|10=143|)
2019-07-09 21:56:56,855 : S toAdmin1>> (8=FIXT.1.1|9=59|35=0|34=12|49=pjseoane232|52=20190710-00:56:56.855|56=ROFX|10=145|)
2019-07-09 21:56:58,535 : R adm>> (8=FIXT.1.1|9=59|35=0|34=19|49=ROFX|52=20190710-00:56:57.519|56=pjseoane232|10=150|)
2019-07-09 21:57:26,627 : S toAdmin1>> (8=FIXT.1.1|9=59|35=0|34=13|49=pjseoane232|52=20190710-00:57:26.627|56=ROFX|10=141|)
2019-07-09 21:57:28,543 : R adm>> (8=FIXT.1.1|9=59|35=0|34=20|49=ROFX|52=20190710-00:57:27.519|56=pjseoane232|10=140|)
2019-07-09 21:57:56,459 : S toAdmin1>> (8=FIXT.1.1|9=59|35=0|34=14|49=pjseoane232|52=20190710-00:57:56.459|56=ROFX|10=148|)
2019-07-09 21:57:57,800 : R adm>> (8=FIXT.1.1|9=59|35=0|34=21|49=ROFX|52=20190710-00:57:57.519|56=pjseoane232|10=144|)
2019-07-09 21:58:26,508 : S toAdmin1>> (8=FIXT.1.1|9=59|35=0|34=15|49=pjseoane232|52=20190710-00:58:26.508|56=ROFX|10=142|)
2019-07-09 21:58:29,909 : R adm>> (8=FIXT.1.1|9=59|35=0|34=22|49=ROFX|52=20190710-00:58:27.519|56=pjseoane232|10=143|)
2019-07-09 21:58:56,633 : S toAdmin1>> (8=FIXT.1.1|9=59|35=0|34=16|49=pjseoane232|52=20190710-00:58:56.633|56=ROFX|10=145|)
2019-07-09 21:58:58,122 : R adm>> (8=FIXT.1.1|9=59|35=0|34=23|49=ROFX|52=20190710-00:58:57.519|56=pjseoane232|10=147|)
2019-07-09 21:59:26,522 : S toAdmin1>> (8=FIXT.1.1|9=59|35=0|34=17|49=pjseoane232|52=20190710-00:59:26.522|56=ROFX|10=141|)
2019-07-09 21:59:28,329 : R adm>> (8=FIXT.1.1|9=59|35=0|34=24|49=ROFX|52=20190710-00:59:27.519|56=pjseoane232|10=146|)
2019-07-09 21:59:56,569 : S toAdmin1>> (8=FIXT.1.1|9=59|35=0|34=18|49=pjseoane232|52=20190710-00:59:56.569|56=ROFX|10=156|)
2019-07-09 21:59:58,164 : R adm>> (8=FIXT.1.1|9=59|35=0|34=25|49=ROFX|52=20190710-00:59:57.519|56=pjseoane232|10=150|)
2019-07-09 22:00:26,247 : S toAdmin1>> (8=FIXT.1.1|9=59|35=0|34=19|49=pjseoane232|52=20190710-01:00:26.247|56=ROFX|10=134|)
2019-07-09 22:00:28,268 : R adm>> (8=FIXT.1.1|9=59|35=0|34=26|49=ROFX|52=20190710-01:00:27.519|56=pjseoane232|10=135|)
2019-07-09 22:00:56,196 : S toAdmin1>> (8=FIXT.1.1|9=59|35=0|34=20|49=pjseoane232|52=20190710-01:00:56.196|56=ROFX|10=132|)
2019-07-09 22:00:57,852 : R adm>> (8=FIXT.1.1|9=59|35=0|34=27|49=ROFX|52=20190710-01:00:57.519|56=pjseoane232|10=139|)
2019-07-09 22:01:26,525 : S toAdmin1>> (8=FIXT.1.1|9=59|35=0|34=21|49=pjseoane232|52=20190710-01:01:26.525|56=ROFX|10=127|)
2019-07-09 22:01:28,506 : R adm>> (8=FIXT.1.1|9=59|35=0|34=28|49=ROFX|52=20190710-01:01:27.519|56=pjseoane232|10=138|)
2019-07-09 22:01:56,148 : S toAdmin1>> (8=FIXT.1.1|9=59|35=0|34=22|49=pjseoane232|52=20190710-01:01:56.148|56=ROFX|10=132|)
2019-07-09 22:01:57,696 : R adm>> (8=FIXT.1.1|9=59|35=0|34=29|49=ROFX|52=20190710-01:01:57.519|56=pjseoane232|10=142|)
2019-07-09 22:02:26,108 : S toAdmin1>> (8=FIXT.1.1|9=59|35=0|34=23|49=pjseoane232|52=20190710-01:02:26.108|56=ROFX|10=127|)
2019-07-09 22:02:27,521 : R adm>> (8=FIXT.1.1|9=59|35=0|34=30|49=ROFX|52=20190710-01:02:27.519|56=pjseoane232|10=132|)
2019-07-09 22:02:56,633 : S toAdmin1>> (8=FIXT.1.1|9=59|35=0|34=24|49=pjseoane232|52=20190710-01:02:56.633|56=ROFX|10=134|)
2019-07-09 22:02:57,614 : R adm>> (8=FIXT.1.1|9=59|35=0|34=31|49=ROFX|52=20190710-01:02:57.519|56=pjseoane232|10=136|)
2019-07-09 22:03:26,532 : S toAdmin1>> (8=FIXT.1.1|9=59|35=0|34=25|49=pjseoane232|52=20190710-01:03:26.531|56=ROFX|10=130|)
2019-07-09 22:03:27,702 : R adm>> (8=FIXT.1.1|9=59|35=0|34=32|49=ROFX|52=20190710-01:03:27.519|56=pjseoane232|10=135|)
2019-07-09 22:03:56,426 : S toAdmin1>> (8=FIXT.1.1|9=59|35=0|34=26|49=pjseoane232|52=20190710-01:03:56.426|56=ROFX|10=137|)
2019-07-09 22:03:57,785 : R adm>> (8=FIXT.1.1|9=59|35=0|34=33|49=ROFX|52=20190710-01:03:57.519|56=pjseoane232|10=139|)
2019-07-09 22:04:26,294 : S toAdmin1>> (8=FIXT.1.1|9=59|35=0|34=27|49=pjseoane232|52=20190710-01:04:26.294|56=ROFX|10=139|)
2019-07-09 22:04:27,967 : R adm>> (8=FIXT.1.1|9=59|35=0|34=34|49=ROFX|52=20190710-01:04:27.519|56=pjseoane232|10=138|)
2019-07-09 22:04:56,303 : S toAdmin1>> (8=FIXT.1.1|9=59|35=0|34=28|49=pjseoane232|52=20190710-01:04:56.303|56=ROFX|10=134|)
2019-07-09 22:04:58,051 : R adm>> (8=FIXT.1.1|9=59|35=0|34=35|49=ROFX|52=20190710-01:04:57.519|56=pjseoane232|10=142|)
2019-07-09 22:05:26,268 : S toAdmin1>> (8=FIXT.1.1|9=59|35=0|34=29|49=pjseoane232|52=20190710-01:05:26.267|56=ROFX|10=142|)
2019-07-09 22:05:28,273 : R adm>> (8=FIXT.1.1|9=59|35=0|34=36|49=ROFX|52=20190710-01:05:27.519|56=pjseoane232|10=141|)
2019-07-09 22:05:56,283 : S toAdmin1>> (8=FIXT.1.1|9=59|35=0|34=30|49=pjseoane232|52=20190710-01:05:56.283|56=ROFX|10=135|)
2019-07-09 22:05:58,217 : R adm>> (8=FIXT.1.1|9=59|35=0|34=37|49=ROFX|52=20190710-01:05:57.519|56=pjseoane232|10=145|)
2019-07-09 22:06:26,056 : S toAdmin1>> (8=FIXT.1.1|9=59|35=0|34=31|49=pjseoane232|52=20190710-01:06:26.055|56=ROFX|10=131|)
2019-07-09 22:06:27,646 : R adm>> (8=FIXT.1.1|9=59|35=0|34=38|49=ROFX|52=20190710-01:06:27.519|56=pjseoane232|10=144|)
2019-07-09 22:06:56,143 : S toAdmin1>> (8=FIXT.1.1|9=59|35=0|34=32|49=pjseoane232|52=20190710-01:06:56.143|56=ROFX|10=133|)
2019-07-09 22:06:57,425 : R adm>> (8=FIXT.1.1|9=59|35=0|34=39|49=ROFX|52=20190710-01:06:57.519|56=pjseoane232|10=148|)
2019-07-09 22:07:26,563 : S toAdmin1>> (8=FIXT.1.1|9=59|35=0|34=33|49=pjseoane232|52=20190710-01:07:26.563|56=ROFX|10=138|)
2019-07-09 22:07:27,650 : R adm>> (8=FIXT.1.1|9=59|35=0|34=40|49=ROFX|52=20190710-01:07:27.519|56=pjseoane232|10=138|)
