2019-06-29 00:44:13,276 : onCreate, sessionID >> (FIXT.1.1:pjseoane232->ROFX)
2019-06-29 00:44:13,288 : S toAdmin>> (8=FIXT.1.1|9=83|35=A|34=1|49=pjseoane232|52=20190629-03:44:13.000|56=ROFX|98=0|108=30|141=Y|1137=9|10=230|)
2019-06-29 00:44:13,288 : S toAdmin>> (8=FIXT.1.1|9=112|35=A|34=1|49=pjseoane232|52=20190629-03:44:13.000|56=ROFX|553=pjseoane232|554=AiZkiC5#|98=0|108=30|141=Y|1137=9|10=037|)
2019-06-29 00:44:16,637 : R adm>> (8=FIXT.1.1|9=83|35=A|34=1|49=ROFX|52=20190629-03:44:18.496|56=pjseoane232|98=0|108=30|141=Y|1137=9|10=254|)
2019-06-29 00:44:16,637 : onLogon, Hello Rofex: >> (FIXT.1.1:pjseoane232->ROFX)
2019-06-29 00:44:16,638 : onMessage, R app>> (8=FIXT.1.1|9=108|35=h|34=2|49=ROFX|52=20190629-03:44:19.056|56=pjseoane232|325=Y|335=NONE|336=[N/A]|340=2|1300=DDA|1301=ROFX|10=098|)
2019-06-29 00:44:16,638 : onMessage, R app>> (8=FIXT.1.1|9=109|35=h|34=3|49=ROFX|52=20190629-03:44:19.056|56=pjseoane232|325=Y|335=NONE|336=[N/A]|340=2|1300=DUAL|1301=ROFX|10=193|)
2019-06-29 00:44:16,638 : onMessage, R app>> (8=FIXT.1.1|9=122|35=h|34=4|49=ROFX|52=20190629-03:44:19.056|56=pjseoane232|58=EXTERNAL|325=Y|335=NONE|336=[N/A]|340=2|1300=MATBA|1301=ROFX|10=010|)
2019-06-29 00:44:16,638 : onMessage, R app>> (8=FIXT.1.1|9=109|35=h|34=5|49=ROFX|52=20190629-03:44:19.056|56=pjseoane232|325=Y|335=NONE|336=[N/A]|340=2|1300=RFXI|1301=ROFX|10=214|)
2019-06-29 00:44:16,638 : onMessage, R app>> (8=FIXT.1.1|9=109|35=h|34=6|49=ROFX|52=20190629-03:44:19.056|56=pjseoane232|325=Y|335=NONE|336=[N/A]|340=2|1300=MERV|1301=ROFX|10=216|)
2019-06-29 00:44:16,638 : onMessage, R app>> (8=FIXT.1.1|9=108|35=h|34=7|49=ROFX|52=20190629-03:44:19.056|56=pjseoane232|325=Y|335=NONE|336=[N/A]|340=2|1300=DDF|1301=ROFX|10=108|)
2019-06-29 00:44:17,816 : onMessage, R app>> (8=FIXT.1.1|9=112|35=h|34=8|49=ROFX|52=20190629-03:44:19.574|56=pjseoane232|325=Y|335=NONE|336=1|340=0|625=1|1300=[N/A]|1301=ROFX|10=218|)
2019-06-29 00:44:43,302 : S toAdmin>> (8=FIXT.1.1|9=58|35=0|34=2|49=pjseoane232|52=20190629-03:44:43.000|56=ROFX|10=082|)
2019-06-29 00:44:48,610 : R adm>> (8=FIXT.1.1|9=58|35=0|34=9|49=ROFX|52=20190629-03:44:50.498|56=pjseoane232|10=108|)
2019-06-29 00:45:13,319 : S toAdmin>> (8=FIXT.1.1|9=58|35=0|34=3|49=pjseoane232|52=20190629-03:45:13.000|56=ROFX|10=081|)
2019-06-29 00:45:19,066 : R adm>> (8=FIXT.1.1|9=59|35=0|34=10|49=ROFX|52=20190629-03:45:20.498|56=pjseoane232|10=147|)
