2019-06-24 22:49:40,980 : S >> (8=FIXT.1.1|9=83|35=A|34=1|49=pjseoane232|52=20190625-01:49:40.000|56=ROFX|98=0|108=30|141=Y|1137=9|10=229|)
2019-06-24 22:49:41,957 : R >> (8=FIXT.1.1|9=83|35=A|34=1|49=ROFX|52=20190625-01:49:42.214|56=pjseoane232|98=0|108=30|141=Y|1137=9|10=238|)
2019-06-24 22:49:42,474 : S >> (8=FIXT.1.1|9=133|35=3|34=2|49=pjseoane232|52=20190625-01:49:42.000|56=ROFX|45=2|58=Value is incorrect (out of range) for this tag|371=336|372=h|373=5|10=048|)
2019-06-24 22:49:42,475 : S >> (8=FIXT.1.1|9=133|35=3|34=3|49=pjseoane232|52=20190625-01:49:42.000|56=ROFX|45=3|58=Value is incorrect (out of range) for this tag|371=336|372=h|373=5|10=050|)
2019-06-24 22:49:42,475 : S >> (8=FIXT.1.1|9=133|35=3|34=4|49=pjseoane232|52=20190625-01:49:42.000|56=ROFX|45=4|58=Value is incorrect (out of range) for this tag|371=336|372=h|373=5|10=052|)
2019-06-24 22:49:42,476 : S >> (8=FIXT.1.1|9=133|35=3|34=5|49=pjseoane232|52=20190625-01:49:42.000|56=ROFX|45=5|58=Value is incorrect (out of range) for this tag|371=336|372=h|373=5|10=054|)
2019-06-24 22:49:42,476 : S >> (8=FIXT.1.1|9=133|35=3|34=6|49=pjseoane232|52=20190625-01:49:42.000|56=ROFX|45=6|58=Value is incorrect (out of range) for this tag|371=336|372=h|373=5|10=056|)
2019-06-24 22:49:42,476 : S >> (8=FIXT.1.1|9=133|35=3|34=7|49=pjseoane232|52=20190625-01:49:42.000|56=ROFX|45=7|58=Value is incorrect (out of range) for this tag|371=336|372=h|373=5|10=058|)
2019-06-24 22:49:42,978 : R >> (8=FIXT.1.1|9=112|35=h|34=8|49=ROFX|52=20190625-01:49:43.296|56=pjseoane232|325=Y|335=NONE|336=1|340=0|625=1|1300=[N/A]|1301=ROFX|10=215|)
