2019-06-27 23:40:49,455 : S >> (8=FIXT.1.1|9=83|35=A|34=1|49=pjseoane232|52=20190628-02:40:49.000|56=ROFX|98=0|108=30|141=Y|1137=9|10=233|)
2019-06-27 23:40:49,455 : S >> (8=FIXT.1.1|9=112|35=A|34=1|49=pjseoane232|52=20190628-02:40:49.000|56=ROFX|553=pjseoane232|554=AiZkiC5#|98=0|108=30|141=Y|1137=9|10=040|)
