2020-05-23 18:21:16,992 : toAdmin, Send toROFEX>> (8=FIXT.1.1|9=59|35=5|34=14|49=pjseoane232|52=20200523-21:21:16.000|56=ROFX|10=119|)
2020-05-23 18:21:16,994 : onCreate session OK, sessionID >> (FIXT.1.1:pjseoane232->ROFX)
